{"fileName":"ERC20Pausable.sol","contractName":"ERC20Pausable","source":"pragma solidity ^0.5.2;\n\nimport \"@openzeppelin/upgrades/contracts/Initializable.sol\";\nimport \"./ERC20.sol\";\nimport \"../../lifecycle/Pausable.sol\";\n\n/**\n * @title Pausable token\n * @dev ERC20 modified with pausable transfers.\n */\ncontract ERC20Pausable is Initializable, ERC20, Pausable {\n    function initialize(address sender) public initializer {\n        Pausable.initialize(sender);\n    }\n\n    function transfer(address to, uint256 value) public whenNotPaused returns (bool) {\n        return super.transfer(to, value);\n    }\n\n    function transferFrom(address from, address to, uint256 value) public whenNotPaused returns (bool) {\n        return super.transferFrom(from, to, value);\n    }\n\n    function approve(address spender, uint256 value) public whenNotPaused returns (bool) {\n        return super.approve(spender, value);\n    }\n\n    function increaseAllowance(address spender, uint addedValue) public whenNotPaused returns (bool success) {\n        return super.increaseAllowance(spender, addedValue);\n    }\n\n    function decreaseAllowance(address spender, uint subtractedValue) public whenNotPaused returns (bool success) {\n        return super.decreaseAllowance(spender, subtractedValue);\n    }\n\n    uint256[50] private ______gap;\n}\n","sourcePath":"@openzeppelin/contracts-ethereum-package/contracts/token/ERC20/ERC20Pausable.sol","abi":[{"constant":false,"inputs":[{"internalType":"address","name":"spender","type":"address"},{"internalType":"uint256","name":"value","type":"uint256"}],"name":"approve","outputs":[{"internalType":"bool","name":"","type":"bool"}],"payable":false,"stateMutability":"nonpayable","type":"function"},{"constant":true,"inputs":[],"name":"totalSupply","outputs":[{"internalType":"uint256","name":"","type":"uint256"}],"payable":false,"stateMutability":"view","type":"function"},{"constant":false,"inputs":[{"internalType":"address","name":"from","type":"address"},{"internalType":"address","name":"to","type":"address"},{"internalType":"uint256","name":"value","type":"uint256"}],"name":"transferFrom","outputs":[{"internalType":"bool","name":"","type":"bool"}],"payable":false,"stateMutability":"nonpayable","type":"function"},{"constant":false,"inputs":[{"internalType":"address","name":"spender","type":"address"},{"internalType":"uint256","name":"addedValue","type":"uint256"}],"name":"increaseAllowance","outputs":[{"internalType":"bool","name":"success","type":"bool"}],"payable":false,"stateMutability":"nonpayable","type":"function"},{"constant":false,"inputs":[],"name":"unpause","outputs":[],"payable":false,"stateMutability":"nonpayable","type":"function"},{"constant":true,"inputs":[{"internalType":"address","name":"account","type":"address"}],"name":"isPauser","outputs":[{"internalType":"bool","name":"","type":"bool"}],"payable":false,"stateMutability":"view","type":"function"},{"constant":true,"inputs":[],"name":"paused","outputs":[{"internalType":"bool","name":"","type":"bool"}],"payable":false,"stateMutability":"view","type":"function"},{"constant":false,"inputs":[],"name":"renouncePauser","outputs":[],"payable":false,"stateMutability":"nonpayable","type":"function"},{"constant":true,"inputs":[{"internalType":"address","name":"owner","type":"address"}],"name":"balanceOf","outputs":[{"internalType":"uint256","name":"","type":"uint256"}],"payable":false,"stateMutability":"view","type":"function"},{"constant":false,"inputs":[{"internalType":"address","name":"account","type":"address"}],"name":"addPauser","outputs":[],"payable":false,"stateMutability":"nonpayable","type":"function"},{"constant":false,"inputs":[],"name":"pause","outputs":[],"payable":false,"stateMutability":"nonpayable","type":"function"},{"constant":false,"inputs":[{"internalType":"address","name":"spender","type":"address"},{"internalType":"uint256","name":"subtractedValue","type":"uint256"}],"name":"decreaseAllowance","outputs":[{"internalType":"bool","name":"success","type":"bool"}],"payable":false,"stateMutability":"nonpayable","type":"function"},{"constant":false,"inputs":[{"internalType":"address","name":"to","type":"address"},{"internalType":"uint256","name":"value","type":"uint256"}],"name":"transfer","outputs":[{"internalType":"bool","name":"","type":"bool"}],"payable":false,"stateMutability":"nonpayable","type":"function"},{"constant":false,"inputs":[{"internalType":"address","name":"sender","type":"address"}],"name":"initialize","outputs":[],"payable":false,"stateMutability":"nonpayable","type":"function"},{"constant":true,"inputs":[{"internalType":"address","name":"owner","type":"address"},{"internalType":"address","name":"spender","type":"address"}],"name":"allowance","outputs":[{"internalType":"uint256","name":"","type":"uint256"}],"payable":false,"stateMutability":"view","type":"function"},{"anonymous":false,"inputs":[{"indexed":false,"internalType":"address","name":"account","type":"address"}],"name":"Paused","type":"event"},{"anonymous":false,"inputs":[{"indexed":false,"internalType":"address","name":"account","type":"address"}],"name":"Unpaused","type":"event"},{"anonymous":false,"inputs":[{"indexed":true,"internalType":"address","name":"account","type":"address"}],"name":"PauserAdded","type":"event"},{"anonymous":false,"inputs":[{"indexed":true,"internalType":"address","name":"account","type":"address"}],"name":"PauserRemoved","type":"event"},{"anonymous":false,"inputs":[{"indexed":true,"internalType":"address","name":"from","type":"address"},{"indexed":true,"internalType":"address","name":"to","type":"address"},{"indexed":false,"internalType":"uint256","name":"value","type":"uint256"}],"name":"Transfer","type":"event"},{"anonymous":false,"inputs":[{"indexed":true,"internalType":"address","name":"owner","type":"address"},{"indexed":true,"internalType":"address","name":"spender","type":"address"},{"indexed":false,"internalType":"uint256","name":"value","type":"uint256"}],"name":"Approval","type":"event"}],"bytecode":"0x60806040525b5b61000b565b6118398061001a6000396000f3fe60806040523480156100115760006000fd5b50600436106100fa5760003560e01c80636ef8d66d11610098578063a457c2d711610067578063a457c2d7146103ae578063a9059cbb14610415578063c4d66de81461047c578063dd62ed3e146104c1576100fa565b80636ef8d66d146102fc57806370a082311461030657806382dc1ec41461035f5780638456cb59146103a4576100fa565b806339509351116100d4578063395093511461020c5780633f4ba83a1461027357806346fbf68e1461027d5780635c975abb146102da576100fa565b8063095ea7b31461010057806318160ddd1461016757806323b872dd14610185576100fa565b60006000fd5b61014d600480360360408110156101175760006000fd5b81019080803573ffffffffffffffffffffffffffffffffffffffff1690602001909291908035906020019092919050505061053a565b604051808215151515815260200191505060405180910390f35b61016f610577565b6040518082815260200191505060405180910390f35b6101f26004803603606081101561019c5760006000fd5b81019080803573ffffffffffffffffffffffffffffffffffffffff169060200190929190803573ffffffffffffffffffffffffffffffffffffffff16906020019092919080359060200190929190505050610589565b604051808215151515815260200191505060405180910390f35b610259600480360360408110156102235760006000fd5b81019080803573ffffffffffffffffffffffffffffffffffffffff169060200190929190803590602001909291905050506105c8565b604051808215151515815260200191505060405180910390f35b61027b610605565b005b6102c0600480360360208110156102945760006000fd5b81019080803573ffffffffffffffffffffffffffffffffffffffff169060200190929190505050610724565b604051808215151515815260200191505060405180910390f35b6102e2610749565b604051808215151515815260200191505060405180910390f35b610304610765565b005b6103496004803603602081101561031d5760006000fd5b81019080803573ffffffffffffffffffffffffffffffffffffffff169060200190929190505050610784565b6040518082815260200191505060405180910390f35b6103a2600480360360208110156103765760006000fd5b81019080803573ffffffffffffffffffffffffffffffffffffffff1690602001909291905050506107d8565b005b6103ac61085f565b005b6103fb600480360360408110156103c55760006000fd5b81019080803573ffffffffffffffffffffffffffffffffffffffff1690602001909291908035906020019092919050505061097f565b604051808215151515815260200191505060405180910390f35b6104626004803603604081101561042c5760006000fd5b81019080803573ffffffffffffffffffffffffffffffffffffffff169060200190929190803590602001909291905050506109bc565b604051808215151515815260200191505060405180910390f35b6104bf600480360360208110156104935760006000fd5b81019080803573ffffffffffffffffffffffffffffffffffffffff1690602001909291905050506109f9565b005b610524600480360360408110156104d85760006000fd5b81019080803573ffffffffffffffffffffffffffffffffffffffff169060200190929190803573ffffffffffffffffffffffffffffffffffffffff169060200190929190505050610b16565b6040518082815260200191505060405180910390f35b6000609b60009054906101000a900460ff161515156105595760006000fd5b6105698383610bab63ffffffff16565b9050610570565b5b92915050565b60006035600050549050610586565b90565b6000609b60009054906101000a900460ff161515156105a85760006000fd5b6105b9848484610bda63ffffffff16565b90506105c0565b5b9392505050565b6000609b60009054906101000a900460ff161515156105e75760006000fd5b6105f78383610cbf63ffffffff16565b90506105fe565b5b92915050565b610621610616610d9263ffffffff16565b61072463ffffffff16565b1515610678576040517f08c379a00000000000000000000000000000000000000000000000000000000081526004018080602001828103825260308152602001806117a76030913960400191505060405180910390fd5b609b60009054906101000a900460ff1615156106945760006000fd5b6000609b60006101000a81548160ff0219169083151502179055507f5db9ee0a495bf2e6ff9c91a7834c1ba4fdd244a5e8aa4e537bd38aeae4b073aa6106de610d9263ffffffff16565b604051808273ffffffffffffffffffffffffffffffffffffffff1673ffffffffffffffffffffffffffffffffffffffff16815260200191505060405180910390a15b5b5b565b600061073d826068600050610d9f90919063ffffffff16565b9050610744565b919050565b6000609b60009054906101000a900460ff169050610762565b90565b610781610776610d9263ffffffff16565b610e3d63ffffffff16565b5b565b6000603360005060008373ffffffffffffffffffffffffffffffffffffffff1673ffffffffffffffffffffffffffffffffffffffff1681526020019081526020016000206000505490506107d3565b919050565b6107f46107e9610d9263ffffffff16565b61072463ffffffff16565b151561084b576040517f08c379a00000000000000000000000000000000000000000000000000000000081526004018080602001828103825260308152602001806117a76030913960400191505060405180910390fd5b61085a81610e9b63ffffffff16565b5b5b50565b61087b610870610d9263ffffffff16565b61072463ffffffff16565b15156108d2576040517f08c379a00000000000000000000000000000000000000000000000000000000081526004018080602001828103825260308152602001806117a76030913960400191505060405180910390fd5b609b60009054906101000a900460ff161515156108ef5760006000fd5b6001609b60006101000a81548160ff0219169083151502179055507f62e78cea01bee320cd4e420270b5ea74000d11b0c9f74754ebdbfc544b05a258610939610d9263ffffffff16565b604051808273ffffffffffffffffffffffffffffffffffffffff1673ffffffffffffffffffffffffffffffffffffffff16815260200191505060405180910390a15b5b5b565b6000609b60009054906101000a900460ff1615151561099e5760006000fd5b6109ae8383610ef963ffffffff16565b90506109b5565b5b92915050565b6000609b60009054906101000a900460ff161515156109db5760006000fd5b6109eb8383610fcc63ffffffff16565b90506109f2565b5b92915050565b600060019054906101000a900460ff1680610a1e5750610a1d610ffb63ffffffff16565b5b80610a365750600060009054906101000a900460ff16155b1515610a8d576040517f08c379a000000000000000000000000000000000000000000000000000000000815260040180806020018281038252602e8152602001806117d7602e913960400191505060405180910390fd5b6000600060019054906101000a900460ff161590508015610adf576001600060016101000a81548160ff0219169083151502179055506001600060006101000a81548160ff0219169083151502179055505b610aee8261101363ffffffff16565b5b8015610b11576000600060016101000a81548160ff0219169083151502179055505b505b50565b6000603460005060008473ffffffffffffffffffffffffffffffffffffffff1673ffffffffffffffffffffffffffffffffffffffff16815260200190815260200160002060005060008373ffffffffffffffffffffffffffffffffffffffff1673ffffffffffffffffffffffffffffffffffffffff168152602001908152602001600020600050549050610ba5565b92915050565b6000610bcb610bbe610d9263ffffffff16565b848461114b63ffffffff16565b60019050610bd4565b92915050565b6000610bed8484846112bc63ffffffff16565b610caf84610bff610d9263ffffffff16565b610ca485603460005060008a73ffffffffffffffffffffffffffffffffffffffff1673ffffffffffffffffffffffffffffffffffffffff1681526020019081526020016000206000506000610c58610d9263ffffffff16565b73ffffffffffffffffffffffffffffffffffffffff1673ffffffffffffffffffffffffffffffffffffffff168152602001908152602001600020600050546114aa90919063ffffffff16565b61114b63ffffffff16565b60019050610cb8565b9392505050565b6000610d83610cd2610d9263ffffffff16565b84610d788560346000506000610cec610d9263ffffffff16565b73ffffffffffffffffffffffffffffffffffffffff1673ffffffffffffffffffffffffffffffffffffffff16815260200190815260200160002060005060008973ffffffffffffffffffffffffffffffffffffffff1673ffffffffffffffffffffffffffffffffffffffff168152602001908152602001600020600050546114d390919063ffffffff16565b61114b63ffffffff16565b60019050610d8c565b92915050565b6000339050610d9c565b90565b6000600073ffffffffffffffffffffffffffffffffffffffff168273ffffffffffffffffffffffffffffffffffffffff1614151515610dde5760006000fd5b8260000160005060008373ffffffffffffffffffffffffffffffffffffffff1673ffffffffffffffffffffffffffffffffffffffff16815260200190815260200160002060009054906101000a900460ff169050610e37565b92915050565b610e548160686000506114fc90919063ffffffff16565b8073ffffffffffffffffffffffffffffffffffffffff167fcd265ebaf09df2871cc7bd4133404a235ba12eff2041bb89d9c714a2621c7c7e60405160405180910390a25b50565b610eb28160686000506115b790919063ffffffff16565b8073ffffffffffffffffffffffffffffffffffffffff167f6719d08c1888103bea251a4ed56406bd0c3e69723c8a1686e017e7bbe159b6f860405160405180910390a25b50565b6000610fbd610f0c610d9263ffffffff16565b84610fb28560346000506000610f26610d9263ffffffff16565b73ffffffffffffffffffffffffffffffffffffffff1673ffffffffffffffffffffffffffffffffffffffff16815260200190815260200160002060005060008973ffffffffffffffffffffffffffffffffffffffff1673ffffffffffffffffffffffffffffffffffffffff168152602001908152602001600020600050546114aa90919063ffffffff16565b61114b63ffffffff16565b60019050610fc6565b92915050565b6000610fec610fdf610d9263ffffffff16565b84846112bc63ffffffff16565b60019050610ff5565b92915050565b60006000303b90506000811491505061101056505b90565b600060019054906101000a900460ff16806110385750611037610ffb63ffffffff16565b5b806110505750600060009054906101000a900460ff16155b15156110a7576040517f08c379a000000000000000000000000000000000000000000000000000000000815260040180806020018281038252602e8152602001806117d7602e913960400191505060405180910390fd5b6000600060019054906101000a900460ff1615905080156110f9576001600060016101000a81548160ff0219169083151502179055506001600060006101000a81548160ff0219169083151502179055505b6111088261167363ffffffff16565b6000609b60006101000a81548160ff0219169083151502179055505b8015611146576000600060016101000a81548160ff0219169083151502179055505b505b50565b600073ffffffffffffffffffffffffffffffffffffffff168273ffffffffffffffffffffffffffffffffffffffff16141515156111885760006000fd5b600073ffffffffffffffffffffffffffffffffffffffff168373ffffffffffffffffffffffffffffffffffffffff16141515156111c55760006000fd5b80603460005060008573ffffffffffffffffffffffffffffffffffffffff1673ffffffffffffffffffffffffffffffffffffffff16815260200190815260200160002060005060008473ffffffffffffffffffffffffffffffffffffffff1673ffffffffffffffffffffffffffffffffffffffff1681526020019081526020016000206000508190909055508173ffffffffffffffffffffffffffffffffffffffff168373ffffffffffffffffffffffffffffffffffffffff167f8c5be1e5ebec7d5bd14f71427d1e84f3dd0314c0f7b2291e5b200ac8c7c3b925836040518082815260200191505060405180910390a35b505050565b600073ffffffffffffffffffffffffffffffffffffffff168273ffffffffffffffffffffffffffffffffffffffff16141515156112f95760006000fd5b61135181603360005060008673ffffffffffffffffffffffffffffffffffffffff1673ffffffffffffffffffffffffffffffffffffffff168152602001908152602001600020600050546114aa90919063ffffffff16565b603360005060008573ffffffffffffffffffffffffffffffffffffffff1673ffffffffffffffffffffffffffffffffffffffff1681526020019081526020016000206000508190909055506113f481603360005060008573ffffffffffffffffffffffffffffffffffffffff1673ffffffffffffffffffffffffffffffffffffffff168152602001908152602001600020600050546114d390919063ffffffff16565b603360005060008473ffffffffffffffffffffffffffffffffffffffff1673ffffffffffffffffffffffffffffffffffffffff1681526020019081526020016000206000508190909055508173ffffffffffffffffffffffffffffffffffffffff168373ffffffffffffffffffffffffffffffffffffffff167fddf252ad1be2c89b69c2b068fc378daa952ba7f163c4a11628f55a4df523b3ef836040518082815260200191505060405180910390a35b505050565b60008282111515156114bc5760006000fd5b60008284039050809150506114cd56505b92915050565b6000600082840190508381101515156114ec5760006000fd5b809150506114f656505b92915050565b600073ffffffffffffffffffffffffffffffffffffffff168173ffffffffffffffffffffffffffffffffffffffff16141515156115395760006000fd5b6115498282610d9f63ffffffff16565b15156115555760006000fd5b60008260000160005060008373ffffffffffffffffffffffffffffffffffffffff1673ffffffffffffffffffffffffffffffffffffffff16815260200190815260200160002060006101000a81548160ff0219169083151502179055505b5050565b600073ffffffffffffffffffffffffffffffffffffffff168173ffffffffffffffffffffffffffffffffffffffff16141515156115f45760006000fd5b6116048282610d9f63ffffffff16565b1515156116115760006000fd5b60018260000160005060008373ffffffffffffffffffffffffffffffffffffffff1673ffffffffffffffffffffffffffffffffffffffff16815260200190815260200160002060006101000a81548160ff0219169083151502179055505b5050565b600060019054906101000a900460ff16806116985750611697610ffb63ffffffff16565b5b806116b05750600060009054906101000a900460ff16155b1515611707576040517f08c379a000000000000000000000000000000000000000000000000000000000815260040180806020018281038252602e8152602001806117d7602e913960400191505060405180910390fd5b6000600060019054906101000a900460ff161590508015611759576001600060016101000a81548160ff0219169083151502179055506001600060006101000a81548160ff0219169083151502179055505b6117688261072463ffffffff16565b151561177e5761177d82610e9b63ffffffff16565b5b5b80156117a1576000600060016101000a81548160ff0219169083151502179055505b505b5056fe506175736572526f6c653a2063616c6c657220646f6573206e6f742068617665207468652050617573657220726f6c65436f6e747261637420696e7374616e63652068617320616c7265616479206265656e20696e697469616c697a6564a265627a7a723158206bdca9e777f2575d4cfed5d5c45b1470d593d8bd045aa7caefbfb1333c57a5e264736f6c634300050b0032","compiler":{"name":"solc","version":"0.5.11+commit.c082d0b4.Emscripten.clang","optimizer":{},"evmVersion":"constantinople"}}