{"fileName":"ERC20Mintable.sol","contractName":"ERC20Mintable","source":"pragma solidity ^0.5.2;\n\nimport \"@openzeppelin/upgrades/contracts/Initializable.sol\";\nimport \"./ERC20.sol\";\nimport \"../../access/roles/MinterRole.sol\";\n\n/**\n * @title ERC20Mintable\n * @dev ERC20 minting logic\n */\ncontract ERC20Mintable is Initializable, ERC20, MinterRole {\n    function initialize(address sender) public initializer {\n        MinterRole.initialize(sender);\n    }\n\n    /**\n     * @dev Function to mint tokens\n     * @param to The address that will receive the minted tokens.\n     * @param value The amount of tokens to mint.\n     * @return A boolean that indicates if the operation was successful.\n     */\n    function mint(address to, uint256 value) public onlyMinter returns (bool) {\n        _mint(to, value);\n        return true;\n    }\n\n    uint256[50] private ______gap;\n}\n","sourcePath":"@openzeppelin/contracts-ethereum-package/contracts/token/ERC20/ERC20Mintable.sol","abi":[{"constant":false,"inputs":[{"internalType":"address","name":"spender","type":"address"},{"internalType":"uint256","name":"value","type":"uint256"}],"name":"approve","outputs":[{"internalType":"bool","name":"","type":"bool"}],"payable":false,"stateMutability":"nonpayable","type":"function"},{"constant":true,"inputs":[],"name":"totalSupply","outputs":[{"internalType":"uint256","name":"","type":"uint256"}],"payable":false,"stateMutability":"view","type":"function"},{"constant":false,"inputs":[{"internalType":"address","name":"from","type":"address"},{"internalType":"address","name":"to","type":"address"},{"internalType":"uint256","name":"value","type":"uint256"}],"name":"transferFrom","outputs":[{"internalType":"bool","name":"","type":"bool"}],"payable":false,"stateMutability":"nonpayable","type":"function"},{"constant":false,"inputs":[{"internalType":"address","name":"spender","type":"address"},{"internalType":"uint256","name":"addedValue","type":"uint256"}],"name":"increaseAllowance","outputs":[{"internalType":"bool","name":"","type":"bool"}],"payable":false,"stateMutability":"nonpayable","type":"function"},{"constant":false,"inputs":[{"internalType":"address","name":"to","type":"address"},{"internalType":"uint256","name":"value","type":"uint256"}],"name":"mint","outputs":[{"internalType":"bool","name":"","type":"bool"}],"payable":false,"stateMutability":"nonpayable","type":"function"},{"constant":true,"inputs":[{"internalType":"address","name":"owner","type":"address"}],"name":"balanceOf","outputs":[{"internalType":"uint256","name":"","type":"uint256"}],"payable":false,"stateMutability":"view","type":"function"},{"constant":false,"inputs":[{"internalType":"address","name":"account","type":"address"}],"name":"addMinter","outputs":[],"payable":false,"stateMutability":"nonpayable","type":"function"},{"constant":false,"inputs":[],"name":"renounceMinter","outputs":[],"payable":false,"stateMutability":"nonpayable","type":"function"},{"constant":false,"inputs":[{"internalType":"address","name":"spender","type":"address"},{"internalType":"uint256","name":"subtractedValue","type":"uint256"}],"name":"decreaseAllowance","outputs":[{"internalType":"bool","name":"","type":"bool"}],"payable":false,"stateMutability":"nonpayable","type":"function"},{"constant":false,"inputs":[{"internalType":"address","name":"to","type":"address"},{"internalType":"uint256","name":"value","type":"uint256"}],"name":"transfer","outputs":[{"internalType":"bool","name":"","type":"bool"}],"payable":false,"stateMutability":"nonpayable","type":"function"},{"constant":true,"inputs":[{"internalType":"address","name":"account","type":"address"}],"name":"isMinter","outputs":[{"internalType":"bool","name":"","type":"bool"}],"payable":false,"stateMutability":"view","type":"function"},{"constant":false,"inputs":[{"internalType":"address","name":"sender","type":"address"}],"name":"initialize","outputs":[],"payable":false,"stateMutability":"nonpayable","type":"function"},{"constant":true,"inputs":[{"internalType":"address","name":"owner","type":"address"},{"internalType":"address","name":"spender","type":"address"}],"name":"allowance","outputs":[{"internalType":"uint256","name":"","type":"uint256"}],"payable":false,"stateMutability":"view","type":"function"},{"anonymous":false,"inputs":[{"indexed":true,"internalType":"address","name":"account","type":"address"}],"name":"MinterAdded","type":"event"},{"anonymous":false,"inputs":[{"indexed":true,"internalType":"address","name":"account","type":"address"}],"name":"MinterRemoved","type":"event"},{"anonymous":false,"inputs":[{"indexed":true,"internalType":"address","name":"from","type":"address"},{"indexed":true,"internalType":"address","name":"to","type":"address"},{"indexed":false,"internalType":"uint256","name":"value","type":"uint256"}],"name":"Transfer","type":"event"},{"anonymous":false,"inputs":[{"indexed":true,"internalType":"address","name":"owner","type":"address"},{"indexed":true,"internalType":"address","name":"spender","type":"address"},{"indexed":false,"internalType":"uint256","name":"value","type":"uint256"}],"name":"Approval","type":"event"}],"bytecode":"0x60806040525b5b61000b565b6115818061001a6000396000f3fe60806040523480156100115760006000fd5b50600436106100d45760003560e01c8063983b2d561161008d578063a9059cbb11610067578063a9059cbb146103c3578063aa271e1a1461042a578063c4d66de814610487578063dd62ed3e146104cc576100d4565b8063983b2d561461030d5780639865027514610352578063a457c2d71461035c576100d4565b8063095ea7b3146100da57806318160ddd1461014157806323b872dd1461015f57806339509351146101e657806340c10f191461024d57806370a08231146102b4576100d4565b60006000fd5b610127600480360360408110156100f15760006000fd5b81019080803573ffffffffffffffffffffffffffffffffffffffff16906020019092919080359060200190929190505050610545565b604051808215151515815260200191505060405180910390f35b610149610574565b6040518082815260200191505060405180910390f35b6101cc600480360360608110156101765760006000fd5b81019080803573ffffffffffffffffffffffffffffffffffffffff169060200190929190803573ffffffffffffffffffffffffffffffffffffffff16906020019092919080359060200190929190505050610586565b604051808215151515815260200191505060405180910390f35b610233600480360360408110156101fd5760006000fd5b81019080803573ffffffffffffffffffffffffffffffffffffffff1690602001909291908035906020019092919050505061066b565b604051808215151515815260200191505060405180910390f35b61029a600480360360408110156102645760006000fd5b81019080803573ffffffffffffffffffffffffffffffffffffffff1690602001909291908035906020019092919050505061073e565b604051808215151515815260200191505060405180910390f35b6102f7600480360360208110156102cb5760006000fd5b81019080803573ffffffffffffffffffffffffffffffffffffffff1690602001909291905050506107d3565b6040518082815260200191505060405180910390f35b610350600480360360208110156103245760006000fd5b81019080803573ffffffffffffffffffffffffffffffffffffffff169060200190929190505050610827565b005b61035a6108ae565b005b6103a9600480360360408110156103735760006000fd5b81019080803573ffffffffffffffffffffffffffffffffffffffff169060200190929190803590602001909291905050506108cd565b604051808215151515815260200191505060405180910390f35b610410600480360360408110156103da5760006000fd5b81019080803573ffffffffffffffffffffffffffffffffffffffff169060200190929190803590602001909291905050506109a0565b604051808215151515815260200191505060405180910390f35b61046d600480360360208110156104415760006000fd5b81019080803573ffffffffffffffffffffffffffffffffffffffff1690602001909291905050506109cf565b604051808215151515815260200191505060405180910390f35b6104ca6004803603602081101561049e5760006000fd5b81019080803573ffffffffffffffffffffffffffffffffffffffff1690602001909291905050506109f4565b005b61052f600480360360408110156104e35760006000fd5b81019080803573ffffffffffffffffffffffffffffffffffffffff169060200190929190803573ffffffffffffffffffffffffffffffffffffffff169060200190929190505050610b11565b6040518082815260200191505060405180910390f35b6000610565610558610ba663ffffffff16565b8484610bb363ffffffff16565b6001905061056e565b92915050565b60006035600050549050610583565b90565b6000610599848484610d2463ffffffff16565b61065b846105ab610ba663ffffffff16565b61065085603460005060008a73ffffffffffffffffffffffffffffffffffffffff1673ffffffffffffffffffffffffffffffffffffffff1681526020019081526020016000206000506000610604610ba663ffffffff16565b73ffffffffffffffffffffffffffffffffffffffff1673ffffffffffffffffffffffffffffffffffffffff16815260200190815260200160002060005054610f1290919063ffffffff16565b610bb363ffffffff16565b60019050610664565b9392505050565b600061072f61067e610ba663ffffffff16565b846107248560346000506000610698610ba663ffffffff16565b73ffffffffffffffffffffffffffffffffffffffff1673ffffffffffffffffffffffffffffffffffffffff16815260200190815260200160002060005060008973ffffffffffffffffffffffffffffffffffffffff1673ffffffffffffffffffffffffffffffffffffffff16815260200190815260200160002060005054610f3b90919063ffffffff16565b610bb363ffffffff16565b60019050610738565b92915050565b600061075c610751610ba663ffffffff16565b6109cf63ffffffff16565b15156107b3576040517f08c379a00000000000000000000000000000000000000000000000000000000081526004018080602001828103825260308152602001806114ef6030913960400191505060405180910390fd5b6107c38383610f6463ffffffff16565b600190506107cc565b5b92915050565b6000603360005060008373ffffffffffffffffffffffffffffffffffffffff1673ffffffffffffffffffffffffffffffffffffffff168152602001908152602001600020600050549050610822565b919050565b610843610838610ba663ffffffff16565b6109cf63ffffffff16565b151561089a576040517f08c379a00000000000000000000000000000000000000000000000000000000081526004018080602001828103825260308152602001806114ef6030913960400191505060405180910390fd5b6108a9816110d263ffffffff16565b5b5b50565b6108ca6108bf610ba663ffffffff16565b61113063ffffffff16565b5b565b60006109916108e0610ba663ffffffff16565b8461098685603460005060006108fa610ba663ffffffff16565b73ffffffffffffffffffffffffffffffffffffffff1673ffffffffffffffffffffffffffffffffffffffff16815260200190815260200160002060005060008973ffffffffffffffffffffffffffffffffffffffff1673ffffffffffffffffffffffffffffffffffffffff16815260200190815260200160002060005054610f1290919063ffffffff16565b610bb363ffffffff16565b6001905061099a565b92915050565b60006109c06109b3610ba663ffffffff16565b8484610d2463ffffffff16565b600190506109c9565b92915050565b60006109e882606860005061118e90919063ffffffff16565b90506109ef565b919050565b600060019054906101000a900460ff1680610a195750610a1861122c63ffffffff16565b5b80610a315750600060009054906101000a900460ff16155b1515610a88576040517f08c379a000000000000000000000000000000000000000000000000000000000815260040180806020018281038252602e81526020018061151f602e913960400191505060405180910390fd5b6000600060019054906101000a900460ff161590508015610ada576001600060016101000a81548160ff0219169083151502179055506001600060006101000a81548160ff0219169083151502179055505b610ae98261124463ffffffff16565b5b8015610b0c576000600060016101000a81548160ff0219169083151502179055505b505b50565b6000603460005060008473ffffffffffffffffffffffffffffffffffffffff1673ffffffffffffffffffffffffffffffffffffffff16815260200190815260200160002060005060008373ffffffffffffffffffffffffffffffffffffffff1673ffffffffffffffffffffffffffffffffffffffff168152602001908152602001600020600050549050610ba0565b92915050565b6000339050610bb0565b90565b600073ffffffffffffffffffffffffffffffffffffffff168273ffffffffffffffffffffffffffffffffffffffff1614151515610bf05760006000fd5b600073ffffffffffffffffffffffffffffffffffffffff168373ffffffffffffffffffffffffffffffffffffffff1614151515610c2d5760006000fd5b80603460005060008573ffffffffffffffffffffffffffffffffffffffff1673ffffffffffffffffffffffffffffffffffffffff16815260200190815260200160002060005060008473ffffffffffffffffffffffffffffffffffffffff1673ffffffffffffffffffffffffffffffffffffffff1681526020019081526020016000206000508190909055508173ffffffffffffffffffffffffffffffffffffffff168373ffffffffffffffffffffffffffffffffffffffff167f8c5be1e5ebec7d5bd14f71427d1e84f3dd0314c0f7b2291e5b200ac8c7c3b925836040518082815260200191505060405180910390a35b505050565b600073ffffffffffffffffffffffffffffffffffffffff168273ffffffffffffffffffffffffffffffffffffffff1614151515610d615760006000fd5b610db981603360005060008673ffffffffffffffffffffffffffffffffffffffff1673ffffffffffffffffffffffffffffffffffffffff16815260200190815260200160002060005054610f1290919063ffffffff16565b603360005060008573ffffffffffffffffffffffffffffffffffffffff1673ffffffffffffffffffffffffffffffffffffffff168152602001908152602001600020600050819090905550610e5c81603360005060008573ffffffffffffffffffffffffffffffffffffffff1673ffffffffffffffffffffffffffffffffffffffff16815260200190815260200160002060005054610f3b90919063ffffffff16565b603360005060008473ffffffffffffffffffffffffffffffffffffffff1673ffffffffffffffffffffffffffffffffffffffff1681526020019081526020016000206000508190909055508173ffffffffffffffffffffffffffffffffffffffff168373ffffffffffffffffffffffffffffffffffffffff167fddf252ad1be2c89b69c2b068fc378daa952ba7f163c4a11628f55a4df523b3ef836040518082815260200191505060405180910390a35b505050565b6000828211151515610f245760006000fd5b6000828403905080915050610f3556505b92915050565b600060008284019050838110151515610f545760006000fd5b80915050610f5e56505b92915050565b600073ffffffffffffffffffffffffffffffffffffffff168273ffffffffffffffffffffffffffffffffffffffff1614151515610fa15760006000fd5b610fb981603560005054610f3b90919063ffffffff16565b603560005081909090555061101c81603360005060008573ffffffffffffffffffffffffffffffffffffffff1673ffffffffffffffffffffffffffffffffffffffff16815260200190815260200160002060005054610f3b90919063ffffffff16565b603360005060008473ffffffffffffffffffffffffffffffffffffffff1673ffffffffffffffffffffffffffffffffffffffff1681526020019081526020016000206000508190909055508173ffffffffffffffffffffffffffffffffffffffff16600073ffffffffffffffffffffffffffffffffffffffff167fddf252ad1be2c89b69c2b068fc378daa952ba7f163c4a11628f55a4df523b3ef836040518082815260200191505060405180910390a35b5050565b6110e981606860005061137790919063ffffffff16565b8073ffffffffffffffffffffffffffffffffffffffff167f6ae172837ea30b801fbfcdd4108aa1d5bf8ff775444fd70256b44e6bf3dfc3f660405160405180910390a25b50565b61114781606860005061143390919063ffffffff16565b8073ffffffffffffffffffffffffffffffffffffffff167fe94479a9f7e1952cc78f2d6baab678adc1b772d936c6583def489e524cb6669260405160405180910390a25b50565b6000600073ffffffffffffffffffffffffffffffffffffffff168273ffffffffffffffffffffffffffffffffffffffff16141515156111cd5760006000fd5b8260000160005060008373ffffffffffffffffffffffffffffffffffffffff1673ffffffffffffffffffffffffffffffffffffffff16815260200190815260200160002060009054906101000a900460ff169050611226565b92915050565b60006000303b90506000811491505061124156505b90565b600060019054906101000a900460ff1680611269575061126861122c63ffffffff16565b5b806112815750600060009054906101000a900460ff16155b15156112d8576040517f08c379a000000000000000000000000000000000000000000000000000000000815260040180806020018281038252602e81526020018061151f602e913960400191505060405180910390fd5b6000600060019054906101000a900460ff16159050801561132a576001600060016101000a81548160ff0219169083151502179055506001600060006101000a81548160ff0219169083151502179055505b611339826109cf63ffffffff16565b151561134f5761134e826110d263ffffffff16565b5b5b8015611372576000600060016101000a81548160ff0219169083151502179055505b505b50565b600073ffffffffffffffffffffffffffffffffffffffff168173ffffffffffffffffffffffffffffffffffffffff16141515156113b45760006000fd5b6113c4828261118e63ffffffff16565b1515156113d15760006000fd5b60018260000160005060008373ffffffffffffffffffffffffffffffffffffffff1673ffffffffffffffffffffffffffffffffffffffff16815260200190815260200160002060006101000a81548160ff0219169083151502179055505b5050565b600073ffffffffffffffffffffffffffffffffffffffff168173ffffffffffffffffffffffffffffffffffffffff16141515156114705760006000fd5b611480828261118e63ffffffff16565b151561148c5760006000fd5b60008260000160005060008373ffffffffffffffffffffffffffffffffffffffff1673ffffffffffffffffffffffffffffffffffffffff16815260200190815260200160002060006101000a81548160ff0219169083151502179055505b505056fe4d696e746572526f6c653a2063616c6c657220646f6573206e6f74206861766520746865204d696e74657220726f6c65436f6e747261637420696e7374616e63652068617320616c7265616479206265656e20696e697469616c697a6564a265627a7a723158204306918c56438d3954b889cbd5552b266e53286646fb1edd8c6eb153bfb74b2764736f6c634300050b0032","compiler":{"name":"solc","version":"0.5.11+commit.c082d0b4.Emscripten.clang","optimizer":{},"evmVersion":"constantinople"}}