{"fileName":"FBCDP.sol","contractName":"FBCDP","source":"pragma solidity ^0.5.0;\nimport \"@openzeppelin/upgrades/contracts/Initializable.sol\";\nimport \"@openzeppelin/contracts-ethereum-package/contracts/math/SafeMath.sol\";\nimport \"../helpers/WrappedEtherInterface.sol\";\nimport \"../helpers/ERC20MintableInterface.sol\";\nimport \"../Market/MarketInterface.sol\";\n\ncontract FBCDP is Initializable {\n  using SafeMath for uint;\n  uint constant expScale = 10**18;\n  uint constant collateralRatioBuffer = 25 * 10 ** 16;\n\n  address creator;\n  address payable owner;\n  WrappedEtherInterface weth;\n  ERC20MintableInterface borrowedToken;\n  MarketInterface fbMoneyMarket;\n\n  event Log(uint x, string m);\n  event Log(int x, string m);\n  \n  function initialize(\n        address payable _owner, address tokenAddress, address wethAddress, address marketAddress\n    ) public initializer {\n        creator = msg.sender;\n        owner = _owner;\n        borrowedToken = ERC20MintableInterface(tokenAddress);\n        fbMoneyMarket = MarketInterface(marketAddress);\n        weth = WrappedEtherInterface(wethAddress);\n        weth.approve(marketAddress, uint(-1));\n        borrowedToken.approve(address(fbMoneyMarket), uint(-1));\n   }\n\n   function fund() payable external {\n    require(creator == msg.sender);\n\n    weth.deposit.value(msg.value)();\n\n    bool supplyStatus = fbMoneyMarket.supply(address(weth), msg.value);\n    \n    require(supplyStatus == true, \"supply failed\");\n  }\n\n  function borrow(uint256 tokenAmount) public {\n    //minting tokens\n    bool borrowStatus = fbMoneyMarket.borrow(address(this), address(borrowedToken), address(weth), tokenAmount);\n    \n    require(borrowStatus == true, \"borrow failed\");\n\n    uint borrowedTokenBalance = borrowedToken.balanceOf(address(this));\n    borrowedToken.transfer(owner, borrowedTokenBalance);\n  }\n\n  /* @dev the factory contract will transfer tokens necessary to repay */\n  function repay() external {\n    require(creator == msg.sender);\n\n    bool repayStatus = fbMoneyMarket.repayBorrow(address(borrowedToken), uint(-1));\n    require(repayStatus == true, \"repay failed\");\n  }\n\n  function withdraw(uint256 amount) external {\n    uint amountToWithdraw;\n\n    uint totalBorrow = fbMoneyMarket.getBorrowBalance(address(this), address(borrowedToken));\n    uint totalEth = fbMoneyMarket.getSupplyBalance(address(this), address(weth));\n\n    if (totalBorrow == 0) {\n      amountToWithdraw = uint(-1);\n    } else {\n      require(amount<=(totalEth*fbMoneyMarket.ethPrice()), \"eth is locked\");\n      amountToWithdraw = amount;\n    }\n\n    bool withdrawStatus = fbMoneyMarket.withdraw(address(weth), amountToWithdraw);\n\n    require(withdrawStatus == true, \"withdrawal failed\");\n\n    /* ---------- return ether to user ---------*/\n    uint wethBalance = weth.balanceOf(address(this));\n    weth.withdraw(wethBalance);\n    owner.transfer(address(this).balance);\n  }\n\n  /* @dev it is necessary to accept eth to unwrap weth */\n  function () external payable {}\n\n\n}","sourcePath":"contracts/cdp/FBCDP.sol","abi":[{"constant":false,"inputs":[{"internalType":"uint256","name":"amount","type":"uint256"}],"name":"withdraw","outputs":[],"payable":false,"stateMutability":"nonpayable","type":"function"},{"constant":false,"inputs":[],"name":"repay","outputs":[],"payable":false,"stateMutability":"nonpayable","type":"function"},{"constant":false,"inputs":[],"name":"fund","outputs":[],"payable":true,"stateMutability":"payable","type":"function"},{"constant":false,"inputs":[{"internalType":"uint256","name":"tokenAmount","type":"uint256"}],"name":"borrow","outputs":[],"payable":false,"stateMutability":"nonpayable","type":"function"},{"constant":false,"inputs":[{"internalType":"address payable","name":"_owner","type":"address"},{"internalType":"address","name":"tokenAddress","type":"address"},{"internalType":"address","name":"wethAddress","type":"address"},{"internalType":"address","name":"marketAddress","type":"address"}],"name":"initialize","outputs":[],"payable":false,"stateMutability":"nonpayable","type":"function"},{"payable":true,"stateMutability":"payable","type":"fallback"},{"anonymous":false,"inputs":[{"indexed":false,"internalType":"uint256","name":"x","type":"uint256"},{"indexed":false,"internalType":"string","name":"m","type":"string"}],"name":"Log","type":"event"},{"anonymous":false,"inputs":[{"indexed":false,"internalType":"int256","name":"x","type":"int256"},{"indexed":false,"internalType":"string","name":"m","type":"string"}],"name":"Log","type":"event"}],"bytecode":"0x60806040523480156100115760006000fd5b50610017565b61167b806100266000396000f3fe60806040526004361061004e5760003560e01c80632e1a7d4d14610052578063402d88831461008f578063b60d4288146100a7578063c5ebeaec146100b1578063f8c8765e146100ee5761004e565b5b5b005b34801561005f5760006000fd5b5061008d600480360360208110156100775760006000fd5b81019080803590602001909291905050506101a1565b005b34801561009c5760006000fd5b506100a56108f2565b005b6100af610aff565b005b3480156100be5760006000fd5b506100ec600480360360208110156100d65760006000fd5b8101908080359060200190929190505050610d71565b005b3480156100fb5760006000fd5b5061019f600480360360808110156101135760006000fd5b81019080803573ffffffffffffffffffffffffffffffffffffffff169060200190929190803573ffffffffffffffffffffffffffffffffffffffff169060200190929190803573ffffffffffffffffffffffffffffffffffffffff169060200190929190803573ffffffffffffffffffffffffffffffffffffffff169060200190929190505050611178565b005b60006000603760009054906101000a900473ffffffffffffffffffffffffffffffffffffffff1673ffffffffffffffffffffffffffffffffffffffff1663118e31b730603660009054906101000a900473ffffffffffffffffffffffffffffffffffffffff166040518363ffffffff1660e01b8152600401808373ffffffffffffffffffffffffffffffffffffffff1673ffffffffffffffffffffffffffffffffffffffff1681526020018273ffffffffffffffffffffffffffffffffffffffff1673ffffffffffffffffffffffffffffffffffffffff1681526020019250505060206040518083038186803b15801561029b5760006000fd5b505afa1580156102b0573d600060003e3d6000fd5b505050506040513d60208110156102c75760006000fd5b810190808051906020019092919050505090506000603760009054906101000a900473ffffffffffffffffffffffffffffffffffffffff1673ffffffffffffffffffffffffffffffffffffffff1663ba37773130603560009054906101000a900473ffffffffffffffffffffffffffffffffffffffff166040518363ffffffff1660e01b8152600401808373ffffffffffffffffffffffffffffffffffffffff1673ffffffffffffffffffffffffffffffffffffffff1681526020018273ffffffffffffffffffffffffffffffffffffffff1673ffffffffffffffffffffffffffffffffffffffff1681526020019250505060206040518083038186803b1580156103d25760006000fd5b505afa1580156103e7573d600060003e3d6000fd5b505050506040513d60208110156103fe5760006000fd5b810190808051906020019092919050505090506000821415610444577fffffffffffffffffffffffffffffffffffffffffffffffffffffffffffffffff9250825061056c565b603760009054906101000a900473ffffffffffffffffffffffffffffffffffffffff1673ffffffffffffffffffffffffffffffffffffffff1663ff186b2e6040518163ffffffff1660e01b815260040160206040518083038186803b1580156104ad5760006000fd5b505afa1580156104c2573d600060003e3d6000fd5b505050506040513d60208110156104d95760006000fd5b810190808051906020019092919050505081028411151515610566576040517f08c379a000000000000000000000000000000000000000000000000000000000815260040180806020018281038252600d8152602001807f657468206973206c6f636b65640000000000000000000000000000000000000081526020015060200191505060405180910390fd5b83925082505b6000603760009054906101000a900473ffffffffffffffffffffffffffffffffffffffff1673ffffffffffffffffffffffffffffffffffffffff1663f3fef3a3603560009054906101000a900473ffffffffffffffffffffffffffffffffffffffff16866040518363ffffffff1660e01b8152600401808373ffffffffffffffffffffffffffffffffffffffff1673ffffffffffffffffffffffffffffffffffffffff16815260200182815260200192505050602060405180830381600087803b15801561063a5760006000fd5b505af115801561064f573d600060003e3d6000fd5b505050506040513d60208110156106665760006000fd5b81019080805190602001909291905050509050600115158115151415156106f8576040517f08c379a00000000000000000000000000000000000000000000000000000000081526004018080602001828103825260118152602001807f7769746864726177616c206661696c656400000000000000000000000000000081526020015060200191505060405180910390fd5b6000603560009054906101000a900473ffffffffffffffffffffffffffffffffffffffff1673ffffffffffffffffffffffffffffffffffffffff166370a08231306040518263ffffffff1660e01b8152600401808273ffffffffffffffffffffffffffffffffffffffff1673ffffffffffffffffffffffffffffffffffffffff16815260200191505060206040518083038186803b15801561079a5760006000fd5b505afa1580156107af573d600060003e3d6000fd5b505050506040513d60208110156107c65760006000fd5b81019080805190602001909291905050509050603560009054906101000a900473ffffffffffffffffffffffffffffffffffffffff1673ffffffffffffffffffffffffffffffffffffffff16632e1a7d4d826040518263ffffffff1660e01b815260040180828152602001915050600060405180830381600087803b15801561084f5760006000fd5b505af1158015610864573d600060003e3d6000fd5b50505050603460009054906101000a900473ffffffffffffffffffffffffffffffffffffffff1673ffffffffffffffffffffffffffffffffffffffff166108fc3073ffffffffffffffffffffffffffffffffffffffff16319081150290604051600060405180830381858888f193505050501580156108e8573d600060003e3d6000fd5b5050505050505b50565b3373ffffffffffffffffffffffffffffffffffffffff16603360009054906101000a900473ffffffffffffffffffffffffffffffffffffffff1673ffffffffffffffffffffffffffffffffffffffff1614151561094f5760006000fd5b6000603760009054906101000a900473ffffffffffffffffffffffffffffffffffffffff1673ffffffffffffffffffffffffffffffffffffffff1663abdb5ea8603660009054906101000a900473ffffffffffffffffffffffffffffffffffffffff167fffffffffffffffffffffffffffffffffffffffffffffffffffffffffffffffff6040518363ffffffff1660e01b8152600401808373ffffffffffffffffffffffffffffffffffffffff1673ffffffffffffffffffffffffffffffffffffffff16815260200182815260200192505050602060405180830381600087803b158015610a3d5760006000fd5b505af1158015610a52573d600060003e3d6000fd5b505050506040513d6020811015610a695760006000fd5b8101908080519060200190929190505050905060011515811515141515610afb576040517f08c379a000000000000000000000000000000000000000000000000000000000815260040180806020018281038252600c8152602001807f7265706179206661696c6564000000000000000000000000000000000000000081526020015060200191505060405180910390fd5b505b565b3373ffffffffffffffffffffffffffffffffffffffff16603360009054906101000a900473ffffffffffffffffffffffffffffffffffffffff1673ffffffffffffffffffffffffffffffffffffffff16141515610b5c5760006000fd5b603560009054906101000a900473ffffffffffffffffffffffffffffffffffffffff1673ffffffffffffffffffffffffffffffffffffffff1663d0e30db0346040518263ffffffff1660e01b81526004016000604051808303818588803b158015610bc75760006000fd5b505af1158015610bdc573d600060003e3d6000fd5b50505050506000603760009054906101000a900473ffffffffffffffffffffffffffffffffffffffff1673ffffffffffffffffffffffffffffffffffffffff1663f2b9fdb8603560009054906101000a900473ffffffffffffffffffffffffffffffffffffffff16346040518363ffffffff1660e01b8152600401808373ffffffffffffffffffffffffffffffffffffffff1673ffffffffffffffffffffffffffffffffffffffff16815260200182815260200192505050602060405180830381600087803b158015610caf5760006000fd5b505af1158015610cc4573d600060003e3d6000fd5b505050506040513d6020811015610cdb5760006000fd5b8101908080519060200190929190505050905060011515811515141515610d6d576040517f08c379a000000000000000000000000000000000000000000000000000000000815260040180806020018281038252600d8152602001807f737570706c79206661696c65640000000000000000000000000000000000000081526020015060200191505060405180910390fd5b505b565b6000603760009054906101000a900473ffffffffffffffffffffffffffffffffffffffff1673ffffffffffffffffffffffffffffffffffffffff1663afef7efd30603660009054906101000a900473ffffffffffffffffffffffffffffffffffffffff16603560009054906101000a900473ffffffffffffffffffffffffffffffffffffffff16866040518563ffffffff1660e01b8152600401808573ffffffffffffffffffffffffffffffffffffffff1673ffffffffffffffffffffffffffffffffffffffff1681526020018473ffffffffffffffffffffffffffffffffffffffff1673ffffffffffffffffffffffffffffffffffffffff1681526020018373ffffffffffffffffffffffffffffffffffffffff1673ffffffffffffffffffffffffffffffffffffffff168152602001828152602001945050505050602060405180830381600087803b158015610ec95760006000fd5b505af1158015610ede573d600060003e3d6000fd5b505050506040513d6020811015610ef55760006000fd5b8101908080519060200190929190505050905060011515811515141515610f87576040517f08c379a000000000000000000000000000000000000000000000000000000000815260040180806020018281038252600d8152602001807f626f72726f77206661696c65640000000000000000000000000000000000000081526020015060200191505060405180910390fd5b6000603660009054906101000a900473ffffffffffffffffffffffffffffffffffffffff1673ffffffffffffffffffffffffffffffffffffffff166370a08231306040518263ffffffff1660e01b8152600401808273ffffffffffffffffffffffffffffffffffffffff1673ffffffffffffffffffffffffffffffffffffffff16815260200191505060206040518083038186803b1580156110295760006000fd5b505afa15801561103e573d600060003e3d6000fd5b505050506040513d60208110156110555760006000fd5b81019080805190602001909291905050509050603660009054906101000a900473ffffffffffffffffffffffffffffffffffffffff1673ffffffffffffffffffffffffffffffffffffffff1663a9059cbb603460009054906101000a900473ffffffffffffffffffffffffffffffffffffffff16836040518363ffffffff1660e01b8152600401808373ffffffffffffffffffffffffffffffffffffffff1673ffffffffffffffffffffffffffffffffffffffff16815260200182815260200192505050602060405180830381600087803b1580156111345760006000fd5b505af1158015611149573d600060003e3d6000fd5b505050506040513d60208110156111605760006000fd5b81019080805190602001909291905050505050505b50565b600060019054906101000a900460ff168061119d575061119c61160063ffffffff16565b5b806111b55750600060009054906101000a900460ff16155b151561120c576040517f08c379a000000000000000000000000000000000000000000000000000000000815260040180806020018281038252602e815260200180611619602e913960400191505060405180910390fd5b6000600060019054906101000a900460ff16159050801561125e576001600060016101000a81548160ff0219169083151502179055506001600060006101000a81548160ff0219169083151502179055505b33603360006101000a81548173ffffffffffffffffffffffffffffffffffffffff021916908373ffffffffffffffffffffffffffffffffffffffff16021790555084603460006101000a81548173ffffffffffffffffffffffffffffffffffffffff021916908373ffffffffffffffffffffffffffffffffffffffff16021790555083603660006101000a81548173ffffffffffffffffffffffffffffffffffffffff021916908373ffffffffffffffffffffffffffffffffffffffff16021790555081603760006101000a81548173ffffffffffffffffffffffffffffffffffffffff021916908373ffffffffffffffffffffffffffffffffffffffff16021790555082603560006101000a81548173ffffffffffffffffffffffffffffffffffffffff021916908373ffffffffffffffffffffffffffffffffffffffff160217905550603560009054906101000a900473ffffffffffffffffffffffffffffffffffffffff1673ffffffffffffffffffffffffffffffffffffffff1663095ea7b3837fffffffffffffffffffffffffffffffffffffffffffffffffffffffffffffffff6040518363ffffffff1660e01b8152600401808373ffffffffffffffffffffffffffffffffffffffff1673ffffffffffffffffffffffffffffffffffffffff16815260200182815260200192505050602060405180830381600087803b15801561146d5760006000fd5b505af1158015611482573d600060003e3d6000fd5b505050506040513d60208110156114995760006000fd5b810190808051906020019092919050505050603660009054906101000a900473ffffffffffffffffffffffffffffffffffffffff1673ffffffffffffffffffffffffffffffffffffffff1663095ea7b3603760009054906101000a900473ffffffffffffffffffffffffffffffffffffffff167fffffffffffffffffffffffffffffffffffffffffffffffffffffffffffffffff6040518363ffffffff1660e01b8152600401808373ffffffffffffffffffffffffffffffffffffffff1673ffffffffffffffffffffffffffffffffffffffff16815260200182815260200192505050602060405180830381600087803b1580156115975760006000fd5b505af11580156115ac573d600060003e3d6000fd5b505050506040513d60208110156115c35760006000fd5b8101908080519060200190929190505050505b80156115f8576000600060016101000a81548160ff0219169083151502179055505b505b50505050565b60006000303b90506000811491505061161556505b9056fe436f6e747261637420696e7374616e63652068617320616c7265616479206265656e20696e697469616c697a6564a265627a7a72315820edbec867f0f5a33a450b8756058c40e4fce71bd9b042bd295749251a6634650964736f6c634300050b0032","compiler":{"name":"solc","version":"0.5.11+commit.c082d0b4.Emscripten.clang","optimizer":{},"evmVersion":"constantinople"}}