{
  "fileName": "FBERC20Token.sol",
  "contractName": "FBERC20Token",
  "source": "pragma solidity ^0.5.0;\n\nimport \"@openzeppelin/contracts-ethereum-package/contracts/token/ERC20/StandaloneERC20.sol\";\nimport \"@openzeppelin/contracts-ethereum-package/contracts/token/ERC20/ERC20Burnable.sol\";\n\n\ncontract FBERC20Token is StandaloneERC20, ERC20Burnable {\n    /* */\n\n    function initialize(\n        string memory name, string memory symbol, uint8 decimals, uint256 initialSupply, address initialHolder,\n        address[] memory minters, address[] memory pausers\n    ) public initializer  {\n        StandaloneERC20.initialize(name, symbol, decimals, initialSupply, initialHolder, minters, pausers);\n    }\n    \n    function version() public pure returns (string memory) {\n      return \"v1\";\n    }\n\n    function mint(address to, uint256 value) public returns(bool) {\n        super.mint(to, value);\n        return true;\n    }\n\n    function burn(uint256 amount) public onlyMinter {\n        super.burn(amount);\n    }\n}",
  "sourcePath": "contracts/ERC20Token/FBERC20Token.sol",
  "abi": [
    {
      "constant": true,
      "inputs": [],
      "name": "name",
      "outputs": [
        {
          "internalType": "string",
          "name": "",
          "type": "string"
        }
      ],
      "payable": false,
      "stateMutability": "view",
      "type": "function"
    },
    {
      "constant": false,
      "inputs": [
        {
          "internalType": "address",
          "name": "spender",
          "type": "address"
        },
        {
          "internalType": "uint256",
          "name": "value",
          "type": "uint256"
        }
      ],
      "name": "approve",
      "outputs": [
        {
          "internalType": "bool",
          "name": "",
          "type": "bool"
        }
      ],
      "payable": false,
      "stateMutability": "nonpayable",
      "type": "function"
    },
    {
      "constant": false,
      "inputs": [
        {
          "internalType": "string",
          "name": "name",
          "type": "string"
        },
        {
          "internalType": "string",
          "name": "symbol",
          "type": "string"
        },
        {
          "internalType": "uint8",
          "name": "decimals",
          "type": "uint8"
        }
      ],
      "name": "initialize",
      "outputs": [],
      "payable": false,
      "stateMutability": "nonpayable",
      "type": "function"
    },
    {
      "constant": true,
      "inputs": [],
      "name": "totalSupply",
      "outputs": [
        {
          "internalType": "uint256",
          "name": "",
          "type": "uint256"
        }
      ],
      "payable": false,
      "stateMutability": "view",
      "type": "function"
    },
    {
      "constant": false,
      "inputs": [
        {
          "internalType": "address",
          "name": "from",
          "type": "address"
        },
        {
          "internalType": "address",
          "name": "to",
          "type": "address"
        },
        {
          "internalType": "uint256",
          "name": "value",
          "type": "uint256"
        }
      ],
      "name": "transferFrom",
      "outputs": [
        {
          "internalType": "bool",
          "name": "",
          "type": "bool"
        }
      ],
      "payable": false,
      "stateMutability": "nonpayable",
      "type": "function"
    },
    {
      "constant": false,
      "inputs": [
        {
          "internalType": "string",
          "name": "name",
          "type": "string"
        },
        {
          "internalType": "string",
          "name": "symbol",
          "type": "string"
        },
        {
          "internalType": "uint8",
          "name": "decimals",
          "type": "uint8"
        },
        {
          "internalType": "address[]",
          "name": "minters",
          "type": "address[]"
        },
        {
          "internalType": "address[]",
          "name": "pausers",
          "type": "address[]"
        }
      ],
      "name": "initialize",
      "outputs": [],
      "payable": false,
      "stateMutability": "nonpayable",
      "type": "function"
    },
    {
      "constant": true,
      "inputs": [],
      "name": "decimals",
      "outputs": [
        {
          "internalType": "uint8",
          "name": "",
          "type": "uint8"
        }
      ],
      "payable": false,
      "stateMutability": "view",
      "type": "function"
    },
    {
      "constant": false,
      "inputs": [
        {
          "internalType": "address",
          "name": "spender",
          "type": "address"
        },
        {
          "internalType": "uint256",
          "name": "addedValue",
          "type": "uint256"
        }
      ],
      "name": "increaseAllowance",
      "outputs": [
        {
          "internalType": "bool",
          "name": "success",
          "type": "bool"
        }
      ],
      "payable": false,
      "stateMutability": "nonpayable",
      "type": "function"
    },
    {
      "constant": false,
      "inputs": [],
      "name": "unpause",
      "outputs": [],
      "payable": false,
      "stateMutability": "nonpayable",
      "type": "function"
    },
    {
      "constant": false,
      "inputs": [
        {
          "internalType": "address",
          "name": "to",
          "type": "address"
        },
        {
          "internalType": "uint256",
          "name": "value",
          "type": "uint256"
        }
      ],
      "name": "mint",
      "outputs": [
        {
          "internalType": "bool",
          "name": "",
          "type": "bool"
        }
      ],
      "payable": false,
      "stateMutability": "nonpayable",
      "type": "function"
    },
    {
      "constant": false,
      "inputs": [
        {
          "internalType": "uint256",
          "name": "amount",
          "type": "uint256"
        }
      ],
      "name": "burn",
      "outputs": [],
      "payable": false,
      "stateMutability": "nonpayable",
      "type": "function"
    },
    {
      "constant": true,
      "inputs": [
        {
          "internalType": "address",
          "name": "account",
          "type": "address"
        }
      ],
      "name": "isPauser",
      "outputs": [
        {
          "internalType": "bool",
          "name": "",
          "type": "bool"
        }
      ],
      "payable": false,
      "stateMutability": "view",
      "type": "function"
    },
    {
      "constant": false,
      "inputs": [
        {
          "internalType": "string",
          "name": "name",
          "type": "string"
        },
        {
          "internalType": "string",
          "name": "symbol",
          "type": "string"
        },
        {
          "internalType": "uint8",
          "name": "decimals",
          "type": "uint8"
        },
        {
          "internalType": "uint256",
          "name": "initialSupply",
          "type": "uint256"
        },
        {
          "internalType": "address",
          "name": "initialHolder",
          "type": "address"
        },
        {
          "internalType": "address[]",
          "name": "minters",
          "type": "address[]"
        },
        {
          "internalType": "address[]",
          "name": "pausers",
          "type": "address[]"
        }
      ],
      "name": "initialize",
      "outputs": [],
      "payable": false,
      "stateMutability": "nonpayable",
      "type": "function"
    },
    {
      "constant": true,
      "inputs": [],
      "name": "version",
      "outputs": [
        {
          "internalType": "string",
          "name": "",
          "type": "string"
        }
      ],
      "payable": false,
      "stateMutability": "pure",
      "type": "function"
    },
    {
      "constant": true,
      "inputs": [],
      "name": "paused",
      "outputs": [
        {
          "internalType": "bool",
          "name": "",
          "type": "bool"
        }
      ],
      "payable": false,
      "stateMutability": "view",
      "type": "function"
    },
    {
      "constant": false,
      "inputs": [],
      "name": "renouncePauser",
      "outputs": [],
      "payable": false,
      "stateMutability": "nonpayable",
      "type": "function"
    },
    {
      "constant": true,
      "inputs": [
        {
          "internalType": "address",
          "name": "owner",
          "type": "address"
        }
      ],
      "name": "balanceOf",
      "outputs": [
        {
          "internalType": "uint256",
          "name": "",
          "type": "uint256"
        }
      ],
      "payable": false,
      "stateMutability": "view",
      "type": "function"
    },
    {
      "constant": false,
      "inputs": [
        {
          "internalType": "address",
          "name": "from",
          "type": "address"
        },
        {
          "internalType": "uint256",
          "name": "value",
          "type": "uint256"
        }
      ],
      "name": "burnFrom",
      "outputs": [],
      "payable": false,
      "stateMutability": "nonpayable",
      "type": "function"
    },
    {
      "constant": false,
      "inputs": [
        {
          "internalType": "address",
          "name": "account",
          "type": "address"
        }
      ],
      "name": "addPauser",
      "outputs": [],
      "payable": false,
      "stateMutability": "nonpayable",
      "type": "function"
    },
    {
      "constant": false,
      "inputs": [],
      "name": "pause",
      "outputs": [],
      "payable": false,
      "stateMutability": "nonpayable",
      "type": "function"
    },
    {
      "constant": true,
      "inputs": [],
      "name": "symbol",
      "outputs": [
        {
          "internalType": "string",
          "name": "",
          "type": "string"
        }
      ],
      "payable": false,
      "stateMutability": "view",
      "type": "function"
    },
    {
      "constant": false,
      "inputs": [
        {
          "internalType": "address",
          "name": "account",
          "type": "address"
        }
      ],
      "name": "addMinter",
      "outputs": [],
      "payable": false,
      "stateMutability": "nonpayable",
      "type": "function"
    },
    {
      "constant": false,
      "inputs": [],
      "name": "renounceMinter",
      "outputs": [],
      "payable": false,
      "stateMutability": "nonpayable",
      "type": "function"
    },
    {
      "constant": false,
      "inputs": [
        {
          "internalType": "address",
          "name": "spender",
          "type": "address"
        },
        {
          "internalType": "uint256",
          "name": "subtractedValue",
          "type": "uint256"
        }
      ],
      "name": "decreaseAllowance",
      "outputs": [
        {
          "internalType": "bool",
          "name": "success",
          "type": "bool"
        }
      ],
      "payable": false,
      "stateMutability": "nonpayable",
      "type": "function"
    },
    {
      "constant": false,
      "inputs": [
        {
          "internalType": "address",
          "name": "to",
          "type": "address"
        },
        {
          "internalType": "uint256",
          "name": "value",
          "type": "uint256"
        }
      ],
      "name": "transfer",
      "outputs": [
        {
          "internalType": "bool",
          "name": "",
          "type": "bool"
        }
      ],
      "payable": false,
      "stateMutability": "nonpayable",
      "type": "function"
    },
    {
      "constant": true,
      "inputs": [
        {
          "internalType": "address",
          "name": "account",
          "type": "address"
        }
      ],
      "name": "isMinter",
      "outputs": [
        {
          "internalType": "bool",
          "name": "",
          "type": "bool"
        }
      ],
      "payable": false,
      "stateMutability": "view",
      "type": "function"
    },
    {
      "constant": false,
      "inputs": [
        {
          "internalType": "address",
          "name": "sender",
          "type": "address"
        }
      ],
      "name": "initialize",
      "outputs": [],
      "payable": false,
      "stateMutability": "nonpayable",
      "type": "function"
    },
    {
      "constant": true,
      "inputs": [
        {
          "internalType": "address",
          "name": "owner",
          "type": "address"
        },
        {
          "internalType": "address",
          "name": "spender",
          "type": "address"
        }
      ],
      "name": "allowance",
      "outputs": [
        {
          "internalType": "uint256",
          "name": "",
          "type": "uint256"
        }
      ],
      "payable": false,
      "stateMutability": "view",
      "type": "function"
    },
    {
      "anonymous": false,
      "inputs": [
        {
          "indexed": false,
          "internalType": "address",
          "name": "account",
          "type": "address"
        }
      ],
      "name": "Paused",
      "type": "event"
    },
    {
      "anonymous": false,
      "inputs": [
        {
          "indexed": false,
          "internalType": "address",
          "name": "account",
          "type": "address"
        }
      ],
      "name": "Unpaused",
      "type": "event"
    },
    {
      "anonymous": false,
      "inputs": [
        {
          "indexed": true,
          "internalType": "address",
          "name": "account",
          "type": "address"
        }
      ],
      "name": "PauserAdded",
      "type": "event"
    },
    {
      "anonymous": false,
      "inputs": [
        {
          "indexed": true,
          "internalType": "address",
          "name": "account",
          "type": "address"
        }
      ],
      "name": "PauserRemoved",
      "type": "event"
    },
    {
      "anonymous": false,
      "inputs": [
        {
          "indexed": true,
          "internalType": "address",
          "name": "account",
          "type": "address"
        }
      ],
      "name": "MinterAdded",
      "type": "event"
    },
    {
      "anonymous": false,
      "inputs": [
        {
          "indexed": true,
          "internalType": "address",
          "name": "account",
          "type": "address"
        }
      ],
      "name": "MinterRemoved",
      "type": "event"
    },
    {
      "anonymous": false,
      "inputs": [
        {
          "indexed": true,
          "internalType": "address",
          "name": "from",
          "type": "address"
        },
        {
          "indexed": true,
          "internalType": "address",
          "name": "to",
          "type": "address"
        },
        {
          "indexed": false,
          "internalType": "uint256",
          "name": "value",
          "type": "uint256"
        }
      ],
      "name": "Transfer",
      "type": "event"
    },
    {
      "anonymous": false,
      "inputs": [
        {
          "indexed": true,
          "internalType": "address",
          "name": "owner",
          "type": "address"
        },
        {
          "indexed": true,
          "internalType": "address",
          "name": "spender",
          "type": "address"
        },
        {
          "indexed": false,
          "internalType": "uint256",
          "name": "value",
          "type": "uint256"
        }
      ],
      "name": "Approval",
      "type": "event"
    }
  ],
  "bytecode": "0x60806040525b5b61000b565b61352e8061001a6000396000f3fe60806040523480156100115760006000fd5b50600436106101c95760003560e01c80635c975abb116100fa578063983b2d5611610098578063a9059cbb11610072578063a9059cbb14610ea8578063aa271e1a14610f0f578063c4d66de814610f6c578063dd62ed3e14610fb1576101c9565b8063983b2d5614610df25780639865027514610e37578063a457c2d714610e41576101c9565b806379cc6790116100d457806379cc679014610cd057806382dc1ec414610d1f5780638456cb5914610d6457806395d89b4114610d6e576101c9565b80635c975abb14610c4b5780636ef8d66d14610c6d57806370a0823114610c77576101c9565b8063395093511161016757806342966c681161014157806342966c681461086d57806346fbf68e1461089c57806348be01c6146108f957806354fd4d5014610bc7576101c9565b806339509351146107955780633f4ba83a146107fc57806340c10f1914610806576101c9565b806318160ddd116101a357806318160ddd1461042857806323b872dd1461044657806331392b4a146104cd578063313ce56714610771576101c9565b806306fdde03146101cf578063095ea7b3146102535780631624f6c6146102ba576101c9565b60006000fd5b6101d761102a565b6040518080602001828103825283818151815260200191508051906020019080838360005b838110156102185780820151818401525b6020810190506101fc565b50505050905090810190601f1680156102455780820380516001836020036101000a031916815260200191505b509250505060405180910390f35b6102a06004803603604081101561026a5760006000fd5b81019080803573ffffffffffffffffffffffffffffffffffffffff169060200190929190803590602001909291905050506110d4565b604051808215151515815260200191505060405180910390f35b610426600480360360608110156102d15760006000fd5b81019080803590602001906401000000008111156102ef5760006000fd5b8201836020820111156103025760006000fd5b803590602001918460018302840111640100000000831117156103255760006000fd5b91908080601f016020809104026020016040519081016040528093929190818152602001838380828437600081840152601f19601f820116905080830192505050505050509090919290909192908035906020019064010000000081111561038d5760006000fd5b8201836020820111156103a05760006000fd5b803590602001918460018302840111640100000000831117156103c35760006000fd5b91908080601f016020809104026020016040519081016040528093929190818152602001838380828437600081840152601f19601f82011690508083019250505050505050909091929090919290803560ff169060200190929190505050611112565b005b610430611271565b6040518082815260200191505060405180910390f35b6104b36004803603606081101561045d5760006000fd5b81019080803573ffffffffffffffffffffffffffffffffffffffff169060200190929190803573ffffffffffffffffffffffffffffffffffffffff16906020019092919080359060200190929190505050611283565b604051808215151515815260200191505060405180910390f35b61076f600480360360a08110156104e45760006000fd5b81019080803590602001906401000000008111156105025760006000fd5b8201836020820111156105155760006000fd5b803590602001918460018302840111640100000000831117156105385760006000fd5b91908080601f016020809104026020016040519081016040528093929190818152602001838380828437600081840152601f19601f82011690508083019250505050505050909091929090919290803590602001906401000000008111156105a05760006000fd5b8201836020820111156105b35760006000fd5b803590602001918460018302840111640100000000831117156105d65760006000fd5b91908080601f016020809104026020016040519081016040528093929190818152602001838380828437600081840152601f19601f82011690508083019250505050505050909091929090919290803560ff1690602001909291908035906020019064010000000081111561064b5760006000fd5b82018360208201111561065e5760006000fd5b803590602001918460208302840111640100000000831117156106815760006000fd5b919080806020026020016040519081016040528093929190818152602001838360200280828437600081840152601f19601f82011690508083019250505050505050909091929090919290803590602001906401000000008111156106e65760006000fd5b8201836020820111156106f95760006000fd5b8035906020019184602083028401116401000000008311171561071c5760006000fd5b919080806020026020016040519081016040528093929190818152602001838360200280828437600081840152601f19601f820116905080830192505050505050509090919290909192905050506112c3565b005b6107796114a8565b604051808260ff1660ff16815260200191505060405180910390f35b6107e2600480360360408110156107ac5760006000fd5b81019080803573ffffffffffffffffffffffffffffffffffffffff169060200190929190803590602001909291905050506114c4565b604051808215151515815260200191505060405180910390f35b610804611502565b005b6108536004803603604081101561081d5760006000fd5b81019080803573ffffffffffffffffffffffffffffffffffffffff16906020019092919080359060200190929190505050611623565b604051808215151515815260200191505060405180910390f35b61089a600480360360208110156108845760006000fd5b8101908080359060200190929190505050611645565b005b6108df600480360360208110156108b35760006000fd5b81019080803573ffffffffffffffffffffffffffffffffffffffff1690602001909291905050506116cc565b604051808215151515815260200191505060405180910390f35b610bc5600480360360e08110156109105760006000fd5b810190808035906020019064010000000081111561092e5760006000fd5b8201836020820111156109415760006000fd5b803590602001918460018302840111640100000000831117156109645760006000fd5b91908080601f016020809104026020016040519081016040528093929190818152602001838380828437600081840152601f19601f82011690508083019250505050505050909091929090919290803590602001906401000000008111156109cc5760006000fd5b8201836020820111156109df5760006000fd5b80359060200191846001830284011164010000000083111715610a025760006000fd5b91908080601f016020809104026020016040519081016040528093929190818152602001838380828437600081840152601f19601f82011690508083019250505050505050909091929090919290803560ff16906020019092919080359060200190929190803573ffffffffffffffffffffffffffffffffffffffff16906020019092919080359060200190640100000000811115610aa15760006000fd5b820183602082011115610ab45760006000fd5b80359060200191846020830284011164010000000083111715610ad75760006000fd5b919080806020026020016040519081016040528093929190818152602001838360200280828437600081840152601f19601f8201169050808301925050505050505090909192909091929080359060200190640100000000811115610b3c5760006000fd5b820183602082011115610b4f5760006000fd5b80359060200191846020830284011164010000000083111715610b725760006000fd5b919080806020026020016040519081016040528093929190818152602001838360200280828437600081840152601f19601f820116905080830192505050505050509090919290909192905050506116f2565b005b610bcf61181b565b6040518080602001828103825283818151815260200191508051906020019080838360005b83811015610c105780820151818401525b602081019050610bf4565b50505050905090810190601f168015610c3d5780820380516001836020036101000a031916815260200191505b509250505060405180910390f35b610c53611860565b604051808215151515815260200191505060405180910390f35b610c7561187d565b005b610cba60048036036020811015610c8e5760006000fd5b81019080803573ffffffffffffffffffffffffffffffffffffffff16906020019092919050505061189c565b6040518082815260200191505060405180910390f35b610d1d60048036036040811015610ce75760006000fd5b81019080803573ffffffffffffffffffffffffffffffffffffffff169060200190929190803590602001909291905050506118f0565b005b610d6260048036036020811015610d365760006000fd5b81019080803573ffffffffffffffffffffffffffffffffffffffff169060200190929190505050611905565b005b610d6c61198c565b005b610d76611aae565b6040518080602001828103825283818151815260200191508051906020019080838360005b83811015610db75780820151818401525b602081019050610d9b565b50505050905090810190601f168015610de45780820380516001836020036101000a031916815260200191505b509250505060405180910390f35b610e3560048036036020811015610e095760006000fd5b81019080803573ffffffffffffffffffffffffffffffffffffffff169060200190929190505050611b58565b005b610e3f611bdf565b005b610e8e60048036036040811015610e585760006000fd5b81019080803573ffffffffffffffffffffffffffffffffffffffff16906020019092919080359060200190929190505050611bfe565b604051808215151515815260200191505060405180910390f35b610ef560048036036040811015610ebf5760006000fd5b81019080803573ffffffffffffffffffffffffffffffffffffffff16906020019092919080359060200190929190505050611c3c565b604051808215151515815260200191505060405180910390f35b610f5260048036036020811015610f265760006000fd5b81019080803573ffffffffffffffffffffffffffffffffffffffff169060200190929190505050611c7a565b604051808215151515815260200191505060405180910390f35b610faf60048036036020811015610f835760006000fd5b81019080803573ffffffffffffffffffffffffffffffffffffffff169060200190929190505050611c9f565b005b61101460048036036040811015610fc85760006000fd5b81019080803573ffffffffffffffffffffffffffffffffffffffff169060200190929190803573ffffffffffffffffffffffffffffffffffffffff169060200190929190505050611dbc565b6040518082815260200191505060405180910390f35b606060336000508054600181600116156101000203166002900480601f0160208091040260200160405190810160405280929190818152602001828054600181600116156101000203166002900480156110c55780601f1061109a576101008083540402835291602001916110c5565b820191906000526020600020905b8154815290600101906020018083116110a857829003601f168201915b505050505090506110d1565b90565b600061013560009054906101000a900460ff161515156110f45760006000fd5b6111048383611e5163ffffffff16565b905061110b565b5b92915050565b600060019054906101000a900460ff16806111375750611136611e8063ffffffff16565b5b8061114f5750600060009054906101000a900460ff16155b15156111a6576040517f08c379a000000000000000000000000000000000000000000000000000000000815260040180806020018281038252602e8152602001806134cc602e913960400191505060405180910390fd5b6000600060019054906101000a900460ff1615905080156111f8576001600060016101000a81548160ff0219169083151502179055506001600060006101000a81548160ff0219169083151502179055505b83603360005090805190602001906112119291906133bb565b50826034600050908051906020019061122b9291906133bb565b5081603560006101000a81548160ff021916908360ff1602179055505b801561126a576000600060016101000a81548160ff0219169083151502179055505b505b505050565b6000606a600050549050611280565b90565b600061013560009054906101000a900460ff161515156112a35760006000fd5b6112b4848484611e9863ffffffff16565b90506112bb565b5b9392505050565b600060019054906101000a900460ff16806112e857506112e7611e8063ffffffff16565b5b806113005750600060009054906101000a900460ff16155b1515611357576040517f08c379a000000000000000000000000000000000000000000000000000000000815260040180806020018281038252602e8152602001806134cc602e913960400191505060405180910390fd5b6000600060019054906101000a900460ff1615905080156113a9576001600060016101000a81548160ff0219169083151502179055506001600060006101000a81548160ff0219169083151502179055505b6113ba86868661111263ffffffff16565b6113c930611f7d63ffffffff16565b6113d83061209a63ffffffff16565b6113e730611c9f63ffffffff16565b6113f6306120f863ffffffff16565b6000600090505b83518110156114385761142a848281518110151561141757fe5b602002602001015161215763ffffffff16565b5b80600101905080506113fd565b506000600090505b825181101561147b5761146d838281518110151561145a57fe5b60200260200101516121b563ffffffff16565b5b8060010190508050611440565b505b801561149f576000600060016101000a81548160ff0219169083151502179055505b505b5050505050565b6000603560009054906101000a900460ff1690506114c1565b90565b600061013560009054906101000a900460ff161515156114e45760006000fd5b6114f4838361221463ffffffff16565b90506114fb565b5b92915050565b61151e6115136122e763ffffffff16565b6116cc63ffffffff16565b1515611575576040517f08c379a000000000000000000000000000000000000000000000000000000000815260040180806020018281038252603081526020018061346c6030913960400191505060405180910390fd5b61013560009054906101000a900460ff1615156115925760006000fd5b600061013560006101000a81548160ff0219169083151502179055507f5db9ee0a495bf2e6ff9c91a7834c1ba4fdd244a5e8aa4e537bd38aeae4b073aa6115dd6122e763ffffffff16565b604051808273ffffffffffffffffffffffffffffffffffffffff1673ffffffffffffffffffffffffffffffffffffffff16815260200191505060405180910390a15b5b5b565b600061163583836122f463ffffffff16565b506001905061163f565b92915050565b6116616116566122e763ffffffff16565b611c7a63ffffffff16565b15156116b8576040517f08c379a000000000000000000000000000000000000000000000000000000000815260040180806020018281038252603081526020018061349c6030913960400191505060405180910390fd5b6116c78161238963ffffffff16565b5b5b50565b60006116e6826101026000506123aa90919063ffffffff16565b90506116ed565b919050565b600060019054906101000a900460ff16806117175750611716611e8063ffffffff16565b5b8061172f5750600060009054906101000a900460ff16155b1515611786576040517f08c379a000000000000000000000000000000000000000000000000000000000815260040180806020018281038252602e8152602001806134cc602e913960400191505060405180910390fd5b6000600060019054906101000a900460ff1615905080156117d8576001600060016101000a81548160ff0219169083151502179055506001600060006101000a81548160ff0219169083151502179055505b6117ed8888888888888861244863ffffffff16565b5b8015611810576000600060016101000a81548160ff0219169083151502179055505b505b50505050505050565b60606040518060400160405280600281526020017f7631000000000000000000000000000000000000000000000000000000000000815260200150905061185d565b90565b600061013560009054906101000a900460ff16905061187a565b90565b61189961188e6122e763ffffffff16565b6120f863ffffffff16565b5b565b6000606860005060008373ffffffffffffffffffffffffffffffffffffffff1673ffffffffffffffffffffffffffffffffffffffff1681526020019081526020016000206000505490506118eb565b919050565b611900828261263f63ffffffff16565b5b5050565b6119216119166122e763ffffffff16565b6116cc63ffffffff16565b1515611978576040517f08c379a000000000000000000000000000000000000000000000000000000000815260040180806020018281038252603081526020018061346c6030913960400191505060405180910390fd5b611987816121b563ffffffff16565b5b5b50565b6119a861199d6122e763ffffffff16565b6116cc63ffffffff16565b15156119ff576040517f08c379a000000000000000000000000000000000000000000000000000000000815260040180806020018281038252603081526020018061346c6030913960400191505060405180910390fd5b61013560009054906101000a900460ff16151515611a1d5760006000fd5b600161013560006101000a81548160ff0219169083151502179055507f62e78cea01bee320cd4e420270b5ea74000d11b0c9f74754ebdbfc544b05a258611a686122e763ffffffff16565b604051808273ffffffffffffffffffffffffffffffffffffffff1673ffffffffffffffffffffffffffffffffffffffff16815260200191505060405180910390a15b5b5b565b606060346000508054600181600116156101000203166002900480601f016020809104026020016040519081016040528092919081815260200182805460018160011615610100020316600290048015611b495780601f10611b1e57610100808354040283529160200191611b49565b820191906000526020600020905b815481529060010190602001808311611b2c57829003601f168201915b50505050509050611b55565b90565b611b74611b696122e763ffffffff16565b611c7a63ffffffff16565b1515611bcb576040517f08c379a000000000000000000000000000000000000000000000000000000000815260040180806020018281038252603081526020018061349c6030913960400191505060405180910390fd5b611bda8161215763ffffffff16565b5b5b50565b611bfb611bf06122e763ffffffff16565b61209a63ffffffff16565b5b565b600061013560009054906101000a900460ff16151515611c1e5760006000fd5b611c2e838361271663ffffffff16565b9050611c35565b5b92915050565b600061013560009054906101000a900460ff16151515611c5c5760006000fd5b611c6c83836127e963ffffffff16565b9050611c73565b5b92915050565b6000611c9382609d6000506123aa90919063ffffffff16565b9050611c9a565b919050565b600060019054906101000a900460ff1680611cc45750611cc3611e8063ffffffff16565b5b80611cdc5750600060009054906101000a900460ff16155b1515611d33576040517f08c379a000000000000000000000000000000000000000000000000000000000815260040180806020018281038252602e8152602001806134cc602e913960400191505060405180910390fd5b6000600060019054906101000a900460ff161590508015611d85576001600060016101000a81548160ff0219169083151502179055506001600060006101000a81548160ff0219169083151502179055505b611d948261281863ffffffff16565b5b8015611db7576000600060016101000a81548160ff0219169083151502179055505b505b50565b6000606960005060008473ffffffffffffffffffffffffffffffffffffffff1673ffffffffffffffffffffffffffffffffffffffff16815260200190815260200160002060005060008373ffffffffffffffffffffffffffffffffffffffff1673ffffffffffffffffffffffffffffffffffffffff168152602001908152602001600020600050549050611e4b565b92915050565b6000611e71611e646122e763ffffffff16565b848461295163ffffffff16565b60019050611e7a565b92915050565b60006000303b905060008114915050611e9556505b90565b6000611eab848484612ac263ffffffff16565b611f6d84611ebd6122e763ffffffff16565b611f6285606960005060008a73ffffffffffffffffffffffffffffffffffffffff1673ffffffffffffffffffffffffffffffffffffffff1681526020019081526020016000206000506000611f166122e763ffffffff16565b73ffffffffffffffffffffffffffffffffffffffff1673ffffffffffffffffffffffffffffffffffffffff16815260200190815260200160002060005054612cb090919063ffffffff16565b61295163ffffffff16565b60019050611f76565b9392505050565b600060019054906101000a900460ff1680611fa25750611fa1611e8063ffffffff16565b5b80611fba5750600060009054906101000a900460ff16155b1515612011576040517f08c379a000000000000000000000000000000000000000000000000000000000815260040180806020018281038252602e8152602001806134cc602e913960400191505060405180910390fd5b6000600060019054906101000a900460ff161590508015612063576001600060016101000a81548160ff0219169083151502179055506001600060006101000a81548160ff0219169083151502179055505b61207282612cd963ffffffff16565b5b8015612095576000600060016101000a81548160ff0219169083151502179055505b505b50565b6120b181609d600050612e0c90919063ffffffff16565b8073ffffffffffffffffffffffffffffffffffffffff167fe94479a9f7e1952cc78f2d6baab678adc1b772d936c6583def489e524cb6669260405160405180910390a25b50565b61211081610102600050612e0c90919063ffffffff16565b8073ffffffffffffffffffffffffffffffffffffffff167fcd265ebaf09df2871cc7bd4133404a235ba12eff2041bb89d9c714a2621c7c7e60405160405180910390a25b50565b61216e81609d600050612ec790919063ffffffff16565b8073ffffffffffffffffffffffffffffffffffffffff167f6ae172837ea30b801fbfcdd4108aa1d5bf8ff775444fd70256b44e6bf3dfc3f660405160405180910390a25b50565b6121cd81610102600050612ec790919063ffffffff16565b8073ffffffffffffffffffffffffffffffffffffffff167f6719d08c1888103bea251a4ed56406bd0c3e69723c8a1686e017e7bbe159b6f860405160405180910390a25b50565b60006122d86122276122e763ffffffff16565b846122cd85606960005060006122416122e763ffffffff16565b73ffffffffffffffffffffffffffffffffffffffff1673ffffffffffffffffffffffffffffffffffffffff16815260200190815260200160002060005060008973ffffffffffffffffffffffffffffffffffffffff1673ffffffffffffffffffffffffffffffffffffffff16815260200190815260200160002060005054612f8390919063ffffffff16565b61295163ffffffff16565b600190506122e1565b92915050565b60003390506122f1565b90565b60006123126123076122e763ffffffff16565b611c7a63ffffffff16565b1515612369576040517f08c379a000000000000000000000000000000000000000000000000000000000815260040180806020018281038252603081526020018061349c6030913960400191505060405180910390fd5b6123798383612fac63ffffffff16565b60019050612382565b5b92915050565b6123a661239a6122e763ffffffff16565b8261311a63ffffffff16565b5b50565b6000600073ffffffffffffffffffffffffffffffffffffffff168273ffffffffffffffffffffffffffffffffffffffff16141515156123e95760006000fd5b8260000160005060008373ffffffffffffffffffffffffffffffffffffffff1673ffffffffffffffffffffffffffffffffffffffff16815260200190815260200160002060009054906101000a900460ff169050612442565b92915050565b600060019054906101000a900460ff168061246d575061246c611e8063ffffffff16565b5b806124855750600060009054906101000a900460ff16155b15156124dc576040517f08c379a000000000000000000000000000000000000000000000000000000000815260040180806020018281038252602e8152602001806134cc602e913960400191505060405180910390fd5b6000600060019054906101000a900460ff16159050801561252e576001600060016101000a81548160ff0219169083151502179055506001600060006101000a81548160ff0219169083151502179055505b61253f88888861111263ffffffff16565b61254f8486612fac63ffffffff16565b61255e30611f7d63ffffffff16565b61256d3061209a63ffffffff16565b61257c30611c9f63ffffffff16565b61258b306120f863ffffffff16565b6000600090505b83518110156125cd576125bf84828151811015156125ac57fe5b602002602001015161215763ffffffff16565b5b8060010190508050612592565b506000600090505b82518110156126105761260283828151811015156125ef57fe5b60200260200101516121b563ffffffff16565b5b80600101905080506125d5565b505b8015612634576000600060016101000a81548160ff0219169083151502179055505b505b50505050505050565b61264f828261311a63ffffffff16565b612711826126616122e763ffffffff16565b61270684606960005060008873ffffffffffffffffffffffffffffffffffffffff1673ffffffffffffffffffffffffffffffffffffffff16815260200190815260200160002060005060006126ba6122e763ffffffff16565b73ffffffffffffffffffffffffffffffffffffffff1673ffffffffffffffffffffffffffffffffffffffff16815260200190815260200160002060005054612cb090919063ffffffff16565b61295163ffffffff16565b5b5050565b60006127da6127296122e763ffffffff16565b846127cf85606960005060006127436122e763ffffffff16565b73ffffffffffffffffffffffffffffffffffffffff1673ffffffffffffffffffffffffffffffffffffffff16815260200190815260200160002060005060008973ffffffffffffffffffffffffffffffffffffffff1673ffffffffffffffffffffffffffffffffffffffff16815260200190815260200160002060005054612cb090919063ffffffff16565b61295163ffffffff16565b600190506127e3565b92915050565b60006128096127fc6122e763ffffffff16565b8484612ac263ffffffff16565b60019050612812565b92915050565b600060019054906101000a900460ff168061283d575061283c611e8063ffffffff16565b5b806128555750600060009054906101000a900460ff16155b15156128ac576040517f08c379a000000000000000000000000000000000000000000000000000000000815260040180806020018281038252602e8152602001806134cc602e913960400191505060405180910390fd5b6000600060019054906101000a900460ff1615905080156128fe576001600060016101000a81548160ff0219169083151502179055506001600060006101000a81548160ff0219169083151502179055505b61290d8261328863ffffffff16565b600061013560006101000a81548160ff0219169083151502179055505b801561294c576000600060016101000a81548160ff0219169083151502179055505b505b50565b600073ffffffffffffffffffffffffffffffffffffffff168273ffffffffffffffffffffffffffffffffffffffff161415151561298e5760006000fd5b600073ffffffffffffffffffffffffffffffffffffffff168373ffffffffffffffffffffffffffffffffffffffff16141515156129cb5760006000fd5b80606960005060008573ffffffffffffffffffffffffffffffffffffffff1673ffffffffffffffffffffffffffffffffffffffff16815260200190815260200160002060005060008473ffffffffffffffffffffffffffffffffffffffff1673ffffffffffffffffffffffffffffffffffffffff1681526020019081526020016000206000508190909055508173ffffffffffffffffffffffffffffffffffffffff168373ffffffffffffffffffffffffffffffffffffffff167f8c5be1e5ebec7d5bd14f71427d1e84f3dd0314c0f7b2291e5b200ac8c7c3b925836040518082815260200191505060405180910390a35b505050565b600073ffffffffffffffffffffffffffffffffffffffff168273ffffffffffffffffffffffffffffffffffffffff1614151515612aff5760006000fd5b612b5781606860005060008673ffffffffffffffffffffffffffffffffffffffff1673ffffffffffffffffffffffffffffffffffffffff16815260200190815260200160002060005054612cb090919063ffffffff16565b606860005060008573ffffffffffffffffffffffffffffffffffffffff1673ffffffffffffffffffffffffffffffffffffffff168152602001908152602001600020600050819090905550612bfa81606860005060008573ffffffffffffffffffffffffffffffffffffffff1673ffffffffffffffffffffffffffffffffffffffff16815260200190815260200160002060005054612f8390919063ffffffff16565b606860005060008473ffffffffffffffffffffffffffffffffffffffff1673ffffffffffffffffffffffffffffffffffffffff1681526020019081526020016000206000508190909055508173ffffffffffffffffffffffffffffffffffffffff168373ffffffffffffffffffffffffffffffffffffffff167fddf252ad1be2c89b69c2b068fc378daa952ba7f163c4a11628f55a4df523b3ef836040518082815260200191505060405180910390a35b505050565b6000828211151515612cc25760006000fd5b6000828403905080915050612cd356505b92915050565b600060019054906101000a900460ff1680612cfe5750612cfd611e8063ffffffff16565b5b80612d165750600060009054906101000a900460ff16155b1515612d6d576040517f08c379a000000000000000000000000000000000000000000000000000000000815260040180806020018281038252602e8152602001806134cc602e913960400191505060405180910390fd5b6000600060019054906101000a900460ff161590508015612dbf576001600060016101000a81548160ff0219169083151502179055506001600060006101000a81548160ff0219169083151502179055505b612dce82611c7a63ffffffff16565b1515612de457612de38261215763ffffffff16565b5b5b8015612e07576000600060016101000a81548160ff0219169083151502179055505b505b50565b600073ffffffffffffffffffffffffffffffffffffffff168173ffffffffffffffffffffffffffffffffffffffff1614151515612e495760006000fd5b612e5982826123aa63ffffffff16565b1515612e655760006000fd5b60008260000160005060008373ffffffffffffffffffffffffffffffffffffffff1673ffffffffffffffffffffffffffffffffffffffff16815260200190815260200160002060006101000a81548160ff0219169083151502179055505b5050565b600073ffffffffffffffffffffffffffffffffffffffff168173ffffffffffffffffffffffffffffffffffffffff1614151515612f045760006000fd5b612f1482826123aa63ffffffff16565b151515612f215760006000fd5b60018260000160005060008373ffffffffffffffffffffffffffffffffffffffff1673ffffffffffffffffffffffffffffffffffffffff16815260200190815260200160002060006101000a81548160ff0219169083151502179055505b5050565b600060008284019050838110151515612f9c5760006000fd5b80915050612fa656505b92915050565b600073ffffffffffffffffffffffffffffffffffffffff168273ffffffffffffffffffffffffffffffffffffffff1614151515612fe95760006000fd5b61300181606a60005054612f8390919063ffffffff16565b606a60005081909090555061306481606860005060008573ffffffffffffffffffffffffffffffffffffffff1673ffffffffffffffffffffffffffffffffffffffff16815260200190815260200160002060005054612f8390919063ffffffff16565b606860005060008473ffffffffffffffffffffffffffffffffffffffff1673ffffffffffffffffffffffffffffffffffffffff1681526020019081526020016000206000508190909055508173ffffffffffffffffffffffffffffffffffffffff16600073ffffffffffffffffffffffffffffffffffffffff167fddf252ad1be2c89b69c2b068fc378daa952ba7f163c4a11628f55a4df523b3ef836040518082815260200191505060405180910390a35b5050565b600073ffffffffffffffffffffffffffffffffffffffff168273ffffffffffffffffffffffffffffffffffffffff16141515156131575760006000fd5b61316f81606a60005054612cb090919063ffffffff16565b606a6000508190909055506131d281606860005060008573ffffffffffffffffffffffffffffffffffffffff1673ffffffffffffffffffffffffffffffffffffffff16815260200190815260200160002060005054612cb090919063ffffffff16565b606860005060008473ffffffffffffffffffffffffffffffffffffffff1673ffffffffffffffffffffffffffffffffffffffff168152602001908152602001600020600050819090905550600073ffffffffffffffffffffffffffffffffffffffff168273ffffffffffffffffffffffffffffffffffffffff167fddf252ad1be2c89b69c2b068fc378daa952ba7f163c4a11628f55a4df523b3ef836040518082815260200191505060405180910390a35b5050565b600060019054906101000a900460ff16806132ad57506132ac611e8063ffffffff16565b5b806132c55750600060009054906101000a900460ff16155b151561331c576040517f08c379a000000000000000000000000000000000000000000000000000000000815260040180806020018281038252602e8152602001806134cc602e913960400191505060405180910390fd5b6000600060019054906101000a900460ff16159050801561336e576001600060016101000a81548160ff0219169083151502179055506001600060006101000a81548160ff0219169083151502179055505b61337d826116cc63ffffffff16565b151561339357613392826121b563ffffffff16565b5b5b80156133b6576000600060016101000a81548160ff0219169083151502179055505b505b50565b828054600181600116156101000203166002900490600052602060002090601f016020900481019282601f106133fc57805160ff191683800117855561342f565b8280016001018555821561342f579182015b8281111561342e578251826000509090559160200191906001019061340e565b5b50905061343c9190613440565b5090565b613468919061344a565b80821115613464576000818150600090555060010161344a565b5090565b9056fe506175736572526f6c653a2063616c6c657220646f6573206e6f742068617665207468652050617573657220726f6c654d696e746572526f6c653a2063616c6c657220646f6573206e6f74206861766520746865204d696e74657220726f6c65436f6e747261637420696e7374616e63652068617320616c7265616479206265656e20696e697469616c697a6564a265627a7a7231582047c89a5d4ab2afbdb2ec4c029adae0feaee384087494fedafe1033058f9016fe64736f6c634300050b0032",
  "compiler": {
    "name": "solc",
    "version": "0.5.11+commit.c082d0b4.Emscripten.clang",
    "optimizer": {},
    "evmVersion": "constantinople"
  }
}