{
  "fileName": "Market.sol",
  "contractName": "Market",
  "source": "pragma solidity ^0.5.0;\n\n\nimport \"@openzeppelin/upgrades/contracts/Initializable.sol\";\nimport \"../helpers/ERC20MintableInterface.sol\";\n\nimport \"chainlink/v0.5/contracts/ChainlinkClient.sol\";\n\ncontract Market is Initializable, ChainlinkClient  {\n  address[] public collateralMarkets;\n\n  mapping(address => mapping(address => uint)) public supplyBalances;\n  mapping(address => mapping(address => uint)) public borrowBalances;\n\n\n  uint256 constant private oraclePayment = 1 * LINK;\n  uint256 private ethCurrentPrice;\n  mapping(address => uint) public tokenPriceOracle;\n\n  uint private collateralRatio;\n  address link;\n  address oracle;\n\n  function initialize(address _tokenAddress) public initializer  {\n\n    //set link\n    link = 0xa36085F69e2889c224210F603D836748e7dC0088;\n     \n    //set oracle\n    oracle = 0x2f90A6D021db21e1B2A077c5a37B3C7E75D15b7e;\n\n    collateralRatio = 150;\n\n    setChainlinkToken(link);\n    setChainlinkOracle(oracle);\n\n    ethCurrentPrice = 18860;\n  \n    tokenPriceOracle[_tokenAddress] = 17777;\n\n  }\n\n  function currentCollateralRatio() public view returns(uint256) {\n    return collateralRatio;\n  }\n\n  function setCollateralRatio(uint256 ratio) public {\n    collateralRatio = ratio;\n  }\n\n  function ethPrice() public view returns(uint256) {\n    return ethCurrentPrice;\n  }\n\n  function setEthPrice(uint256 price) public {\n    ethCurrentPrice = price;\n  }\n\n  function setAssetPrice(uint256 price, address asset) public {\n    tokenPriceOracle[asset] = price;\n  }\n  \n  function assetPrice(address asset) public view returns(uint256) {\n    return tokenPriceOracle[asset];\n  }\n\n  function ethCurrentPriceCount(address account, address weth) public view returns (uint256) {\n    uint eth = getSupplyBalance(account, weth)*ethCurrentPrice*100; //eth in usd\n    return eth;\n  }\n\n  function fbCurrentPriceCount(uint amount, address account, address asset) public view returns (uint256) {\n    uint fb = (getBorrowBalance(account, asset)+amount)*assetPrice(asset)*150; //facebook in usd\n    return fb;\n  }\n\n  function requestETHPrice(bytes32 _jobId) public {\n    requestCoinMarketCapPrice(oracle, _jobId, \"ETH\", \"USD\");\n  }\n  function requestCoinMarketCapPrice (address _oracle, bytes32 _jobId, string memory _coin, string memory _market) private {\n      Chainlink.Request memory req = buildChainlinkRequest(_jobId, address(this), this.fulfill.selector);\n      req.add(\"sym\", _coin);\n      req.add(\"convert\", _market);\n      string[] memory path = new string[](5);\n      path[0] = \"data\";\n      path[1] = _coin;\n      path[2] = \"quote\";\n      path[3] = _market;\n      path[4] = \"price\";\n      req.addStringArray(\"copyPath\", path);\n      req.addInt(\"times\", 100);\n      sendChainlinkRequestTo(_oracle, req, oraclePayment);\n  }\n\n  function fulfill(bytes32 _requestId, uint256 _price) public recordChainlinkFulfillment(_requestId) {\n      ethCurrentPrice = _price;\n  }\n\n  function borrow(address account, address asset, address weth, uint amount) public returns (bool) {\n\n    uint eth = ethCurrentPriceCount(account, weth);\n\n    uint fb = fbCurrentPriceCount(amount, account, asset);\n  \n    require(eth >= fb, \"not mint tokens\");\n\n    borrowBalances[msg.sender][asset] += amount;\n\n    //minting\n    ERC20MintableInterface(asset).mint(msg.sender, amount);\n\n    return true;\n  }\n\n\n  function supply(address asset, uint amount) public returns (bool) {\n    supplyBalances[msg.sender][asset] += amount;\n    ERC20MintableInterface(asset).transferFrom(msg.sender, address(this), amount);\n\n    return true;\n  }\n\n  function withdraw(address asset, uint amount) public returns (bool) {\n    ERC20MintableInterface token = ERC20MintableInterface(asset);\n    uint supplyBalance = supplyBalances[msg.sender][asset];\n\n    uint withdrawAmount;\n    if (amount == uint(-1)) {\n      withdrawAmount = supplyBalance;\n    } else {\n      withdrawAmount = min(amount, supplyBalance);\n    }\n\n    supplyBalances[msg.sender][asset] -= withdrawAmount;\n    token.transfer(msg.sender, withdrawAmount);\n\n    return true;\n  }\n\n  function repayBorrow(address asset, uint amount) public returns (bool) {\n  \n    ERC20MintableInterface token = ERC20MintableInterface(asset);\n    uint borrowBalance = borrowBalances[msg.sender][asset];\n\n    uint repayAmount;\n    if (amount == uint(-1)) {\n      repayAmount = min(token.balanceOf(msg.sender), borrowBalance);\n    } else {\n      repayAmount = amount;\n    }\n\n    borrowBalances[msg.sender][asset] -= repayAmount;\n    token.transferFrom(msg.sender, address(this), repayAmount);\n\n    token.burn(token.balanceOf(address(this)));\n\n    return true;\n  }\n  // second wave\n\n  function getSupplyBalance(address account, address asset) view public returns (uint) {\n    return supplyBalances[account][asset];\n  }\n\n  function getBorrowBalance(address account, address asset) view public returns (uint) {\n    return borrowBalances[account][asset];\n  }\n\n   function min(uint a, uint b) internal pure returns (uint) {\n    if (a < b) {\n      return a;\n    } else {\n      return b;\n    }\n  }\n\n}\n",
  "sourcePath": "contracts/Market/Market.sol",
  "abi": [
    {
      "constant": false,
      "inputs": [
        {
          "internalType": "uint256",
          "name": "price",
          "type": "uint256"
        }
      ],
      "name": "setEthPrice",
      "outputs": [],
      "payable": false,
      "stateMutability": "nonpayable",
      "type": "function"
    },
    {
      "constant": true,
      "inputs": [
        {
          "internalType": "address",
          "name": "account",
          "type": "address"
        },
        {
          "internalType": "address",
          "name": "asset",
          "type": "address"
        }
      ],
      "name": "getBorrowBalance",
      "outputs": [
        {
          "internalType": "uint256",
          "name": "",
          "type": "uint256"
        }
      ],
      "payable": false,
      "stateMutability": "view",
      "type": "function"
    },
    {
      "constant": false,
      "inputs": [
        {
          "internalType": "bytes32",
          "name": "_requestId",
          "type": "bytes32"
        },
        {
          "internalType": "uint256",
          "name": "_price",
          "type": "uint256"
        }
      ],
      "name": "fulfill",
      "outputs": [],
      "payable": false,
      "stateMutability": "nonpayable",
      "type": "function"
    },
    {
      "constant": true,
      "inputs": [
        {
          "internalType": "uint256",
          "name": "amount",
          "type": "uint256"
        },
        {
          "internalType": "address",
          "name": "account",
          "type": "address"
        },
        {
          "internalType": "address",
          "name": "asset",
          "type": "address"
        }
      ],
      "name": "fbCurrentPriceCount",
      "outputs": [
        {
          "internalType": "uint256",
          "name": "",
          "type": "uint256"
        }
      ],
      "payable": false,
      "stateMutability": "view",
      "type": "function"
    },
    {
      "constant": false,
      "inputs": [
        {
          "internalType": "uint256",
          "name": "ratio",
          "type": "uint256"
        }
      ],
      "name": "setCollateralRatio",
      "outputs": [],
      "payable": false,
      "stateMutability": "nonpayable",
      "type": "function"
    },
    {
      "constant": false,
      "inputs": [
        {
          "internalType": "bytes32",
          "name": "_jobId",
          "type": "bytes32"
        }
      ],
      "name": "requestETHPrice",
      "outputs": [],
      "payable": false,
      "stateMutability": "nonpayable",
      "type": "function"
    },
    {
      "constant": false,
      "inputs": [
        {
          "internalType": "uint256",
          "name": "price",
          "type": "uint256"
        },
        {
          "internalType": "address",
          "name": "asset",
          "type": "address"
        }
      ],
      "name": "setAssetPrice",
      "outputs": [],
      "payable": false,
      "stateMutability": "nonpayable",
      "type": "function"
    },
    {
      "constant": true,
      "inputs": [
        {
          "internalType": "address",
          "name": "",
          "type": "address"
        }
      ],
      "name": "tokenPriceOracle",
      "outputs": [
        {
          "internalType": "uint256",
          "name": "",
          "type": "uint256"
        }
      ],
      "payable": false,
      "stateMutability": "view",
      "type": "function"
    },
    {
      "constant": false,
      "inputs": [
        {
          "internalType": "address",
          "name": "asset",
          "type": "address"
        },
        {
          "internalType": "uint256",
          "name": "amount",
          "type": "uint256"
        }
      ],
      "name": "repayBorrow",
      "outputs": [
        {
          "internalType": "bool",
          "name": "",
          "type": "bool"
        }
      ],
      "payable": false,
      "stateMutability": "nonpayable",
      "type": "function"
    },
    {
      "constant": true,
      "inputs": [],
      "name": "currentCollateralRatio",
      "outputs": [
        {
          "internalType": "uint256",
          "name": "",
          "type": "uint256"
        }
      ],
      "payable": false,
      "stateMutability": "view",
      "type": "function"
    },
    {
      "constant": false,
      "inputs": [
        {
          "internalType": "address",
          "name": "account",
          "type": "address"
        },
        {
          "internalType": "address",
          "name": "asset",
          "type": "address"
        },
        {
          "internalType": "address",
          "name": "weth",
          "type": "address"
        },
        {
          "internalType": "uint256",
          "name": "amount",
          "type": "uint256"
        }
      ],
      "name": "borrow",
      "outputs": [
        {
          "internalType": "bool",
          "name": "",
          "type": "bool"
        }
      ],
      "payable": false,
      "stateMutability": "nonpayable",
      "type": "function"
    },
    {
      "constant": true,
      "inputs": [
        {
          "internalType": "address",
          "name": "",
          "type": "address"
        },
        {
          "internalType": "address",
          "name": "",
          "type": "address"
        }
      ],
      "name": "supplyBalances",
      "outputs": [
        {
          "internalType": "uint256",
          "name": "",
          "type": "uint256"
        }
      ],
      "payable": false,
      "stateMutability": "view",
      "type": "function"
    },
    {
      "constant": true,
      "inputs": [
        {
          "internalType": "address",
          "name": "asset",
          "type": "address"
        }
      ],
      "name": "assetPrice",
      "outputs": [
        {
          "internalType": "uint256",
          "name": "",
          "type": "uint256"
        }
      ],
      "payable": false,
      "stateMutability": "view",
      "type": "function"
    },
    {
      "constant": true,
      "inputs": [
        {
          "internalType": "address",
          "name": "account",
          "type": "address"
        },
        {
          "internalType": "address",
          "name": "asset",
          "type": "address"
        }
      ],
      "name": "getSupplyBalance",
      "outputs": [
        {
          "internalType": "uint256",
          "name": "",
          "type": "uint256"
        }
      ],
      "payable": false,
      "stateMutability": "view",
      "type": "function"
    },
    {
      "constant": true,
      "inputs": [
        {
          "internalType": "uint256",
          "name": "",
          "type": "uint256"
        }
      ],
      "name": "collateralMarkets",
      "outputs": [
        {
          "internalType": "address",
          "name": "",
          "type": "address"
        }
      ],
      "payable": false,
      "stateMutability": "view",
      "type": "function"
    },
    {
      "constant": false,
      "inputs": [
        {
          "internalType": "address",
          "name": "_tokenAddress",
          "type": "address"
        }
      ],
      "name": "initialize",
      "outputs": [],
      "payable": false,
      "stateMutability": "nonpayable",
      "type": "function"
    },
    {
      "constant": true,
      "inputs": [
        {
          "internalType": "address",
          "name": "account",
          "type": "address"
        },
        {
          "internalType": "address",
          "name": "weth",
          "type": "address"
        }
      ],
      "name": "ethCurrentPriceCount",
      "outputs": [
        {
          "internalType": "uint256",
          "name": "",
          "type": "uint256"
        }
      ],
      "payable": false,
      "stateMutability": "view",
      "type": "function"
    },
    {
      "constant": false,
      "inputs": [
        {
          "internalType": "address",
          "name": "asset",
          "type": "address"
        },
        {
          "internalType": "uint256",
          "name": "amount",
          "type": "uint256"
        }
      ],
      "name": "supply",
      "outputs": [
        {
          "internalType": "bool",
          "name": "",
          "type": "bool"
        }
      ],
      "payable": false,
      "stateMutability": "nonpayable",
      "type": "function"
    },
    {
      "constant": false,
      "inputs": [
        {
          "internalType": "address",
          "name": "asset",
          "type": "address"
        },
        {
          "internalType": "uint256",
          "name": "amount",
          "type": "uint256"
        }
      ],
      "name": "withdraw",
      "outputs": [
        {
          "internalType": "bool",
          "name": "",
          "type": "bool"
        }
      ],
      "payable": false,
      "stateMutability": "nonpayable",
      "type": "function"
    },
    {
      "constant": true,
      "inputs": [
        {
          "internalType": "address",
          "name": "",
          "type": "address"
        },
        {
          "internalType": "address",
          "name": "",
          "type": "address"
        }
      ],
      "name": "borrowBalances",
      "outputs": [
        {
          "internalType": "uint256",
          "name": "",
          "type": "uint256"
        }
      ],
      "payable": false,
      "stateMutability": "view",
      "type": "function"
    },
    {
      "constant": true,
      "inputs": [],
      "name": "ethPrice",
      "outputs": [
        {
          "internalType": "uint256",
          "name": "",
          "type": "uint256"
        }
      ],
      "payable": false,
      "stateMutability": "view",
      "type": "function"
    },
    {
      "anonymous": false,
      "inputs": [
        {
          "indexed": true,
          "internalType": "bytes32",
          "name": "id",
          "type": "bytes32"
        }
      ],
      "name": "ChainlinkRequested",
      "type": "event"
    },
    {
      "anonymous": false,
      "inputs": [
        {
          "indexed": true,
          "internalType": "bytes32",
          "name": "id",
          "type": "bytes32"
        }
      ],
      "name": "ChainlinkFulfilled",
      "type": "event"
    },
    {
      "anonymous": false,
      "inputs": [
        {
          "indexed": true,
          "internalType": "bytes32",
          "name": "id",
          "type": "bytes32"
        }
      ],
      "name": "ChainlinkCancelled",
      "type": "event"
    }
  ],
  "bytecode": "0x60806040526001603760005090905534801561001b5760006000fd5b50610021565b612bc7806100306000396000f3fe60806040523480156100115760006000fd5b506004361061013b5760003560e01c8063afef7efd116100b9578063c4d66de81161007d578063c4d66de814610699578063eacc8e73146106de578063f2b9fdb814610757578063f3fef3a3146107be578063fc7d42d714610825578063ff186b2e1461089e5761013b565b8063afef7efd14610438578063b7adddac146104df578063b883b05814610558578063ba377731146105b1578063beb546151461062a5761013b565b806366a2a6f01161010057806366a2a6f0146102d857806389e6eb561461030b57806394ccfd1c1461035a578063abdb5ea8146103b3578063afed5bb81461041a5761013b565b80629f926214610141578063118e31b7146101705780634357855e146101e957806347b8655d146102265780636060663e146102a95761013b565b60006000fd5b61016e600480360360208110156101585760006000fd5b81019080803590602001909291905050506108bc565b005b6101d3600480360360408110156101875760006000fd5b81019080803573ffffffffffffffffffffffffffffffffffffffff169060200190929190803573ffffffffffffffffffffffffffffffffffffffff1690602001909291905050506108cc565b6040518082815260200191505060405180910390f35b610224600480360360408110156102005760006000fd5b81019080803560001916906020019092919080359060200190929190505050610961565b005b6102936004803603606081101561023d5760006000fd5b8101908080359060200190929190803573ffffffffffffffffffffffffffffffffffffffff169060200190929190803573ffffffffffffffffffffffffffffffffffffffff169060200190929190505050610aab565b6040518082815260200191505060405180910390f35b6102d6600480360360208110156102c05760006000fd5b8101908080359060200190929190505050610ae7565b005b610309600480360360208110156102ef5760006000fd5b810190808035600019169060200190929190505050610af7565b005b610358600480360360408110156103225760006000fd5b8101908080359060200190929190803573ffffffffffffffffffffffffffffffffffffffff169060200190929190505050610b9f565b005b61039d600480360360208110156103715760006000fd5b81019080803573ffffffffffffffffffffffffffffffffffffffff169060200190929190505050610bf0565b6040518082815260200191505060405180910390f35b610400600480360360408110156103ca5760006000fd5b81019080803573ffffffffffffffffffffffffffffffffffffffff16906020019092919080359060200190929190505050610c0b565b604051808215151515815260200191505060405180910390f35b610422611069565b6040518082815260200191505060405180910390f35b6104c56004803603608081101561044f5760006000fd5b81019080803573ffffffffffffffffffffffffffffffffffffffff169060200190929190803573ffffffffffffffffffffffffffffffffffffffff169060200190929190803573ffffffffffffffffffffffffffffffffffffffff1690602001909291908035906020019092919050505061107b565b604051808215151515815260200191505060405180910390f35b610542600480360360408110156104f65760006000fd5b81019080803573ffffffffffffffffffffffffffffffffffffffff169060200190929190803573ffffffffffffffffffffffffffffffffffffffff169060200190929190505050611290565b6040518082815260200191505060405180910390f35b61059b6004803603602081101561056f5760006000fd5b81019080803573ffffffffffffffffffffffffffffffffffffffff1690602001909291905050506112bb565b6040518082815260200191505060405180910390f35b610614600480360360408110156105c85760006000fd5b81019080803573ffffffffffffffffffffffffffffffffffffffff169060200190929190803573ffffffffffffffffffffffffffffffffffffffff16906020019092919050505061130f565b6040518082815260200191505060405180910390f35b610657600480360360208110156106415760006000fd5b81019080803590602001909291905050506113a4565b604051808273ffffffffffffffffffffffffffffffffffffffff1673ffffffffffffffffffffffffffffffffffffffff16815260200191505060405180910390f35b6106dc600480360360208110156106b05760006000fd5b81019080803573ffffffffffffffffffffffffffffffffffffffff1690602001909291905050506113e9565b005b610741600480360360408110156106f55760006000fd5b81019080803573ffffffffffffffffffffffffffffffffffffffff169060200190929190803573ffffffffffffffffffffffffffffffffffffffff16906020019092919050505061166c565b6040518082815260200191505060405180910390f35b6107a46004803603604081101561076e5760006000fd5b81019080803573ffffffffffffffffffffffffffffffffffffffff1690602001909291908035906020019092919050505061169c565b604051808215151515815260200191505060405180910390f35b61080b600480360360408110156107d55760006000fd5b81019080803573ffffffffffffffffffffffffffffffffffffffff1690602001909291908035906020019092919050505061183b565b604051808215151515815260200191505060405180910390f35b6108886004803603604081101561083c5760006000fd5b81019080803573ffffffffffffffffffffffffffffffffffffffff169060200190929190803573ffffffffffffffffffffffffffffffffffffffff169060200190929190505050611a84565b6040518082815260200191505060405180910390f35b6108a6611aaf565b6040518082815260200191505060405180910390f35b80603c6000508190909055505b50565b6000603b60005060008473ffffffffffffffffffffffffffffffffffffffff1673ffffffffffffffffffffffffffffffffffffffff16815260200190815260200160002060005060008373ffffffffffffffffffffffffffffffffffffffff1673ffffffffffffffffffffffffffffffffffffffff16815260200190815260200160002060005054905061095b565b92915050565b8160386000506000826000191660001916815260200190815260200160002060009054906101000a900473ffffffffffffffffffffffffffffffffffffffff1673ffffffffffffffffffffffffffffffffffffffff163373ffffffffffffffffffffffffffffffffffffffff16141515610a26576040517f08c379a0000000000000000000000000000000000000000000000000000000008152600401808060200182810382526028815260200180612b6b6028913960400191505060405180910390fd5b60386000506000826000191660001916815260200190815260200160002060006101000a81549073ffffffffffffffffffffffffffffffffffffffff021916905580600019167f7cc135e0cebb02c3480ae5d74d377283180a2601f8f644edf7987b009316c63a60405160405180910390a281603c6000508190909055505b5b505050565b600060006096610ac0846112bb63ffffffff16565b86610ad187876108cc63ffffffff16565b010202905080915050610ae056505b9392505050565b80603e6000508190909055505b50565b610b9b604060009054906101000a900473ffffffffffffffffffffffffffffffffffffffff16826040518060400160405280600381526020017f45544800000000000000000000000000000000000000000000000000000000008152602001506040518060400160405280600381526020017f5553440000000000000000000000000000000000000000000000000000000000815260200150611ac163ffffffff16565b5b50565b81603d60005060008373ffffffffffffffffffffffffffffffffffffffff1673ffffffffffffffffffffffffffffffffffffffff1681526020019081526020016000206000508190909055505b5050565b603d6000506020528060005260406000206000915090505481565b600060008390506000603b60005060003373ffffffffffffffffffffffffffffffffffffffff1673ffffffffffffffffffffffffffffffffffffffff16815260200190815260200160002060005060008673ffffffffffffffffffffffffffffffffffffffff1673ffffffffffffffffffffffffffffffffffffffff16815260200190815260200160002060005054905060007fffffffffffffffffffffffffffffffffffffffffffffffffffffffffffffffff851415610d9957610d908373ffffffffffffffffffffffffffffffffffffffff166370a08231336040518263ffffffff1660e01b8152600401808273ffffffffffffffffffffffffffffffffffffffff1673ffffffffffffffffffffffffffffffffffffffff16815260200191505060206040518083038186803b158015610d475760006000fd5b505afa158015610d5c573d600060003e3d6000fd5b505050506040513d6020811015610d735760006000fd5b810190808051906020019092919050505083611da763ffffffff16565b90508050610d9f565b84905080505b80603b60005060003373ffffffffffffffffffffffffffffffffffffffff1673ffffffffffffffffffffffffffffffffffffffff16815260200190815260200160002060005060008873ffffffffffffffffffffffffffffffffffffffff1673ffffffffffffffffffffffffffffffffffffffff16815260200190815260200160002060008282825054039250508190909055508273ffffffffffffffffffffffffffffffffffffffff166323b872dd3330846040518463ffffffff1660e01b8152600401808473ffffffffffffffffffffffffffffffffffffffff1673ffffffffffffffffffffffffffffffffffffffff1681526020018373ffffffffffffffffffffffffffffffffffffffff1673ffffffffffffffffffffffffffffffffffffffff1681526020018281526020019350505050602060405180830381600087803b158015610eef5760006000fd5b505af1158015610f04573d600060003e3d6000fd5b505050506040513d6020811015610f1b5760006000fd5b8101908080519060200190929190505050508273ffffffffffffffffffffffffffffffffffffffff166342966c688473ffffffffffffffffffffffffffffffffffffffff166370a08231306040518263ffffffff1660e01b8152600401808273ffffffffffffffffffffffffffffffffffffffff1673ffffffffffffffffffffffffffffffffffffffff16815260200191505060206040518083038186803b158015610fc75760006000fd5b505afa158015610fdc573d600060003e3d6000fd5b505050506040513d6020811015610ff35760006000fd5b81019080805190602001909291905050506040518263ffffffff1660e01b815260040180828152602001915050600060405180830381600087803b15801561103b5760006000fd5b505af1158015611050573d600060003e3d6000fd5b5050505060019350505050611063565050505b92915050565b6000603e600050549050611078565b90565b6000600061108f868561166c63ffffffff16565b905060006110a4848888610aab63ffffffff16565b9050808210151515611121576040517f08c379a000000000000000000000000000000000000000000000000000000000815260040180806020018281038252600f8152602001807f6e6f74206d696e7420746f6b656e73000000000000000000000000000000000081526020015060200191505060405180910390fd5b83603b60005060003373ffffffffffffffffffffffffffffffffffffffff1673ffffffffffffffffffffffffffffffffffffffff16815260200190815260200160002060005060008873ffffffffffffffffffffffffffffffffffffffff1673ffffffffffffffffffffffffffffffffffffffff16815260200190815260200160002060008282825054019250508190909055508573ffffffffffffffffffffffffffffffffffffffff166340c10f1933866040518363ffffffff1660e01b8152600401808373ffffffffffffffffffffffffffffffffffffffff1673ffffffffffffffffffffffffffffffffffffffff16815260200182815260200192505050602060405180830381600087803b15801561123d5760006000fd5b505af1158015611252573d600060003e3d6000fd5b505050506040513d60208110156112695760006000fd5b8101908080519060200190929190505050506001925050506112885650505b949350505050565b603a600050602052816000526040600020600050602052806000526040600020600091509150505481565b6000603d60005060008373ffffffffffffffffffffffffffffffffffffffff1673ffffffffffffffffffffffffffffffffffffffff16815260200190815260200160002060005054905061130a565b919050565b6000603a60005060008473ffffffffffffffffffffffffffffffffffffffff1673ffffffffffffffffffffffffffffffffffffffff16815260200190815260200160002060005060008373ffffffffffffffffffffffffffffffffffffffff1673ffffffffffffffffffffffffffffffffffffffff16815260200190815260200160002060005054905061139e565b92915050565b6039600050818154811015156113b657fe5b906000526020600020900160005b9150909054906101000a900473ffffffffffffffffffffffffffffffffffffffff1681565b600060019054906101000a900460ff168061140e575061140d611dcc63ffffffff16565b5b806114265750600060009054906101000a900460ff16155b151561147d576040517f08c379a000000000000000000000000000000000000000000000000000000000815260040180806020018281038252602e815260200180612b3d602e913960400191505060405180910390fd5b6000600060019054906101000a900460ff1615905080156114cf576001600060016101000a81548160ff0219169083151502179055506001600060006101000a81548160ff0219169083151502179055505b73a36085f69e2889c224210f603d836748e7dc0088603f60006101000a81548173ffffffffffffffffffffffffffffffffffffffff021916908373ffffffffffffffffffffffffffffffffffffffff160217905550732f90a6d021db21e1b2a077c5a37b3c7e75d15b7e604060006101000a81548173ffffffffffffffffffffffffffffffffffffffff021916908373ffffffffffffffffffffffffffffffffffffffff1602179055506096603e6000508190909055506115b7603f60009054906101000a900473ffffffffffffffffffffffffffffffffffffffff16611de463ffffffff16565b6115e8604060009054906101000a900473ffffffffffffffffffffffffffffffffffffffff16611e2963ffffffff16565b6149ac603c600050819090905550614571603d60005060008473ffffffffffffffffffffffffffffffffffffffff1673ffffffffffffffffffffffffffffffffffffffff1681526020019081526020016000206000508190909055505b8015611667576000600060016101000a81548160ff0219169083151502179055505b505b50565b600060006064603c60005054611688868661130f63ffffffff16565b020290508091505061169656505b92915050565b600081603a60005060003373ffffffffffffffffffffffffffffffffffffffff1673ffffffffffffffffffffffffffffffffffffffff16815260200190815260200160002060005060008573ffffffffffffffffffffffffffffffffffffffff1673ffffffffffffffffffffffffffffffffffffffff16815260200190815260200160002060008282825054019250508190909055508273ffffffffffffffffffffffffffffffffffffffff166323b872dd3330856040518463ffffffff1660e01b8152600401808473ffffffffffffffffffffffffffffffffffffffff1673ffffffffffffffffffffffffffffffffffffffff1681526020018373ffffffffffffffffffffffffffffffffffffffff1673ffffffffffffffffffffffffffffffffffffffff1681526020018281526020019350505050602060405180830381600087803b1580156117ee5760006000fd5b505af1158015611803573d600060003e3d6000fd5b505050506040513d602081101561181a5760006000fd5b81019080805190602001909291905050505060019050611835565b92915050565b600060008390506000603a60005060003373ffffffffffffffffffffffffffffffffffffffff1673ffffffffffffffffffffffffffffffffffffffff16815260200190815260200160002060005060008673ffffffffffffffffffffffffffffffffffffffff1673ffffffffffffffffffffffffffffffffffffffff16815260200190815260200160002060005054905060007fffffffffffffffffffffffffffffffffffffffffffffffffffffffffffffffff851415611900578190508050611915565b6119108583611da763ffffffff16565b905080505b80603a60005060003373ffffffffffffffffffffffffffffffffffffffff1673ffffffffffffffffffffffffffffffffffffffff16815260200190815260200160002060005060008873ffffffffffffffffffffffffffffffffffffffff1673ffffffffffffffffffffffffffffffffffffffff16815260200190815260200160002060008282825054039250508190909055508273ffffffffffffffffffffffffffffffffffffffff1663a9059cbb33836040518363ffffffff1660e01b8152600401808373ffffffffffffffffffffffffffffffffffffffff1673ffffffffffffffffffffffffffffffffffffffff16815260200182815260200192505050602060405180830381600087803b158015611a315760006000fd5b505af1158015611a46573d600060003e3d6000fd5b505050506040513d6020811015611a5d5760006000fd5b81019080805190602001909291905050505060019350505050611a7e565050505b92915050565b603b600050602052816000526040600020600050602052806000526040600020600091509150505481565b6000603c600050549050611abe565b90565b611ac9612a6e565b611ae18430634357855e60e01b611e6e63ffffffff16565b9050611b306040518060400160405280600381526020017f73796d00000000000000000000000000000000000000000000000000000000008152602001508483611ea59092919063ffffffff16565b611b7d6040518060400160405280600781526020017f636f6e76657274000000000000000000000000000000000000000000000000008152602001508383611ea59092919063ffffffff16565b60606005604051908082528060200260200182016040528015611bb457816020015b6060815260200190600190039081611b9f5790505b5090506040518060400160405280600481526020017f6461746100000000000000000000000000000000000000000000000000000000815260200150816000815181101515611bff57fe5b602002602001018190525083816001815181101515611c1a57fe5b60200260200101819052506040518060400160405280600581526020017f71756f7465000000000000000000000000000000000000000000000000000000815260200150816002815181101515611c6d57fe5b602002602001018190525082816003815181101515611c8857fe5b60200260200101819052506040518060400160405280600581526020017f7072696365000000000000000000000000000000000000000000000000000000815260200150816004815181101515611cdb57fe5b6020026020010181905250611d336040518060400160405280600881526020017f636f7079506174680000000000000000000000000000000000000000000000008152602001508284611ed99092919063ffffffff16565b611d816040518060400160405280600581526020017f74696d6573000000000000000000000000000000000000000000000000000000815260200150606484611f6b9092919063ffffffff16565b611d9d8683670de0b6b3a7640000600102611f9f63ffffffff16565b5050505b50505050565b600081831015611dbd57829050611dc656611dc5565b819050611dc6565b5b92915050565b60006000303b905060008114915050611de156505b90565b80603560006101000a81548173ffffffffffffffffffffffffffffffffffffffff021916908373ffffffffffffffffffffffffffffffffffffffff1602179055505b50565b80603660006101000a81548173ffffffffffffffffffffffffffffffffffffffff021916908373ffffffffffffffffffffffffffffffffffffffff1602179055505b50565b611e76612a6e565b611e7e612a6e565b611e9585858584612288909392919063ffffffff16565b915050611e9e56505b9392505050565b611ebc82846080015161235690919063ffffffff16565b611ed381846080015161235690919063ffffffff16565b5b505050565b611ef082846080015161235690919063ffffffff16565b611f058360800151612382909063ffffffff16565b6000600090505b8151811015611f4f57611f418282815181101515611f2657fe5b6020026020010151856080015161235690919063ffffffff16565b5b8080600101915050611f0c565b50611f658360800151612397909063ffffffff16565b5b505050565b611f8282846080015161235690919063ffffffff16565b611f998184608001516123ac90919063ffffffff16565b5b505050565b600030603760005054604051602001808373ffffffffffffffffffffffffffffffffffffffff1673ffffffffffffffffffffffffffffffffffffffff1660601b815260140182815260200192505050604051602081830303815290604052805190602001209050805060376000505483606001909081815260200150508360386000506000836000191660001916815260200190815260200160002060006101000a81548173ffffffffffffffffffffffffffffffffffffffff021916908373ffffffffffffffffffffffffffffffffffffffff16021790555080600019167fb5e6e01e79f91267dc17b4e6314d5d4d03593d2ceee0fbb452b750bd70ea5af960405160405180910390a2603560009054906101000a900473ffffffffffffffffffffffffffffffffffffffff1673ffffffffffffffffffffffffffffffffffffffff16634000aea085846120f98761240763ffffffff16565b6040518463ffffffff1660e01b8152600401808473ffffffffffffffffffffffffffffffffffffffff1673ffffffffffffffffffffffffffffffffffffffff16815260200183815260200180602001828103825283818151815260200191508051906020019080838360005b838110156121815780820151818401525b602081019050612165565b50505050905090810190601f1680156121ae5780820380516001836020036101000a031916815260200191505b50945050505050602060405180830381600087803b1580156121d05760006000fd5b505af11580156121e5573d600060003e3d6000fd5b505050506040513d60208110156121fc5760006000fd5b81019080805190602001909291905050501515612264576040517f08c379a0000000000000000000000000000000000000000000000000000000008152600401808060200182810382526023815260200180612b1a6023913960400191505060405180910390fd5b600160376000828282505401925050819090905550809050612281565b9392505050565b612290612a6e565b6122a6856080015161010061261d63ffffffff16565b50838560000190600019169081600019168152602001505082856020019073ffffffffffffffffffffffffffffffffffffffff16908173ffffffffffffffffffffffffffffffffffffffff16815260200150508185604001907bffffffffffffffffffffffffffffffffffffffffffffffffffffffff191690817bffffffffffffffffffffffffffffffffffffffffffffffffffffffff19168152602001505084905061234e565b949350505050565b612369826003835161268363ffffffff16565b61237c81836127d390919063ffffffff16565b505b5050565b61239381600461280063ffffffff16565b5b50565b6123a881600761280063ffffffff16565b5b50565b6000811215156123cd576123c88260008361268363ffffffff16565b612402565b612401826001837fffffffffffffffffffffffffffffffffffffffffffffffffffffffffffffffff0361268363ffffffff16565b5b5b5050565b6060603660009054906101000a900473ffffffffffffffffffffffffffffffffffffffff1673ffffffffffffffffffffffffffffffffffffffff166340429946905060e01b6000600084600001518560200151866040015187606001516001896080015160000151604051602401808973ffffffffffffffffffffffffffffffffffffffff1673ffffffffffffffffffffffffffffffffffffffff16815260200188815260200187600019166000191681526020018673ffffffffffffffffffffffffffffffffffffffff1673ffffffffffffffffffffffffffffffffffffffff168152602001857bffffffffffffffffffffffffffffffffffffffffffffffffffffffff19167bffffffffffffffffffffffffffffffffffffffffffffffffffffffff1916815260200184815260200183815260200180602001828103825283818151815260200191508051906020019080838360005b8381101561257b5780820151818401525b60208101905061255f565b50505050905090810190601f1680156125a85780820380516001836020036101000a031916815260200191505b509950505050505050505050604051602081830303815290604052907bffffffffffffffffffffffffffffffffffffffffffffffffffffffff19166020820180517bffffffffffffffffffffffffffffffffffffffffffffffffffffffff83818316178352505050509050612618565b919050565b612625612adf565b600060208381151561263357fe5b061415156126525760208281151561264757fe5b066020038201915081505b818360200190908181526020015050604051808452600081528281016020016040525082905061267d565b92915050565b6017811115156126b2576126ac8160058460ff16901b60ff16178461282390919063ffffffff16565b506127cd565b60ff811115156126f6576126d9601860058460ff16901b178461282390919063ffffffff16565b506126f08160018561284e9092919063ffffffff16565b506127cc565b61ffff8111151561273b5761271e601960058460ff16901b178461282390919063ffffffff16565b506127358160028561284e9092919063ffffffff16565b506127cb565b63ffffffff8111151561278257612765601a60058460ff16901b178461282390919063ffffffff16565b5061277c8160048561284e9092919063ffffffff16565b506127ca565b67ffffffffffffffff811115156127c9576127b0601b60058460ff16901b178461282390919063ffffffff16565b506127c78160088561284e9092919063ffffffff16565b505b5b5b5b5b5b505050565b6127db612adf565b6127f38384600001515184855161287b63ffffffff16565b90506127fa565b92915050565b61281d601f60058360ff16901b178361282390919063ffffffff16565b505b5050565b61282b612adf565b612841838460000151518461295563ffffffff16565b9050612848565b92915050565b612856612adf565b61286d8485600001515185856129b063ffffffff16565b9050612874565b9392505050565b612883612adf565b825182111515156128945760006000fd5b846020015182850111156128cb576128ca8560026128be8860200151888701612a1d63ffffffff16565b02612a3d63ffffffff16565b5b600060008651805187602083010193508088870111156128eb5787860182525b60208701925050505b6020841015156129205780518252602082019150815060208101905080505b60208403935083506128f4565b60006001856020036101000a0390508019825116818451168181178552505087935050505061294d565050505b949350505050565b61295d612adf565b83602001518310151561298257612981846002866020015102612a3d63ffffffff16565b5b835180516020858301018481538186141561299e576001820183525b5050508390506129a9565b9392505050565b6129b8612adf565b846020015184830111156129dc576129db85600286850102612a3d63ffffffff16565b5b60006001836101000a0390508551838682010185831982511617815281518588011115612a095784870182525b505085915050612a1556505b949350505050565b600081831115612a2f57829050612a37565b819050612a37565b92915050565b606082600001519050612a56838361261d63ffffffff16565b50612a6783826127d363ffffffff16565b50505b5050565b6040518060a001604052806000600019168152602001600073ffffffffffffffffffffffffffffffffffffffff16815260200160007bffffffffffffffffffffffffffffffffffffffffffffffffffffffff1916815260200160008152602001612ad6612afc565b81526020015090565b604051806040016040528060608152602001600081526020015090565b60405180604001604052806060815260200160008152602001509056fe756e61626c6520746f207472616e73666572416e6443616c6c20746f206f7261636c65436f6e747261637420696e7374616e63652068617320616c7265616479206265656e20696e697469616c697a6564536f75726365206d75737420626520746865206f7261636c65206f66207468652072657175657374a265627a7a72315820a664e4741be0e0a3a67cfe141de4006e170827569cb7f4629b42edab081fc52964736f6c634300050b0032",
  "compiler": {
    "name": "solc",
    "version": "0.5.11+commit.c082d0b4.Emscripten.clang",
    "optimizer": {},
    "evmVersion": "constantinople"
  }
}