{"fileName":"Pausable.sol","contractName":"Pausable","source":"pragma solidity ^0.5.2;\n\nimport \"@openzeppelin/upgrades/contracts/Initializable.sol\";\n\nimport \"../GSN/Context.sol\";\nimport \"../access/roles/PauserRole.sol\";\n\n/**\n * @title Pausable\n * @dev Base contract which allows children to implement an emergency stop mechanism.\n */\ncontract Pausable is Initializable, Context, PauserRole {\n    event Paused(address account);\n    event Unpaused(address account);\n\n    bool private _paused;\n\n    function initialize(address sender) public initializer {\n        PauserRole.initialize(sender);\n\n        _paused = false;\n    }\n\n    /**\n     * @return true if the contract is paused, false otherwise.\n     */\n    function paused() public view returns (bool) {\n        return _paused;\n    }\n\n    /**\n     * @dev Modifier to make a function callable only when the contract is not paused.\n     */\n    modifier whenNotPaused() {\n        require(!_paused);\n        _;\n    }\n\n    /**\n     * @dev Modifier to make a function callable only when the contract is paused.\n     */\n    modifier whenPaused() {\n        require(_paused);\n        _;\n    }\n\n    /**\n     * @dev called by the owner to pause, triggers stopped state\n     */\n    function pause() public onlyPauser whenNotPaused {\n        _paused = true;\n        emit Paused(_msgSender());\n    }\n\n    /**\n     * @dev called by the owner to unpause, returns to normal state\n     */\n    function unpause() public onlyPauser whenPaused {\n        _paused = false;\n        emit Unpaused(_msgSender());\n    }\n\n    uint256[50] private ______gap;\n}\n","sourcePath":"@openzeppelin/contracts-ethereum-package/contracts/lifecycle/Pausable.sol","abi":[{"constant":false,"inputs":[],"name":"unpause","outputs":[],"payable":false,"stateMutability":"nonpayable","type":"function"},{"constant":true,"inputs":[{"internalType":"address","name":"account","type":"address"}],"name":"isPauser","outputs":[{"internalType":"bool","name":"","type":"bool"}],"payable":false,"stateMutability":"view","type":"function"},{"constant":true,"inputs":[],"name":"paused","outputs":[{"internalType":"bool","name":"","type":"bool"}],"payable":false,"stateMutability":"view","type":"function"},{"constant":false,"inputs":[],"name":"renouncePauser","outputs":[],"payable":false,"stateMutability":"nonpayable","type":"function"},{"constant":false,"inputs":[{"internalType":"address","name":"account","type":"address"}],"name":"addPauser","outputs":[],"payable":false,"stateMutability":"nonpayable","type":"function"},{"constant":false,"inputs":[],"name":"pause","outputs":[],"payable":false,"stateMutability":"nonpayable","type":"function"},{"constant":false,"inputs":[{"internalType":"address","name":"sender","type":"address"}],"name":"initialize","outputs":[],"payable":false,"stateMutability":"nonpayable","type":"function"},{"anonymous":false,"inputs":[{"indexed":false,"internalType":"address","name":"account","type":"address"}],"name":"Paused","type":"event"},{"anonymous":false,"inputs":[{"indexed":false,"internalType":"address","name":"account","type":"address"}],"name":"Unpaused","type":"event"},{"anonymous":false,"inputs":[{"indexed":true,"internalType":"address","name":"account","type":"address"}],"name":"PauserAdded","type":"event"},{"anonymous":false,"inputs":[{"indexed":true,"internalType":"address","name":"account","type":"address"}],"name":"PauserRemoved","type":"event"}],"bytecode":"0x60806040525b5b61000b565b610ac98061001a6000396000f3fe60806040523480156100115760006000fd5b50600436106100825760003560e01c80636ef8d66d1161005c5780636ef8d66d1461011157806382dc1ec41461011b5780638456cb5914610160578063c4d66de81461016a57610082565b80633f4ba83a1461008857806346fbf68e146100925780635c975abb146100ef57610082565b60006000fd5b6100906101af565b005b6100d5600480360360208110156100a95760006000fd5b81019080803573ffffffffffffffffffffffffffffffffffffffff1690602001909291905050506102ce565b604051808215151515815260200191505060405180910390f35b6100f76102f3565b604051808215151515815260200191505060405180910390f35b61011961030f565b005b61015e600480360360208110156101325760006000fd5b81019080803573ffffffffffffffffffffffffffffffffffffffff16906020019092919050505061032e565b005b6101686103b5565b005b6101ad600480360360208110156101815760006000fd5b81019080803573ffffffffffffffffffffffffffffffffffffffff1690602001909291905050506104d5565b005b6101cb6101c061060d63ffffffff16565b6102ce63ffffffff16565b1515610222576040517f08c379a0000000000000000000000000000000000000000000000000000000008152600401808060200182810382526030815260200180610a376030913960400191505060405180910390fd5b606660009054906101000a900460ff16151561023e5760006000fd5b6000606660006101000a81548160ff0219169083151502179055507f5db9ee0a495bf2e6ff9c91a7834c1ba4fdd244a5e8aa4e537bd38aeae4b073aa61028861060d63ffffffff16565b604051808273ffffffffffffffffffffffffffffffffffffffff1673ffffffffffffffffffffffffffffffffffffffff16815260200191505060405180910390a15b5b5b565b60006102e782603360005061061a90919063ffffffff16565b90506102ee565b919050565b6000606660009054906101000a900460ff16905061030c565b90565b61032b61032061060d63ffffffff16565b6106b863ffffffff16565b5b565b61034a61033f61060d63ffffffff16565b6102ce63ffffffff16565b15156103a1576040517f08c379a0000000000000000000000000000000000000000000000000000000008152600401808060200182810382526030815260200180610a376030913960400191505060405180910390fd5b6103b08161071663ffffffff16565b5b5b50565b6103d16103c661060d63ffffffff16565b6102ce63ffffffff16565b1515610428576040517f08c379a0000000000000000000000000000000000000000000000000000000008152600401808060200182810382526030815260200180610a376030913960400191505060405180910390fd5b606660009054906101000a900460ff161515156104455760006000fd5b6001606660006101000a81548160ff0219169083151502179055507f62e78cea01bee320cd4e420270b5ea74000d11b0c9f74754ebdbfc544b05a25861048f61060d63ffffffff16565b604051808273ffffffffffffffffffffffffffffffffffffffff1673ffffffffffffffffffffffffffffffffffffffff16815260200191505060405180910390a15b5b5b565b600060019054906101000a900460ff16806104fa57506104f961077463ffffffff16565b5b806105125750600060009054906101000a900460ff16155b1515610569576040517f08c379a000000000000000000000000000000000000000000000000000000000815260040180806020018281038252602e815260200180610a67602e913960400191505060405180910390fd5b6000600060019054906101000a900460ff1615905080156105bb576001600060016101000a81548160ff0219169083151502179055506001600060006101000a81548160ff0219169083151502179055505b6105ca8261078c63ffffffff16565b6000606660006101000a81548160ff0219169083151502179055505b8015610608576000600060016101000a81548160ff0219169083151502179055505b505b50565b6000339050610617565b90565b6000600073ffffffffffffffffffffffffffffffffffffffff168273ffffffffffffffffffffffffffffffffffffffff16141515156106595760006000fd5b8260000160005060008373ffffffffffffffffffffffffffffffffffffffff1673ffffffffffffffffffffffffffffffffffffffff16815260200190815260200160002060009054906101000a900460ff1690506106b2565b92915050565b6106cf8160336000506108bf90919063ffffffff16565b8073ffffffffffffffffffffffffffffffffffffffff167fcd265ebaf09df2871cc7bd4133404a235ba12eff2041bb89d9c714a2621c7c7e60405160405180910390a25b50565b61072d81603360005061097a90919063ffffffff16565b8073ffffffffffffffffffffffffffffffffffffffff167f6719d08c1888103bea251a4ed56406bd0c3e69723c8a1686e017e7bbe159b6f860405160405180910390a25b50565b60006000303b90506000811491505061078956505b90565b600060019054906101000a900460ff16806107b157506107b061077463ffffffff16565b5b806107c95750600060009054906101000a900460ff16155b1515610820576040517f08c379a000000000000000000000000000000000000000000000000000000000815260040180806020018281038252602e815260200180610a67602e913960400191505060405180910390fd5b6000600060019054906101000a900460ff161590508015610872576001600060016101000a81548160ff0219169083151502179055506001600060006101000a81548160ff0219169083151502179055505b610881826102ce63ffffffff16565b1515610897576108968261071663ffffffff16565b5b5b80156108ba576000600060016101000a81548160ff0219169083151502179055505b505b50565b600073ffffffffffffffffffffffffffffffffffffffff168173ffffffffffffffffffffffffffffffffffffffff16141515156108fc5760006000fd5b61090c828261061a63ffffffff16565b15156109185760006000fd5b60008260000160005060008373ffffffffffffffffffffffffffffffffffffffff1673ffffffffffffffffffffffffffffffffffffffff16815260200190815260200160002060006101000a81548160ff0219169083151502179055505b5050565b600073ffffffffffffffffffffffffffffffffffffffff168173ffffffffffffffffffffffffffffffffffffffff16141515156109b75760006000fd5b6109c7828261061a63ffffffff16565b1515156109d45760006000fd5b60018260000160005060008373ffffffffffffffffffffffffffffffffffffffff1673ffffffffffffffffffffffffffffffffffffffff16815260200190815260200160002060006101000a81548160ff0219169083151502179055505b505056fe506175736572526f6c653a2063616c6c657220646f6573206e6f742068617665207468652050617573657220726f6c65436f6e747261637420696e7374616e63652068617320616c7265616479206265656e20696e697469616c697a6564a265627a7a72315820ec81fb3b99731a61ecd104be3a9516a242f95e7e1463ac2860e3eb436befd19864736f6c634300050b0032","compiler":{"name":"solc","version":"0.5.11+commit.c082d0b4.Emscripten.clang","optimizer":{},"evmVersion":"constantinople"}}