{"fileName":"StandaloneERC20.sol","contractName":"StandaloneERC20","source":"pragma solidity ^0.5.0;\n\nimport \"@openzeppelin/upgrades/contracts/Initializable.sol\";\nimport \"./ERC20Detailed.sol\";\nimport \"./ERC20Mintable.sol\";\nimport \"./ERC20Pausable.sol\";\n\n\n/**\n * @title Standard ERC20 token, with minting and pause functionality.\n *\n */\ncontract StandaloneERC20 is Initializable, ERC20Detailed, ERC20Mintable, ERC20Pausable {\n    function initialize(\n        string memory name, string memory symbol, uint8 decimals, uint256 initialSupply, address initialHolder,\n        address[] memory minters, address[] memory pausers\n    ) public initializer {\n        ERC20Detailed.initialize(name, symbol, decimals);\n\n        // Mint the initial supply\n        _mint(initialHolder, initialSupply);\n\n        // Initialize the minter and pauser roles, and renounce them\n        ERC20Mintable.initialize(address(this));\n        _removeMinter(address(this));\n\n        ERC20Pausable.initialize(address(this));\n        _removePauser(address(this));\n\n        // Add the requested minters and pausers (this can be done after renouncing since\n        // these are the internal calls)\n        for (uint256 i = 0; i < minters.length; ++i) {\n            _addMinter(minters[i]);\n        }\n\n        for (uint256 i = 0; i < pausers.length; ++i) {\n            _addPauser(pausers[i]);\n        }\n    }\n\n    function initialize(\n        string memory name, string memory symbol, uint8 decimals, address[] memory minters, address[] memory pausers\n    ) public initializer {\n        ERC20Detailed.initialize(name, symbol, decimals);\n\n        // Initialize the minter and pauser roles, and renounce them\n        ERC20Mintable.initialize(address(this));\n        _removeMinter(address(this));\n\n        ERC20Pausable.initialize(address(this));\n        _removePauser(address(this));\n\n        // Add the requested minters and pausers (this can be done after renouncing since\n        // these are the internal calls)\n        for (uint256 i = 0; i < minters.length; ++i) {\n            _addMinter(minters[i]);\n        }\n\n        for (uint256 i = 0; i < pausers.length; ++i) {\n            _addPauser(pausers[i]);\n        }\n    }\n}\n","sourcePath":"@openzeppelin/contracts-ethereum-package/contracts/token/ERC20/StandaloneERC20.sol","abi":[{"constant":true,"inputs":[],"name":"name","outputs":[{"internalType":"string","name":"","type":"string"}],"payable":false,"stateMutability":"view","type":"function"},{"constant":false,"inputs":[{"internalType":"address","name":"spender","type":"address"},{"internalType":"uint256","name":"value","type":"uint256"}],"name":"approve","outputs":[{"internalType":"bool","name":"","type":"bool"}],"payable":false,"stateMutability":"nonpayable","type":"function"},{"constant":false,"inputs":[{"internalType":"string","name":"name","type":"string"},{"internalType":"string","name":"symbol","type":"string"},{"internalType":"uint8","name":"decimals","type":"uint8"}],"name":"initialize","outputs":[],"payable":false,"stateMutability":"nonpayable","type":"function"},{"constant":true,"inputs":[],"name":"totalSupply","outputs":[{"internalType":"uint256","name":"","type":"uint256"}],"payable":false,"stateMutability":"view","type":"function"},{"constant":false,"inputs":[{"internalType":"address","name":"from","type":"address"},{"internalType":"address","name":"to","type":"address"},{"internalType":"uint256","name":"value","type":"uint256"}],"name":"transferFrom","outputs":[{"internalType":"bool","name":"","type":"bool"}],"payable":false,"stateMutability":"nonpayable","type":"function"},{"constant":false,"inputs":[{"internalType":"string","name":"name","type":"string"},{"internalType":"string","name":"symbol","type":"string"},{"internalType":"uint8","name":"decimals","type":"uint8"},{"internalType":"address[]","name":"minters","type":"address[]"},{"internalType":"address[]","name":"pausers","type":"address[]"}],"name":"initialize","outputs":[],"payable":false,"stateMutability":"nonpayable","type":"function"},{"constant":true,"inputs":[],"name":"decimals","outputs":[{"internalType":"uint8","name":"","type":"uint8"}],"payable":false,"stateMutability":"view","type":"function"},{"constant":false,"inputs":[{"internalType":"address","name":"spender","type":"address"},{"internalType":"uint256","name":"addedValue","type":"uint256"}],"name":"increaseAllowance","outputs":[{"internalType":"bool","name":"success","type":"bool"}],"payable":false,"stateMutability":"nonpayable","type":"function"},{"constant":false,"inputs":[],"name":"unpause","outputs":[],"payable":false,"stateMutability":"nonpayable","type":"function"},{"constant":false,"inputs":[{"internalType":"address","name":"to","type":"address"},{"internalType":"uint256","name":"value","type":"uint256"}],"name":"mint","outputs":[{"internalType":"bool","name":"","type":"bool"}],"payable":false,"stateMutability":"nonpayable","type":"function"},{"constant":true,"inputs":[{"internalType":"address","name":"account","type":"address"}],"name":"isPauser","outputs":[{"internalType":"bool","name":"","type":"bool"}],"payable":false,"stateMutability":"view","type":"function"},{"constant":false,"inputs":[{"internalType":"string","name":"name","type":"string"},{"internalType":"string","name":"symbol","type":"string"},{"internalType":"uint8","name":"decimals","type":"uint8"},{"internalType":"uint256","name":"initialSupply","type":"uint256"},{"internalType":"address","name":"initialHolder","type":"address"},{"internalType":"address[]","name":"minters","type":"address[]"},{"internalType":"address[]","name":"pausers","type":"address[]"}],"name":"initialize","outputs":[],"payable":false,"stateMutability":"nonpayable","type":"function"},{"constant":true,"inputs":[],"name":"paused","outputs":[{"internalType":"bool","name":"","type":"bool"}],"payable":false,"stateMutability":"view","type":"function"},{"constant":false,"inputs":[],"name":"renouncePauser","outputs":[],"payable":false,"stateMutability":"nonpayable","type":"function"},{"constant":true,"inputs":[{"internalType":"address","name":"owner","type":"address"}],"name":"balanceOf","outputs":[{"internalType":"uint256","name":"","type":"uint256"}],"payable":false,"stateMutability":"view","type":"function"},{"constant":false,"inputs":[{"internalType":"address","name":"account","type":"address"}],"name":"addPauser","outputs":[],"payable":false,"stateMutability":"nonpayable","type":"function"},{"constant":false,"inputs":[],"name":"pause","outputs":[],"payable":false,"stateMutability":"nonpayable","type":"function"},{"constant":true,"inputs":[],"name":"symbol","outputs":[{"internalType":"string","name":"","type":"string"}],"payable":false,"stateMutability":"view","type":"function"},{"constant":false,"inputs":[{"internalType":"address","name":"account","type":"address"}],"name":"addMinter","outputs":[],"payable":false,"stateMutability":"nonpayable","type":"function"},{"constant":false,"inputs":[],"name":"renounceMinter","outputs":[],"payable":false,"stateMutability":"nonpayable","type":"function"},{"constant":false,"inputs":[{"internalType":"address","name":"spender","type":"address"},{"internalType":"uint256","name":"subtractedValue","type":"uint256"}],"name":"decreaseAllowance","outputs":[{"internalType":"bool","name":"success","type":"bool"}],"payable":false,"stateMutability":"nonpayable","type":"function"},{"constant":false,"inputs":[{"internalType":"address","name":"to","type":"address"},{"internalType":"uint256","name":"value","type":"uint256"}],"name":"transfer","outputs":[{"internalType":"bool","name":"","type":"bool"}],"payable":false,"stateMutability":"nonpayable","type":"function"},{"constant":true,"inputs":[{"internalType":"address","name":"account","type":"address"}],"name":"isMinter","outputs":[{"internalType":"bool","name":"","type":"bool"}],"payable":false,"stateMutability":"view","type":"function"},{"constant":false,"inputs":[{"internalType":"address","name":"sender","type":"address"}],"name":"initialize","outputs":[],"payable":false,"stateMutability":"nonpayable","type":"function"},{"constant":true,"inputs":[{"internalType":"address","name":"owner","type":"address"},{"internalType":"address","name":"spender","type":"address"}],"name":"allowance","outputs":[{"internalType":"uint256","name":"","type":"uint256"}],"payable":false,"stateMutability":"view","type":"function"},{"anonymous":false,"inputs":[{"indexed":false,"internalType":"address","name":"account","type":"address"}],"name":"Paused","type":"event"},{"anonymous":false,"inputs":[{"indexed":false,"internalType":"address","name":"account","type":"address"}],"name":"Unpaused","type":"event"},{"anonymous":false,"inputs":[{"indexed":true,"internalType":"address","name":"account","type":"address"}],"name":"PauserAdded","type":"event"},{"anonymous":false,"inputs":[{"indexed":true,"internalType":"address","name":"account","type":"address"}],"name":"PauserRemoved","type":"event"},{"anonymous":false,"inputs":[{"indexed":true,"internalType":"address","name":"account","type":"address"}],"name":"MinterAdded","type":"event"},{"anonymous":false,"inputs":[{"indexed":true,"internalType":"address","name":"account","type":"address"}],"name":"MinterRemoved","type":"event"},{"anonymous":false,"inputs":[{"indexed":true,"internalType":"address","name":"from","type":"address"},{"indexed":true,"internalType":"address","name":"to","type":"address"},{"indexed":false,"internalType":"uint256","name":"value","type":"uint256"}],"name":"Transfer","type":"event"},{"anonymous":false,"inputs":[{"indexed":true,"internalType":"address","name":"owner","type":"address"},{"indexed":true,"internalType":"address","name":"spender","type":"address"},{"indexed":false,"internalType":"uint256","name":"value","type":"uint256"}],"name":"Approval","type":"event"}],"bytecode":"0x60806040525b5b61000b565b612f498061001a6000396000f3fe60806040523480156100115760006000fd5b50600436106101785760003560e01c80635c975abb116100df578063983b2d5611610098578063a9059cbb11610072578063a9059cbb14610d55578063aa271e1a14610dbc578063c4d66de814610e19578063dd62ed3e14610e5e57610178565b8063983b2d5614610c9f5780639865027514610ce4578063a457c2d714610cee57610178565b80635c975abb14610b475780636ef8d66d14610b6957806370a0823114610b7357806382dc1ec414610bcc5780638456cb5914610c1157806395d89b4114610c1b57610178565b8063313ce56711610131578063313ce5671461072057806339509351146107445780633f4ba83a146107ab57806340c10f19146107b557806346fbf68e1461081c57806348be01c61461087957610178565b806306fdde031461017e578063095ea7b3146102025780631624f6c61461026957806318160ddd146103d757806323b872dd146103f557806331392b4a1461047c57610178565b60006000fd5b610186610ed7565b6040518080602001828103825283818151815260200191508051906020019080838360005b838110156101c75780820151818401525b6020810190506101ab565b50505050905090810190601f1680156101f45780820380516001836020036101000a031916815260200191505b509250505060405180910390f35b61024f600480360360408110156102195760006000fd5b81019080803573ffffffffffffffffffffffffffffffffffffffff16906020019092919080359060200190929190505050610f81565b604051808215151515815260200191505060405180910390f35b6103d5600480360360608110156102805760006000fd5b810190808035906020019064010000000081111561029e5760006000fd5b8201836020820111156102b15760006000fd5b803590602001918460018302840111640100000000831117156102d45760006000fd5b91908080601f016020809104026020016040519081016040528093929190818152602001838380828437600081840152601f19601f820116905080830192505050505050509090919290909192908035906020019064010000000081111561033c5760006000fd5b82018360208201111561034f5760006000fd5b803590602001918460018302840111640100000000831117156103725760006000fd5b91908080601f016020809104026020016040519081016040528093929190818152602001838380828437600081840152601f19601f82011690508083019250505050505050909091929090919290803560ff169060200190929190505050610fbf565b005b6103df61111e565b6040518082815260200191505060405180910390f35b6104626004803603606081101561040c5760006000fd5b81019080803573ffffffffffffffffffffffffffffffffffffffff169060200190929190803573ffffffffffffffffffffffffffffffffffffffff16906020019092919080359060200190929190505050611130565b604051808215151515815260200191505060405180910390f35b61071e600480360360a08110156104935760006000fd5b81019080803590602001906401000000008111156104b15760006000fd5b8201836020820111156104c45760006000fd5b803590602001918460018302840111640100000000831117156104e75760006000fd5b91908080601f016020809104026020016040519081016040528093929190818152602001838380828437600081840152601f19601f820116905080830192505050505050509090919290909192908035906020019064010000000081111561054f5760006000fd5b8201836020820111156105625760006000fd5b803590602001918460018302840111640100000000831117156105855760006000fd5b91908080601f016020809104026020016040519081016040528093929190818152602001838380828437600081840152601f19601f82011690508083019250505050505050909091929090919290803560ff169060200190929190803590602001906401000000008111156105fa5760006000fd5b82018360208201111561060d5760006000fd5b803590602001918460208302840111640100000000831117156106305760006000fd5b919080806020026020016040519081016040528093929190818152602001838360200280828437600081840152601f19601f82011690508083019250505050505050909091929090919290803590602001906401000000008111156106955760006000fd5b8201836020820111156106a85760006000fd5b803590602001918460208302840111640100000000831117156106cb5760006000fd5b919080806020026020016040519081016040528093929190818152602001838360200280828437600081840152601f19601f82011690508083019250505050505050909091929090919290505050611170565b005b610728611355565b604051808260ff1660ff16815260200191505060405180910390f35b6107916004803603604081101561075b5760006000fd5b81019080803573ffffffffffffffffffffffffffffffffffffffff16906020019092919080359060200190929190505050611371565b604051808215151515815260200191505060405180910390f35b6107b36113af565b005b610802600480360360408110156107cc5760006000fd5b81019080803573ffffffffffffffffffffffffffffffffffffffff169060200190929190803590602001909291905050506114d0565b604051808215151515815260200191505060405180910390f35b61085f600480360360208110156108335760006000fd5b81019080803573ffffffffffffffffffffffffffffffffffffffff169060200190929190505050611565565b604051808215151515815260200191505060405180910390f35b610b45600480360360e08110156108905760006000fd5b81019080803590602001906401000000008111156108ae5760006000fd5b8201836020820111156108c15760006000fd5b803590602001918460018302840111640100000000831117156108e45760006000fd5b91908080601f016020809104026020016040519081016040528093929190818152602001838380828437600081840152601f19601f820116905080830192505050505050509090919290909192908035906020019064010000000081111561094c5760006000fd5b82018360208201111561095f5760006000fd5b803590602001918460018302840111640100000000831117156109825760006000fd5b91908080601f016020809104026020016040519081016040528093929190818152602001838380828437600081840152601f19601f82011690508083019250505050505050909091929090919290803560ff16906020019092919080359060200190929190803573ffffffffffffffffffffffffffffffffffffffff16906020019092919080359060200190640100000000811115610a215760006000fd5b820183602082011115610a345760006000fd5b80359060200191846020830284011164010000000083111715610a575760006000fd5b919080806020026020016040519081016040528093929190818152602001838360200280828437600081840152601f19601f8201169050808301925050505050505090909192909091929080359060200190640100000000811115610abc5760006000fd5b820183602082011115610acf5760006000fd5b80359060200191846020830284011164010000000083111715610af25760006000fd5b919080806020026020016040519081016040528093929190818152602001838360200280828437600081840152601f19601f8201169050808301925050505050505090909192909091929050505061158b565b005b610b4f611782565b604051808215151515815260200191505060405180910390f35b610b7161179f565b005b610bb660048036036020811015610b8a5760006000fd5b81019080803573ffffffffffffffffffffffffffffffffffffffff1690602001909291905050506117be565b6040518082815260200191505060405180910390f35b610c0f60048036036020811015610be35760006000fd5b81019080803573ffffffffffffffffffffffffffffffffffffffff169060200190929190505050611812565b005b610c19611899565b005b610c236119bb565b6040518080602001828103825283818151815260200191508051906020019080838360005b83811015610c645780820151818401525b602081019050610c48565b50505050905090810190601f168015610c915780820380516001836020036101000a031916815260200191505b509250505060405180910390f35b610ce260048036036020811015610cb65760006000fd5b81019080803573ffffffffffffffffffffffffffffffffffffffff169060200190929190505050611a65565b005b610cec611aec565b005b610d3b60048036036040811015610d055760006000fd5b81019080803573ffffffffffffffffffffffffffffffffffffffff16906020019092919080359060200190929190505050611b0b565b604051808215151515815260200191505060405180910390f35b610da260048036036040811015610d6c5760006000fd5b81019080803573ffffffffffffffffffffffffffffffffffffffff16906020019092919080359060200190929190505050611b49565b604051808215151515815260200191505060405180910390f35b610dff60048036036020811015610dd35760006000fd5b81019080803573ffffffffffffffffffffffffffffffffffffffff169060200190929190505050611b87565b604051808215151515815260200191505060405180910390f35b610e5c60048036036020811015610e305760006000fd5b81019080803573ffffffffffffffffffffffffffffffffffffffff169060200190929190505050611bac565b005b610ec160048036036040811015610e755760006000fd5b81019080803573ffffffffffffffffffffffffffffffffffffffff169060200190929190803573ffffffffffffffffffffffffffffffffffffffff169060200190929190505050611cc9565b6040518082815260200191505060405180910390f35b606060336000508054600181600116156101000203166002900480601f016020809104026020016040519081016040528092919081815260200182805460018160011615610100020316600290048015610f725780601f10610f4757610100808354040283529160200191610f72565b820191906000526020600020905b815481529060010190602001808311610f5557829003601f168201915b50505050509050610f7e565b90565b600061013560009054906101000a900460ff16151515610fa15760006000fd5b610fb18383611d5e63ffffffff16565b9050610fb8565b5b92915050565b600060019054906101000a900460ff1680610fe45750610fe3611d8d63ffffffff16565b5b80610ffc5750600060009054906101000a900460ff16155b1515611053576040517f08c379a000000000000000000000000000000000000000000000000000000000815260040180806020018281038252602e815260200180612ee7602e913960400191505060405180910390fd5b6000600060019054906101000a900460ff1615905080156110a5576001600060016101000a81548160ff0219169083151502179055506001600060006101000a81548160ff0219169083151502179055505b83603360005090805190602001906110be929190612dd6565b5082603460005090805190602001906110d8929190612dd6565b5081603560006101000a81548160ff021916908360ff1602179055505b8015611117576000600060016101000a81548160ff0219169083151502179055505b505b505050565b6000606a60005054905061112d565b90565b600061013560009054906101000a900460ff161515156111505760006000fd5b611161848484611da563ffffffff16565b9050611168565b5b9392505050565b600060019054906101000a900460ff16806111955750611194611d8d63ffffffff16565b5b806111ad5750600060009054906101000a900460ff16155b1515611204576040517f08c379a000000000000000000000000000000000000000000000000000000000815260040180806020018281038252602e815260200180612ee7602e913960400191505060405180910390fd5b6000600060019054906101000a900460ff161590508015611256576001600060016101000a81548160ff0219169083151502179055506001600060006101000a81548160ff0219169083151502179055505b611267868686610fbf63ffffffff16565b61127630611e8a63ffffffff16565b61128530611fa763ffffffff16565b61129430611bac63ffffffff16565b6112a33061200563ffffffff16565b6000600090505b83518110156112e5576112d784828151811015156112c457fe5b602002602001015161206463ffffffff16565b5b80600101905080506112aa565b506000600090505b82518110156113285761131a838281518110151561130757fe5b60200260200101516120c263ffffffff16565b5b80600101905080506112ed565b505b801561134c576000600060016101000a81548160ff0219169083151502179055505b505b5050505050565b6000603560009054906101000a900460ff16905061136e565b90565b600061013560009054906101000a900460ff161515156113915760006000fd5b6113a1838361212163ffffffff16565b90506113a8565b5b92915050565b6113cb6113c06121f463ffffffff16565b61156563ffffffff16565b1515611422576040517f08c379a0000000000000000000000000000000000000000000000000000000008152600401808060200182810382526030815260200180612e876030913960400191505060405180910390fd5b61013560009054906101000a900460ff16151561143f5760006000fd5b600061013560006101000a81548160ff0219169083151502179055507f5db9ee0a495bf2e6ff9c91a7834c1ba4fdd244a5e8aa4e537bd38aeae4b073aa61148a6121f463ffffffff16565b604051808273ffffffffffffffffffffffffffffffffffffffff1673ffffffffffffffffffffffffffffffffffffffff16815260200191505060405180910390a15b5b5b565b60006114ee6114e36121f463ffffffff16565b611b8763ffffffff16565b1515611545576040517f08c379a0000000000000000000000000000000000000000000000000000000008152600401808060200182810382526030815260200180612eb76030913960400191505060405180910390fd5b611555838361220163ffffffff16565b6001905061155e565b5b92915050565b600061157f8261010260005061236f90919063ffffffff16565b9050611586565b919050565b600060019054906101000a900460ff16806115b057506115af611d8d63ffffffff16565b5b806115c85750600060009054906101000a900460ff16155b151561161f576040517f08c379a000000000000000000000000000000000000000000000000000000000815260040180806020018281038252602e815260200180612ee7602e913960400191505060405180910390fd5b6000600060019054906101000a900460ff161590508015611671576001600060016101000a81548160ff0219169083151502179055506001600060006101000a81548160ff0219169083151502179055505b611682888888610fbf63ffffffff16565b611692848661220163ffffffff16565b6116a130611e8a63ffffffff16565b6116b030611fa763ffffffff16565b6116bf30611bac63ffffffff16565b6116ce3061200563ffffffff16565b6000600090505b83518110156117105761170284828151811015156116ef57fe5b602002602001015161206463ffffffff16565b5b80600101905080506116d5565b506000600090505b825181101561175357611745838281518110151561173257fe5b60200260200101516120c263ffffffff16565b5b8060010190508050611718565b505b8015611777576000600060016101000a81548160ff0219169083151502179055505b505b50505050505050565b600061013560009054906101000a900460ff16905061179c565b90565b6117bb6117b06121f463ffffffff16565b61200563ffffffff16565b5b565b6000606860005060008373ffffffffffffffffffffffffffffffffffffffff1673ffffffffffffffffffffffffffffffffffffffff16815260200190815260200160002060005054905061180d565b919050565b61182e6118236121f463ffffffff16565b61156563ffffffff16565b1515611885576040517f08c379a0000000000000000000000000000000000000000000000000000000008152600401808060200182810382526030815260200180612e876030913960400191505060405180910390fd5b611894816120c263ffffffff16565b5b5b50565b6118b56118aa6121f463ffffffff16565b61156563ffffffff16565b151561190c576040517f08c379a0000000000000000000000000000000000000000000000000000000008152600401808060200182810382526030815260200180612e876030913960400191505060405180910390fd5b61013560009054906101000a900460ff1615151561192a5760006000fd5b600161013560006101000a81548160ff0219169083151502179055507f62e78cea01bee320cd4e420270b5ea74000d11b0c9f74754ebdbfc544b05a2586119756121f463ffffffff16565b604051808273ffffffffffffffffffffffffffffffffffffffff1673ffffffffffffffffffffffffffffffffffffffff16815260200191505060405180910390a15b5b5b565b606060346000508054600181600116156101000203166002900480601f016020809104026020016040519081016040528092919081815260200182805460018160011615610100020316600290048015611a565780601f10611a2b57610100808354040283529160200191611a56565b820191906000526020600020905b815481529060010190602001808311611a3957829003601f168201915b50505050509050611a62565b90565b611a81611a766121f463ffffffff16565b611b8763ffffffff16565b1515611ad8576040517f08c379a0000000000000000000000000000000000000000000000000000000008152600401808060200182810382526030815260200180612eb76030913960400191505060405180910390fd5b611ae78161206463ffffffff16565b5b5b50565b611b08611afd6121f463ffffffff16565b611fa763ffffffff16565b5b565b600061013560009054906101000a900460ff16151515611b2b5760006000fd5b611b3b838361240d63ffffffff16565b9050611b42565b5b92915050565b600061013560009054906101000a900460ff16151515611b695760006000fd5b611b7983836124e063ffffffff16565b9050611b80565b5b92915050565b6000611ba082609d60005061236f90919063ffffffff16565b9050611ba7565b919050565b600060019054906101000a900460ff1680611bd15750611bd0611d8d63ffffffff16565b5b80611be95750600060009054906101000a900460ff16155b1515611c40576040517f08c379a000000000000000000000000000000000000000000000000000000000815260040180806020018281038252602e815260200180612ee7602e913960400191505060405180910390fd5b6000600060019054906101000a900460ff161590508015611c92576001600060016101000a81548160ff0219169083151502179055506001600060006101000a81548160ff0219169083151502179055505b611ca18261250f63ffffffff16565b5b8015611cc4576000600060016101000a81548160ff0219169083151502179055505b505b50565b6000606960005060008473ffffffffffffffffffffffffffffffffffffffff1673ffffffffffffffffffffffffffffffffffffffff16815260200190815260200160002060005060008373ffffffffffffffffffffffffffffffffffffffff1673ffffffffffffffffffffffffffffffffffffffff168152602001908152602001600020600050549050611d58565b92915050565b6000611d7e611d716121f463ffffffff16565b848461264863ffffffff16565b60019050611d87565b92915050565b60006000303b905060008114915050611da256505b90565b6000611db88484846127b963ffffffff16565b611e7a84611dca6121f463ffffffff16565b611e6f85606960005060008a73ffffffffffffffffffffffffffffffffffffffff1673ffffffffffffffffffffffffffffffffffffffff1681526020019081526020016000206000506000611e236121f463ffffffff16565b73ffffffffffffffffffffffffffffffffffffffff1673ffffffffffffffffffffffffffffffffffffffff168152602001908152602001600020600050546129a790919063ffffffff16565b61264863ffffffff16565b60019050611e83565b9392505050565b600060019054906101000a900460ff1680611eaf5750611eae611d8d63ffffffff16565b5b80611ec75750600060009054906101000a900460ff16155b1515611f1e576040517f08c379a000000000000000000000000000000000000000000000000000000000815260040180806020018281038252602e815260200180612ee7602e913960400191505060405180910390fd5b6000600060019054906101000a900460ff161590508015611f70576001600060016101000a81548160ff0219169083151502179055506001600060006101000a81548160ff0219169083151502179055505b611f7f826129d063ffffffff16565b5b8015611fa2576000600060016101000a81548160ff0219169083151502179055505b505b50565b611fbe81609d600050612b0390919063ffffffff16565b8073ffffffffffffffffffffffffffffffffffffffff167fe94479a9f7e1952cc78f2d6baab678adc1b772d936c6583def489e524cb6669260405160405180910390a25b50565b61201d81610102600050612b0390919063ffffffff16565b8073ffffffffffffffffffffffffffffffffffffffff167fcd265ebaf09df2871cc7bd4133404a235ba12eff2041bb89d9c714a2621c7c7e60405160405180910390a25b50565b61207b81609d600050612bbe90919063ffffffff16565b8073ffffffffffffffffffffffffffffffffffffffff167f6ae172837ea30b801fbfcdd4108aa1d5bf8ff775444fd70256b44e6bf3dfc3f660405160405180910390a25b50565b6120da81610102600050612bbe90919063ffffffff16565b8073ffffffffffffffffffffffffffffffffffffffff167f6719d08c1888103bea251a4ed56406bd0c3e69723c8a1686e017e7bbe159b6f860405160405180910390a25b50565b60006121e56121346121f463ffffffff16565b846121da856069600050600061214e6121f463ffffffff16565b73ffffffffffffffffffffffffffffffffffffffff1673ffffffffffffffffffffffffffffffffffffffff16815260200190815260200160002060005060008973ffffffffffffffffffffffffffffffffffffffff1673ffffffffffffffffffffffffffffffffffffffff16815260200190815260200160002060005054612c7a90919063ffffffff16565b61264863ffffffff16565b600190506121ee565b92915050565b60003390506121fe565b90565b600073ffffffffffffffffffffffffffffffffffffffff168273ffffffffffffffffffffffffffffffffffffffff161415151561223e5760006000fd5b61225681606a60005054612c7a90919063ffffffff16565b606a6000508190909055506122b981606860005060008573ffffffffffffffffffffffffffffffffffffffff1673ffffffffffffffffffffffffffffffffffffffff16815260200190815260200160002060005054612c7a90919063ffffffff16565b606860005060008473ffffffffffffffffffffffffffffffffffffffff1673ffffffffffffffffffffffffffffffffffffffff1681526020019081526020016000206000508190909055508173ffffffffffffffffffffffffffffffffffffffff16600073ffffffffffffffffffffffffffffffffffffffff167fddf252ad1be2c89b69c2b068fc378daa952ba7f163c4a11628f55a4df523b3ef836040518082815260200191505060405180910390a35b5050565b6000600073ffffffffffffffffffffffffffffffffffffffff168273ffffffffffffffffffffffffffffffffffffffff16141515156123ae5760006000fd5b8260000160005060008373ffffffffffffffffffffffffffffffffffffffff1673ffffffffffffffffffffffffffffffffffffffff16815260200190815260200160002060009054906101000a900460ff169050612407565b92915050565b60006124d16124206121f463ffffffff16565b846124c6856069600050600061243a6121f463ffffffff16565b73ffffffffffffffffffffffffffffffffffffffff1673ffffffffffffffffffffffffffffffffffffffff16815260200190815260200160002060005060008973ffffffffffffffffffffffffffffffffffffffff1673ffffffffffffffffffffffffffffffffffffffff168152602001908152602001600020600050546129a790919063ffffffff16565b61264863ffffffff16565b600190506124da565b92915050565b60006125006124f36121f463ffffffff16565b84846127b963ffffffff16565b60019050612509565b92915050565b600060019054906101000a900460ff16806125345750612533611d8d63ffffffff16565b5b8061254c5750600060009054906101000a900460ff16155b15156125a3576040517f08c379a000000000000000000000000000000000000000000000000000000000815260040180806020018281038252602e815260200180612ee7602e913960400191505060405180910390fd5b6000600060019054906101000a900460ff1615905080156125f5576001600060016101000a81548160ff0219169083151502179055506001600060006101000a81548160ff0219169083151502179055505b61260482612ca363ffffffff16565b600061013560006101000a81548160ff0219169083151502179055505b8015612643576000600060016101000a81548160ff0219169083151502179055505b505b50565b600073ffffffffffffffffffffffffffffffffffffffff168273ffffffffffffffffffffffffffffffffffffffff16141515156126855760006000fd5b600073ffffffffffffffffffffffffffffffffffffffff168373ffffffffffffffffffffffffffffffffffffffff16141515156126c25760006000fd5b80606960005060008573ffffffffffffffffffffffffffffffffffffffff1673ffffffffffffffffffffffffffffffffffffffff16815260200190815260200160002060005060008473ffffffffffffffffffffffffffffffffffffffff1673ffffffffffffffffffffffffffffffffffffffff1681526020019081526020016000206000508190909055508173ffffffffffffffffffffffffffffffffffffffff168373ffffffffffffffffffffffffffffffffffffffff167f8c5be1e5ebec7d5bd14f71427d1e84f3dd0314c0f7b2291e5b200ac8c7c3b925836040518082815260200191505060405180910390a35b505050565b600073ffffffffffffffffffffffffffffffffffffffff168273ffffffffffffffffffffffffffffffffffffffff16141515156127f65760006000fd5b61284e81606860005060008673ffffffffffffffffffffffffffffffffffffffff1673ffffffffffffffffffffffffffffffffffffffff168152602001908152602001600020600050546129a790919063ffffffff16565b606860005060008573ffffffffffffffffffffffffffffffffffffffff1673ffffffffffffffffffffffffffffffffffffffff1681526020019081526020016000206000508190909055506128f181606860005060008573ffffffffffffffffffffffffffffffffffffffff1673ffffffffffffffffffffffffffffffffffffffff16815260200190815260200160002060005054612c7a90919063ffffffff16565b606860005060008473ffffffffffffffffffffffffffffffffffffffff1673ffffffffffffffffffffffffffffffffffffffff1681526020019081526020016000206000508190909055508173ffffffffffffffffffffffffffffffffffffffff168373ffffffffffffffffffffffffffffffffffffffff167fddf252ad1be2c89b69c2b068fc378daa952ba7f163c4a11628f55a4df523b3ef836040518082815260200191505060405180910390a35b505050565b60008282111515156129b95760006000fd5b60008284039050809150506129ca56505b92915050565b600060019054906101000a900460ff16806129f557506129f4611d8d63ffffffff16565b5b80612a0d5750600060009054906101000a900460ff16155b1515612a64576040517f08c379a000000000000000000000000000000000000000000000000000000000815260040180806020018281038252602e815260200180612ee7602e913960400191505060405180910390fd5b6000600060019054906101000a900460ff161590508015612ab6576001600060016101000a81548160ff0219169083151502179055506001600060006101000a81548160ff0219169083151502179055505b612ac582611b8763ffffffff16565b1515612adb57612ada8261206463ffffffff16565b5b5b8015612afe576000600060016101000a81548160ff0219169083151502179055505b505b50565b600073ffffffffffffffffffffffffffffffffffffffff168173ffffffffffffffffffffffffffffffffffffffff1614151515612b405760006000fd5b612b50828261236f63ffffffff16565b1515612b5c5760006000fd5b60008260000160005060008373ffffffffffffffffffffffffffffffffffffffff1673ffffffffffffffffffffffffffffffffffffffff16815260200190815260200160002060006101000a81548160ff0219169083151502179055505b5050565b600073ffffffffffffffffffffffffffffffffffffffff168173ffffffffffffffffffffffffffffffffffffffff1614151515612bfb5760006000fd5b612c0b828261236f63ffffffff16565b151515612c185760006000fd5b60018260000160005060008373ffffffffffffffffffffffffffffffffffffffff1673ffffffffffffffffffffffffffffffffffffffff16815260200190815260200160002060006101000a81548160ff0219169083151502179055505b5050565b600060008284019050838110151515612c935760006000fd5b80915050612c9d56505b92915050565b600060019054906101000a900460ff1680612cc85750612cc7611d8d63ffffffff16565b5b80612ce05750600060009054906101000a900460ff16155b1515612d37576040517f08c379a000000000000000000000000000000000000000000000000000000000815260040180806020018281038252602e815260200180612ee7602e913960400191505060405180910390fd5b6000600060019054906101000a900460ff161590508015612d89576001600060016101000a81548160ff0219169083151502179055506001600060006101000a81548160ff0219169083151502179055505b612d988261156563ffffffff16565b1515612dae57612dad826120c263ffffffff16565b5b5b8015612dd1576000600060016101000a81548160ff0219169083151502179055505b505b50565b828054600181600116156101000203166002900490600052602060002090601f016020900481019282601f10612e1757805160ff1916838001178555612e4a565b82800160010185558215612e4a579182015b82811115612e495782518260005090905591602001919060010190612e29565b5b509050612e579190612e5b565b5090565b612e839190612e65565b80821115612e7f5760008181506000905550600101612e65565b5090565b9056fe506175736572526f6c653a2063616c6c657220646f6573206e6f742068617665207468652050617573657220726f6c654d696e746572526f6c653a2063616c6c657220646f6573206e6f74206861766520746865204d696e74657220726f6c65436f6e747261637420696e7374616e63652068617320616c7265616479206265656e20696e697469616c697a6564a265627a7a72315820e01f79d12e031a328aaa4ba55a7953444329713a15874259c82501b669a3dd6864736f6c634300050b0032","compiler":{"name":"solc","version":"0.5.11+commit.c082d0b4.Emscripten.clang","optimizer":{},"evmVersion":"constantinople"}}