{
  "fileName": "TokenBorrowerFactory.sol",
  "contractName": "TokenBorrowerFactory",
  "source": "pragma solidity ^0.5.0;\n\n//import \"./Market/MarketInterface.sol\";\nimport \"../cdp/FBCDP.sol\";\nimport \"@openzeppelin/contracts-ethereum-package/contracts/token/ERC20/IERC20.sol\";\nimport \"@openzeppelin/upgrades/contracts/Initializable.sol\";\n\ncontract TokenBorrowerFactory is Initializable {\n  address wethAddress;\n  MarketInterface fbMoneyMarket;\n  IERC20 token;\n\n \n  mapping(address => FBCDP) public borrowers;\n\n\n  event createCDP(address cdpAddress);\n\n  function initialize(\n    address weth, address _token, address moneyMarket)\n    public initializer {\n    wethAddress = weth;\n    token = IERC20(_token);\n    fbMoneyMarket = MarketInterface(moneyMarket);\n  }\n\n\n  function deposit()  external payable {\n    FBCDP cdp;\n    if (address(borrowers[msg.sender]) == address(0x0)) {\n      // create borrower contract if none exists\n       cdp = new FBCDP();\n       cdp.initialize(msg.sender, address(token), wethAddress, address(fbMoneyMarket));\n       borrowers[msg.sender] = cdp;\n\n       emit createCDP(address(cdp));\n\n    } else {\n      cdp = borrowers[msg.sender];\n    }\n\n    cdp.fund.value(msg.value)();\n  }\n\n  function borrow(uint256 amount) public {\n    require(address(borrowers[msg.sender]) != address(0x0), \"you need create CDP\");\n    FBCDP cdp;\n\n    cdp = borrowers[msg.sender];\n\n    cdp.borrow(amount);\n  }\n\n  function repay(uint256 amount) public {\n    require(token.balanceOf(msg.sender)>=amount, \"amount is failed\");\n\n    FBCDP cdp = borrowers[msg.sender];\n    uint allowance = token.allowance(msg.sender, address(this));\n    uint transferAmount = amount;\n    token.transferFrom(msg.sender, address(cdp), transferAmount);\n    cdp.repay();\n  }\n\n  function withdraw(uint256 amount) public {\n    require(address(borrowers[msg.sender]) != address(0x0), \"you need create CDP\");\n    FBCDP cdp;\n\n    cdp = borrowers[msg.sender];\n    cdp.withdraw(amount);\n  }\n\n  function min(uint a, uint b) private pure returns ( uint ) {\n    if (a <= b) {\n      return a;\n    } else {\n      return b;\n    }\n  }\n\n  function getBorrowBalance(address user) view public returns (uint) {\n    return fbMoneyMarket.getBorrowBalance(address(borrowers[user]), address(token));\n  }\n\n  function getSupplyBalance(address user) view public returns (uint) {\n    return fbMoneyMarket.getSupplyBalance(address(borrowers[user]), wethAddress);\n  }\n}\n",
  "sourcePath": "contracts/borrow/TokenBorrowerFactory.sol",
  "abi": [
    {
      "constant": false,
      "inputs": [
        {
          "internalType": "uint256",
          "name": "amount",
          "type": "uint256"
        }
      ],
      "name": "withdraw",
      "outputs": [],
      "payable": false,
      "stateMutability": "nonpayable",
      "type": "function"
    },
    {
      "constant": false,
      "inputs": [
        {
          "internalType": "uint256",
          "name": "amount",
          "type": "uint256"
        }
      ],
      "name": "repay",
      "outputs": [],
      "payable": false,
      "stateMutability": "nonpayable",
      "type": "function"
    },
    {
      "constant": true,
      "inputs": [
        {
          "internalType": "address",
          "name": "user",
          "type": "address"
        }
      ],
      "name": "getBorrowBalance",
      "outputs": [
        {
          "internalType": "uint256",
          "name": "",
          "type": "uint256"
        }
      ],
      "payable": false,
      "stateMutability": "view",
      "type": "function"
    },
    {
      "constant": true,
      "inputs": [
        {
          "internalType": "address",
          "name": "",
          "type": "address"
        }
      ],
      "name": "borrowers",
      "outputs": [
        {
          "internalType": "contract FBCDP",
          "name": "",
          "type": "address"
        }
      ],
      "payable": false,
      "stateMutability": "view",
      "type": "function"
    },
    {
      "constant": false,
      "inputs": [
        {
          "internalType": "address",
          "name": "weth",
          "type": "address"
        },
        {
          "internalType": "address",
          "name": "_token",
          "type": "address"
        },
        {
          "internalType": "address",
          "name": "moneyMarket",
          "type": "address"
        }
      ],
      "name": "initialize",
      "outputs": [],
      "payable": false,
      "stateMutability": "nonpayable",
      "type": "function"
    },
    {
      "constant": false,
      "inputs": [
        {
          "internalType": "uint256",
          "name": "amount",
          "type": "uint256"
        }
      ],
      "name": "borrow",
      "outputs": [],
      "payable": false,
      "stateMutability": "nonpayable",
      "type": "function"
    },
    {
      "constant": false,
      "inputs": [],
      "name": "deposit",
      "outputs": [],
      "payable": true,
      "stateMutability": "payable",
      "type": "function"
    },
    {
      "constant": true,
      "inputs": [
        {
          "internalType": "address",
          "name": "user",
          "type": "address"
        }
      ],
      "name": "getSupplyBalance",
      "outputs": [
        {
          "internalType": "uint256",
          "name": "",
          "type": "uint256"
        }
      ],
      "payable": false,
      "stateMutability": "view",
      "type": "function"
    },
    {
      "anonymous": false,
      "inputs": [
        {
          "indexed": false,
          "internalType": "address",
          "name": "cdpAddress",
          "type": "address"
        }
      ],
      "name": "createCDP",
      "type": "event"
    }
  ],
  "bytecode": "0x60806040523480156100115760006000fd5b50610017565b612bf5806100266000396000f3fe60806040526004361061007f5760003560e01c8063c0c53b8b1161004e578063c0c53b8b146101f9578063c5ebeaec1461028c578063d0e30db0146102c9578063f38e266a146102d35761007f565b80632e1a7d4d14610085578063371fd8e6146100c25780637d6af079146100ff578063bf5d50c4146101665761007f565b60006000fd5b3480156100925760006000fd5b506100c0600480360360208110156100aa5760006000fd5b810190808035906020019092919050505061033a565b005b3480156100cf5760006000fd5b506100fd600480360360208110156100e75760006000fd5b810190808035906020019092919050505061051f565b005b34801561010c5760006000fd5b50610150600480360360208110156101245760006000fd5b81019080803573ffffffffffffffffffffffffffffffffffffffff16906020019092919050505061097c565b6040518082815260200191505060405180910390f35b3480156101735760006000fd5b506101b76004803603602081101561018b5760006000fd5b81019080803573ffffffffffffffffffffffffffffffffffffffff169060200190929190505050610b1f565b604051808273ffffffffffffffffffffffffffffffffffffffff1673ffffffffffffffffffffffffffffffffffffffff16815260200191505060405180910390f35b3480156102065760006000fd5b5061028a6004803603606081101561021e5760006000fd5b81019080803573ffffffffffffffffffffffffffffffffffffffff169060200190929190803573ffffffffffffffffffffffffffffffffffffffff169060200190929190803573ffffffffffffffffffffffffffffffffffffffff169060200190929190505050610b57565b005b3480156102995760006000fd5b506102c7600480360360208110156102b15760006000fd5b8101908080359060200190929190505050610d2a565b005b6102d1610f0f565b005b3480156102e05760006000fd5b50610324600480360360208110156102f85760006000fd5b81019080803573ffffffffffffffffffffffffffffffffffffffff169060200190929190505050611329565b6040518082815260200191505060405180910390f35b600073ffffffffffffffffffffffffffffffffffffffff16603660005060003373ffffffffffffffffffffffffffffffffffffffff1673ffffffffffffffffffffffffffffffffffffffff16815260200190815260200160002060009054906101000a900473ffffffffffffffffffffffffffffffffffffffff1673ffffffffffffffffffffffffffffffffffffffff1614151515610444576040517f08c379a00000000000000000000000000000000000000000000000000000000081526004018080602001828103825260138152602001807f796f75206e65656420637265617465204344500000000000000000000000000081526020015060200191505060405180910390fd5b6000603660005060003373ffffffffffffffffffffffffffffffffffffffff1673ffffffffffffffffffffffffffffffffffffffff16815260200190815260200160002060009054906101000a900473ffffffffffffffffffffffffffffffffffffffff16905080508073ffffffffffffffffffffffffffffffffffffffff16632e1a7d4d836040518263ffffffff1660e01b815260040180828152602001915050600060405180830381600087803b1580156105015760006000fd5b505af1158015610516573d600060003e3d6000fd5b50505050505b50565b80603560009054906101000a900473ffffffffffffffffffffffffffffffffffffffff1673ffffffffffffffffffffffffffffffffffffffff166370a08231336040518263ffffffff1660e01b8152600401808273ffffffffffffffffffffffffffffffffffffffff1673ffffffffffffffffffffffffffffffffffffffff16815260200191505060206040518083038186803b1580156105c05760006000fd5b505afa1580156105d5573d600060003e3d6000fd5b505050506040513d60208110156105ec5760006000fd5b810190808051906020019092919050505010151515610676576040517f08c379a00000000000000000000000000000000000000000000000000000000081526004018080602001828103825260108152602001807f616d6f756e74206973206661696c65640000000000000000000000000000000081526020015060200191505060405180910390fd5b6000603660005060003373ffffffffffffffffffffffffffffffffffffffff1673ffffffffffffffffffffffffffffffffffffffff16815260200190815260200160002060009054906101000a900473ffffffffffffffffffffffffffffffffffffffff1690506000603560009054906101000a900473ffffffffffffffffffffffffffffffffffffffff1673ffffffffffffffffffffffffffffffffffffffff1663dd62ed3e33306040518363ffffffff1660e01b8152600401808373ffffffffffffffffffffffffffffffffffffffff1673ffffffffffffffffffffffffffffffffffffffff1681526020018273ffffffffffffffffffffffffffffffffffffffff1673ffffffffffffffffffffffffffffffffffffffff1681526020019250505060206040518083038186803b1580156107b35760006000fd5b505afa1580156107c8573d600060003e3d6000fd5b505050506040513d60208110156107df5760006000fd5b810190808051906020019092919050505090506000839050603560009054906101000a900473ffffffffffffffffffffffffffffffffffffffff1673ffffffffffffffffffffffffffffffffffffffff166323b872dd3385846040518463ffffffff1660e01b8152600401808473ffffffffffffffffffffffffffffffffffffffff1673ffffffffffffffffffffffffffffffffffffffff1681526020018373ffffffffffffffffffffffffffffffffffffffff1673ffffffffffffffffffffffffffffffffffffffff1681526020018281526020019350505050602060405180830381600087803b1580156108d55760006000fd5b505af11580156108ea573d600060003e3d6000fd5b505050506040513d60208110156109015760006000fd5b8101908080519060200190929190505050508273ffffffffffffffffffffffffffffffffffffffff1663402d88836040518163ffffffff1660e01b8152600401600060405180830381600087803b15801561095c5760006000fd5b505af1158015610971573d600060003e3d6000fd5b505050505050505b50565b6000603460009054906101000a900473ffffffffffffffffffffffffffffffffffffffff1673ffffffffffffffffffffffffffffffffffffffff1663118e31b7603660005060008573ffffffffffffffffffffffffffffffffffffffff1673ffffffffffffffffffffffffffffffffffffffff16815260200190815260200160002060009054906101000a900473ffffffffffffffffffffffffffffffffffffffff16603560009054906101000a900473ffffffffffffffffffffffffffffffffffffffff166040518363ffffffff1660e01b8152600401808373ffffffffffffffffffffffffffffffffffffffff1673ffffffffffffffffffffffffffffffffffffffff1681526020018273ffffffffffffffffffffffffffffffffffffffff1673ffffffffffffffffffffffffffffffffffffffff1681526020019250505060206040518083038186803b158015610ad65760006000fd5b505afa158015610aeb573d600060003e3d6000fd5b505050506040513d6020811015610b025760006000fd5b81019080805190602001909291905050509050610b1a565b919050565b603660005060205280600052604060002060009150909054906101000a900473ffffffffffffffffffffffffffffffffffffffff1681565b600060019054906101000a900460ff1680610b7c5750610b7b6114cc63ffffffff16565b5b80610b945750600060009054906101000a900460ff16155b1515610beb576040517f08c379a000000000000000000000000000000000000000000000000000000000815260040180806020018281038252602e815260200180612b93602e913960400191505060405180910390fd5b6000600060019054906101000a900460ff161590508015610c3d576001600060016101000a81548160ff0219169083151502179055506001600060006101000a81548160ff0219169083151502179055505b83603360006101000a81548173ffffffffffffffffffffffffffffffffffffffff021916908373ffffffffffffffffffffffffffffffffffffffff16021790555082603560006101000a81548173ffffffffffffffffffffffffffffffffffffffff021916908373ffffffffffffffffffffffffffffffffffffffff16021790555081603460006101000a81548173ffffffffffffffffffffffffffffffffffffffff021916908373ffffffffffffffffffffffffffffffffffffffff1602179055505b8015610d23576000600060016101000a81548160ff0219169083151502179055505b505b505050565b600073ffffffffffffffffffffffffffffffffffffffff16603660005060003373ffffffffffffffffffffffffffffffffffffffff1673ffffffffffffffffffffffffffffffffffffffff16815260200190815260200160002060009054906101000a900473ffffffffffffffffffffffffffffffffffffffff1673ffffffffffffffffffffffffffffffffffffffff1614151515610e34576040517f08c379a00000000000000000000000000000000000000000000000000000000081526004018080602001828103825260138152602001807f796f75206e65656420637265617465204344500000000000000000000000000081526020015060200191505060405180910390fd5b6000603660005060003373ffffffffffffffffffffffffffffffffffffffff1673ffffffffffffffffffffffffffffffffffffffff16815260200190815260200160002060009054906101000a900473ffffffffffffffffffffffffffffffffffffffff16905080508073ffffffffffffffffffffffffffffffffffffffff1663c5ebeaec836040518263ffffffff1660e01b815260040180828152602001915050600060405180830381600087803b158015610ef15760006000fd5b505af1158015610f06573d600060003e3d6000fd5b50505050505b50565b6000600073ffffffffffffffffffffffffffffffffffffffff16603660005060003373ffffffffffffffffffffffffffffffffffffffff1673ffffffffffffffffffffffffffffffffffffffff16815260200190815260200160002060009054906101000a900473ffffffffffffffffffffffffffffffffffffffff1673ffffffffffffffffffffffffffffffffffffffff16141561125a57604051610fb4906114e4565b604051809103906000f080158015610fd1573d600060003e3d6000fd5b50905080508073ffffffffffffffffffffffffffffffffffffffff1663f8c8765e33603560009054906101000a900473ffffffffffffffffffffffffffffffffffffffff16603360009054906101000a900473ffffffffffffffffffffffffffffffffffffffff16603460009054906101000a900473ffffffffffffffffffffffffffffffffffffffff166040518563ffffffff1660e01b8152600401808573ffffffffffffffffffffffffffffffffffffffff1673ffffffffffffffffffffffffffffffffffffffff1681526020018473ffffffffffffffffffffffffffffffffffffffff1673ffffffffffffffffffffffffffffffffffffffff1681526020018373ffffffffffffffffffffffffffffffffffffffff1673ffffffffffffffffffffffffffffffffffffffff1681526020018273ffffffffffffffffffffffffffffffffffffffff1673ffffffffffffffffffffffffffffffffffffffff168152602001945050505050600060405180830381600087803b1580156111585760006000fd5b505af115801561116d573d600060003e3d6000fd5b5050505080603660005060003373ffffffffffffffffffffffffffffffffffffffff1673ffffffffffffffffffffffffffffffffffffffff16815260200190815260200160002060006101000a81548173ffffffffffffffffffffffffffffffffffffffff021916908373ffffffffffffffffffffffffffffffffffffffff1602179055507ff72a1fc2ea4a117c013d4a1368b574ae5273ee1872fd78da8c6cbb9f6ceb101381604051808273ffffffffffffffffffffffffffffffffffffffff1673ffffffffffffffffffffffffffffffffffffffff16815260200191505060405180910390a16112c2565b603660005060003373ffffffffffffffffffffffffffffffffffffffff1673ffffffffffffffffffffffffffffffffffffffff16815260200190815260200160002060009054906101000a900473ffffffffffffffffffffffffffffffffffffffff16905080505b8073ffffffffffffffffffffffffffffffffffffffff1663b60d4288346040518263ffffffff1660e01b81526004016000604051808303818588803b15801561130b5760006000fd5b505af1158015611320573d600060003e3d6000fd5b5050505050505b565b6000603460009054906101000a900473ffffffffffffffffffffffffffffffffffffffff1673ffffffffffffffffffffffffffffffffffffffff1663ba377731603660005060008573ffffffffffffffffffffffffffffffffffffffff1673ffffffffffffffffffffffffffffffffffffffff16815260200190815260200160002060009054906101000a900473ffffffffffffffffffffffffffffffffffffffff16603360009054906101000a900473ffffffffffffffffffffffffffffffffffffffff166040518363ffffffff1660e01b8152600401808373ffffffffffffffffffffffffffffffffffffffff1673ffffffffffffffffffffffffffffffffffffffff1681526020018273ffffffffffffffffffffffffffffffffffffffff1673ffffffffffffffffffffffffffffffffffffffff1681526020019250505060206040518083038186803b1580156114835760006000fd5b505afa158015611498573d600060003e3d6000fd5b505050506040513d60208110156114af5760006000fd5b810190808051906020019092919050505090506114c7565b919050565b60006000303b9050600081149150506114e156505b90565b6116a1806114f28339019056fe60806040523480156100115760006000fd5b50610017565b61167b806100266000396000f3fe60806040526004361061004e5760003560e01c80632e1a7d4d14610052578063402d88831461008f578063b60d4288146100a7578063c5ebeaec146100b1578063f8c8765e146100ee5761004e565b5b5b005b34801561005f5760006000fd5b5061008d600480360360208110156100775760006000fd5b81019080803590602001909291905050506101a1565b005b34801561009c5760006000fd5b506100a56108f2565b005b6100af610aff565b005b3480156100be5760006000fd5b506100ec600480360360208110156100d65760006000fd5b8101908080359060200190929190505050610d71565b005b3480156100fb5760006000fd5b5061019f600480360360808110156101135760006000fd5b81019080803573ffffffffffffffffffffffffffffffffffffffff169060200190929190803573ffffffffffffffffffffffffffffffffffffffff169060200190929190803573ffffffffffffffffffffffffffffffffffffffff169060200190929190803573ffffffffffffffffffffffffffffffffffffffff169060200190929190505050611178565b005b60006000603760009054906101000a900473ffffffffffffffffffffffffffffffffffffffff1673ffffffffffffffffffffffffffffffffffffffff1663118e31b730603660009054906101000a900473ffffffffffffffffffffffffffffffffffffffff166040518363ffffffff1660e01b8152600401808373ffffffffffffffffffffffffffffffffffffffff1673ffffffffffffffffffffffffffffffffffffffff1681526020018273ffffffffffffffffffffffffffffffffffffffff1673ffffffffffffffffffffffffffffffffffffffff1681526020019250505060206040518083038186803b15801561029b5760006000fd5b505afa1580156102b0573d600060003e3d6000fd5b505050506040513d60208110156102c75760006000fd5b810190808051906020019092919050505090506000603760009054906101000a900473ffffffffffffffffffffffffffffffffffffffff1673ffffffffffffffffffffffffffffffffffffffff1663ba37773130603560009054906101000a900473ffffffffffffffffffffffffffffffffffffffff166040518363ffffffff1660e01b8152600401808373ffffffffffffffffffffffffffffffffffffffff1673ffffffffffffffffffffffffffffffffffffffff1681526020018273ffffffffffffffffffffffffffffffffffffffff1673ffffffffffffffffffffffffffffffffffffffff1681526020019250505060206040518083038186803b1580156103d25760006000fd5b505afa1580156103e7573d600060003e3d6000fd5b505050506040513d60208110156103fe5760006000fd5b810190808051906020019092919050505090506000821415610444577fffffffffffffffffffffffffffffffffffffffffffffffffffffffffffffffff9250825061056c565b603760009054906101000a900473ffffffffffffffffffffffffffffffffffffffff1673ffffffffffffffffffffffffffffffffffffffff1663ff186b2e6040518163ffffffff1660e01b815260040160206040518083038186803b1580156104ad5760006000fd5b505afa1580156104c2573d600060003e3d6000fd5b505050506040513d60208110156104d95760006000fd5b810190808051906020019092919050505081028411151515610566576040517f08c379a000000000000000000000000000000000000000000000000000000000815260040180806020018281038252600d8152602001807f657468206973206c6f636b65640000000000000000000000000000000000000081526020015060200191505060405180910390fd5b83925082505b6000603760009054906101000a900473ffffffffffffffffffffffffffffffffffffffff1673ffffffffffffffffffffffffffffffffffffffff1663f3fef3a3603560009054906101000a900473ffffffffffffffffffffffffffffffffffffffff16866040518363ffffffff1660e01b8152600401808373ffffffffffffffffffffffffffffffffffffffff1673ffffffffffffffffffffffffffffffffffffffff16815260200182815260200192505050602060405180830381600087803b15801561063a5760006000fd5b505af115801561064f573d600060003e3d6000fd5b505050506040513d60208110156106665760006000fd5b81019080805190602001909291905050509050600115158115151415156106f8576040517f08c379a00000000000000000000000000000000000000000000000000000000081526004018080602001828103825260118152602001807f7769746864726177616c206661696c656400000000000000000000000000000081526020015060200191505060405180910390fd5b6000603560009054906101000a900473ffffffffffffffffffffffffffffffffffffffff1673ffffffffffffffffffffffffffffffffffffffff166370a08231306040518263ffffffff1660e01b8152600401808273ffffffffffffffffffffffffffffffffffffffff1673ffffffffffffffffffffffffffffffffffffffff16815260200191505060206040518083038186803b15801561079a5760006000fd5b505afa1580156107af573d600060003e3d6000fd5b505050506040513d60208110156107c65760006000fd5b81019080805190602001909291905050509050603560009054906101000a900473ffffffffffffffffffffffffffffffffffffffff1673ffffffffffffffffffffffffffffffffffffffff16632e1a7d4d826040518263ffffffff1660e01b815260040180828152602001915050600060405180830381600087803b15801561084f5760006000fd5b505af1158015610864573d600060003e3d6000fd5b50505050603460009054906101000a900473ffffffffffffffffffffffffffffffffffffffff1673ffffffffffffffffffffffffffffffffffffffff166108fc3073ffffffffffffffffffffffffffffffffffffffff16319081150290604051600060405180830381858888f193505050501580156108e8573d600060003e3d6000fd5b5050505050505b50565b3373ffffffffffffffffffffffffffffffffffffffff16603360009054906101000a900473ffffffffffffffffffffffffffffffffffffffff1673ffffffffffffffffffffffffffffffffffffffff1614151561094f5760006000fd5b6000603760009054906101000a900473ffffffffffffffffffffffffffffffffffffffff1673ffffffffffffffffffffffffffffffffffffffff1663abdb5ea8603660009054906101000a900473ffffffffffffffffffffffffffffffffffffffff167fffffffffffffffffffffffffffffffffffffffffffffffffffffffffffffffff6040518363ffffffff1660e01b8152600401808373ffffffffffffffffffffffffffffffffffffffff1673ffffffffffffffffffffffffffffffffffffffff16815260200182815260200192505050602060405180830381600087803b158015610a3d5760006000fd5b505af1158015610a52573d600060003e3d6000fd5b505050506040513d6020811015610a695760006000fd5b8101908080519060200190929190505050905060011515811515141515610afb576040517f08c379a000000000000000000000000000000000000000000000000000000000815260040180806020018281038252600c8152602001807f7265706179206661696c6564000000000000000000000000000000000000000081526020015060200191505060405180910390fd5b505b565b3373ffffffffffffffffffffffffffffffffffffffff16603360009054906101000a900473ffffffffffffffffffffffffffffffffffffffff1673ffffffffffffffffffffffffffffffffffffffff16141515610b5c5760006000fd5b603560009054906101000a900473ffffffffffffffffffffffffffffffffffffffff1673ffffffffffffffffffffffffffffffffffffffff1663d0e30db0346040518263ffffffff1660e01b81526004016000604051808303818588803b158015610bc75760006000fd5b505af1158015610bdc573d600060003e3d6000fd5b50505050506000603760009054906101000a900473ffffffffffffffffffffffffffffffffffffffff1673ffffffffffffffffffffffffffffffffffffffff1663f2b9fdb8603560009054906101000a900473ffffffffffffffffffffffffffffffffffffffff16346040518363ffffffff1660e01b8152600401808373ffffffffffffffffffffffffffffffffffffffff1673ffffffffffffffffffffffffffffffffffffffff16815260200182815260200192505050602060405180830381600087803b158015610caf5760006000fd5b505af1158015610cc4573d600060003e3d6000fd5b505050506040513d6020811015610cdb5760006000fd5b8101908080519060200190929190505050905060011515811515141515610d6d576040517f08c379a000000000000000000000000000000000000000000000000000000000815260040180806020018281038252600d8152602001807f737570706c79206661696c65640000000000000000000000000000000000000081526020015060200191505060405180910390fd5b505b565b6000603760009054906101000a900473ffffffffffffffffffffffffffffffffffffffff1673ffffffffffffffffffffffffffffffffffffffff1663afef7efd30603660009054906101000a900473ffffffffffffffffffffffffffffffffffffffff16603560009054906101000a900473ffffffffffffffffffffffffffffffffffffffff16866040518563ffffffff1660e01b8152600401808573ffffffffffffffffffffffffffffffffffffffff1673ffffffffffffffffffffffffffffffffffffffff1681526020018473ffffffffffffffffffffffffffffffffffffffff1673ffffffffffffffffffffffffffffffffffffffff1681526020018373ffffffffffffffffffffffffffffffffffffffff1673ffffffffffffffffffffffffffffffffffffffff168152602001828152602001945050505050602060405180830381600087803b158015610ec95760006000fd5b505af1158015610ede573d600060003e3d6000fd5b505050506040513d6020811015610ef55760006000fd5b8101908080519060200190929190505050905060011515811515141515610f87576040517f08c379a000000000000000000000000000000000000000000000000000000000815260040180806020018281038252600d8152602001807f626f72726f77206661696c65640000000000000000000000000000000000000081526020015060200191505060405180910390fd5b6000603660009054906101000a900473ffffffffffffffffffffffffffffffffffffffff1673ffffffffffffffffffffffffffffffffffffffff166370a08231306040518263ffffffff1660e01b8152600401808273ffffffffffffffffffffffffffffffffffffffff1673ffffffffffffffffffffffffffffffffffffffff16815260200191505060206040518083038186803b1580156110295760006000fd5b505afa15801561103e573d600060003e3d6000fd5b505050506040513d60208110156110555760006000fd5b81019080805190602001909291905050509050603660009054906101000a900473ffffffffffffffffffffffffffffffffffffffff1673ffffffffffffffffffffffffffffffffffffffff1663a9059cbb603460009054906101000a900473ffffffffffffffffffffffffffffffffffffffff16836040518363ffffffff1660e01b8152600401808373ffffffffffffffffffffffffffffffffffffffff1673ffffffffffffffffffffffffffffffffffffffff16815260200182815260200192505050602060405180830381600087803b1580156111345760006000fd5b505af1158015611149573d600060003e3d6000fd5b505050506040513d60208110156111605760006000fd5b81019080805190602001909291905050505050505b50565b600060019054906101000a900460ff168061119d575061119c61160063ffffffff16565b5b806111b55750600060009054906101000a900460ff16155b151561120c576040517f08c379a000000000000000000000000000000000000000000000000000000000815260040180806020018281038252602e815260200180611619602e913960400191505060405180910390fd5b6000600060019054906101000a900460ff16159050801561125e576001600060016101000a81548160ff0219169083151502179055506001600060006101000a81548160ff0219169083151502179055505b33603360006101000a81548173ffffffffffffffffffffffffffffffffffffffff021916908373ffffffffffffffffffffffffffffffffffffffff16021790555084603460006101000a81548173ffffffffffffffffffffffffffffffffffffffff021916908373ffffffffffffffffffffffffffffffffffffffff16021790555083603660006101000a81548173ffffffffffffffffffffffffffffffffffffffff021916908373ffffffffffffffffffffffffffffffffffffffff16021790555081603760006101000a81548173ffffffffffffffffffffffffffffffffffffffff021916908373ffffffffffffffffffffffffffffffffffffffff16021790555082603560006101000a81548173ffffffffffffffffffffffffffffffffffffffff021916908373ffffffffffffffffffffffffffffffffffffffff160217905550603560009054906101000a900473ffffffffffffffffffffffffffffffffffffffff1673ffffffffffffffffffffffffffffffffffffffff1663095ea7b3837fffffffffffffffffffffffffffffffffffffffffffffffffffffffffffffffff6040518363ffffffff1660e01b8152600401808373ffffffffffffffffffffffffffffffffffffffff1673ffffffffffffffffffffffffffffffffffffffff16815260200182815260200192505050602060405180830381600087803b15801561146d5760006000fd5b505af1158015611482573d600060003e3d6000fd5b505050506040513d60208110156114995760006000fd5b810190808051906020019092919050505050603660009054906101000a900473ffffffffffffffffffffffffffffffffffffffff1673ffffffffffffffffffffffffffffffffffffffff1663095ea7b3603760009054906101000a900473ffffffffffffffffffffffffffffffffffffffff167fffffffffffffffffffffffffffffffffffffffffffffffffffffffffffffffff6040518363ffffffff1660e01b8152600401808373ffffffffffffffffffffffffffffffffffffffff1673ffffffffffffffffffffffffffffffffffffffff16815260200182815260200192505050602060405180830381600087803b1580156115975760006000fd5b505af11580156115ac573d600060003e3d6000fd5b505050506040513d60208110156115c35760006000fd5b8101908080519060200190929190505050505b80156115f8576000600060016101000a81548160ff0219169083151502179055505b505b50505050565b60006000303b90506000811491505061161556505b9056fe436f6e747261637420696e7374616e63652068617320616c7265616479206265656e20696e697469616c697a6564a265627a7a72315820edbec867f0f5a33a450b8756058c40e4fce71bd9b042bd295749251a6634650964736f6c634300050b0032436f6e747261637420696e7374616e63652068617320616c7265616479206265656e20696e697469616c697a6564a265627a7a72315820e2b423766067bd65852a8ec66d240a2305ab0d9fba3787c37b003590e610670e64736f6c634300050b0032",
  "compiler": {
    "name": "solc",
    "version": "0.5.11+commit.c082d0b4.Emscripten.clang",
    "optimizer": {},
    "evmVersion": "constantinople"
  }
}