{"fileName":"Weth.sol","contractName":"Weth","source":"pragma solidity ^0.5.0;\n\nimport \"@openzeppelin/upgrades/contracts/Initializable.sol\";\nimport \"@openzeppelin/contracts-ethereum-package/contracts/token/ERC20/ERC20Detailed.sol\";\nimport \"./ERC20Mock.sol\";\n\n\ncontract Weth is Initializable, ERC20Mock, ERC20Detailed {\n    \n    function initialize(string memory name, string memory symbol, uint8 decimals) public initializer {\n       ERC20Detailed.initialize(name, symbol, decimals);\n    } \n\n   /**\n    * @dev Send ether to get tokens\n  */\n  function deposit() public payable {\n    _balances[msg.sender] += msg.value;\n    _totalSupply += msg.value;\n    emit Transfer(address(this), msg.sender, msg.value);\n  }\n\n  /**\n    * @dev Withdraw tokens as ether\n    */\n  function withdraw(uint amount) public {\n      require(_balances[msg.sender] >= amount);\n      _balances[msg.sender] -= amount;\n      _totalSupply -= amount;\n      require(msg.sender.send(amount));\n      emit Transfer(msg.sender, address(this), amount);\n  }\n}\n","sourcePath":"contracts/Mock/Weth.sol","abi":[{"constant":true,"inputs":[],"name":"name","outputs":[{"internalType":"string","name":"","type":"string"}],"payable":false,"stateMutability":"view","type":"function"},{"constant":false,"inputs":[{"internalType":"address","name":"spender","type":"address"},{"internalType":"uint256","name":"value","type":"uint256"}],"name":"approve","outputs":[{"internalType":"bool","name":"","type":"bool"}],"payable":false,"stateMutability":"nonpayable","type":"function"},{"constant":false,"inputs":[{"internalType":"string","name":"name","type":"string"},{"internalType":"string","name":"symbol","type":"string"},{"internalType":"uint8","name":"decimals","type":"uint8"}],"name":"initialize","outputs":[],"payable":false,"stateMutability":"nonpayable","type":"function"},{"constant":true,"inputs":[],"name":"totalSupply","outputs":[{"internalType":"uint256","name":"","type":"uint256"}],"payable":false,"stateMutability":"view","type":"function"},{"constant":false,"inputs":[{"internalType":"address","name":"from","type":"address"},{"internalType":"address","name":"to","type":"address"},{"internalType":"uint256","name":"value","type":"uint256"}],"name":"transferFrom","outputs":[{"internalType":"bool","name":"","type":"bool"}],"payable":false,"stateMutability":"nonpayable","type":"function"},{"constant":false,"inputs":[{"internalType":"uint256","name":"amount","type":"uint256"}],"name":"withdraw","outputs":[],"payable":false,"stateMutability":"nonpayable","type":"function"},{"constant":true,"inputs":[],"name":"decimals","outputs":[{"internalType":"uint8","name":"","type":"uint8"}],"payable":false,"stateMutability":"view","type":"function"},{"constant":false,"inputs":[{"internalType":"address","name":"spender","type":"address"},{"internalType":"uint256","name":"addedValue","type":"uint256"}],"name":"increaseAllowance","outputs":[{"internalType":"bool","name":"","type":"bool"}],"payable":false,"stateMutability":"nonpayable","type":"function"},{"constant":true,"inputs":[{"internalType":"address","name":"owner","type":"address"}],"name":"balanceOf","outputs":[{"internalType":"uint256","name":"","type":"uint256"}],"payable":false,"stateMutability":"view","type":"function"},{"constant":true,"inputs":[],"name":"symbol","outputs":[{"internalType":"string","name":"","type":"string"}],"payable":false,"stateMutability":"view","type":"function"},{"constant":false,"inputs":[{"internalType":"address","name":"spender","type":"address"},{"internalType":"uint256","name":"subtractedValue","type":"uint256"}],"name":"decreaseAllowance","outputs":[{"internalType":"bool","name":"","type":"bool"}],"payable":false,"stateMutability":"nonpayable","type":"function"},{"constant":false,"inputs":[{"internalType":"address","name":"to","type":"address"},{"internalType":"uint256","name":"value","type":"uint256"}],"name":"transfer","outputs":[{"internalType":"bool","name":"","type":"bool"}],"payable":false,"stateMutability":"nonpayable","type":"function"},{"constant":false,"inputs":[],"name":"deposit","outputs":[],"payable":true,"stateMutability":"payable","type":"function"},{"constant":true,"inputs":[{"internalType":"address","name":"owner","type":"address"},{"internalType":"address","name":"spender","type":"address"}],"name":"allowance","outputs":[{"internalType":"uint256","name":"","type":"uint256"}],"payable":false,"stateMutability":"view","type":"function"},{"anonymous":false,"inputs":[{"indexed":true,"internalType":"address","name":"from","type":"address"},{"indexed":true,"internalType":"address","name":"to","type":"address"},{"indexed":false,"internalType":"uint256","name":"value","type":"uint256"}],"name":"Transfer","type":"event"},{"anonymous":false,"inputs":[{"indexed":true,"internalType":"address","name":"owner","type":"address"},{"indexed":true,"internalType":"address","name":"spender","type":"address"},{"indexed":false,"internalType":"uint256","name":"value","type":"uint256"}],"name":"Approval","type":"event"}],"bytecode":"0x60806040525b5b61000b565b6116778061001a6000396000f3fe6080604052600436106100e15760003560e01c8063395093511161007f578063a457c2d711610059578063a457c2d714610608578063a9059cbb1461067d578063d0e30db0146106f2578063dd62ed3e146106fc576100e1565b8063395093511461049a57806370a082311461050f57806395d89b4114610576576100e1565b806318160ddd116100bb57806318160ddd1461036a57806323b872dd146103965780632e1a7d4d1461042b578063313ce56714610468576100e1565b806306fdde03146100e7578063095ea7b3146101795780631624f6c6146101ee576100e1565b60006000fd5b3480156100f45760006000fd5b506100fd610783565b6040518080602001828103825283818151815260200191508051906020019080838360005b8381101561013e5780820151818401525b602081019050610122565b50505050905090810190601f16801561016b5780820380516001836020036101000a031916815260200191505b509250505060405180910390f35b3480156101865760006000fd5b506101d46004803603604081101561019e5760006000fd5b81019080803573ffffffffffffffffffffffffffffffffffffffff1690602001909291908035906020019092919050505061082d565b604051808215151515815260200191505060405180910390f35b3480156101fb5760006000fd5b50610368600480360360608110156102135760006000fd5b81019080803590602001906401000000008111156102315760006000fd5b8201836020820111156102445760006000fd5b803590602001918460018302840111640100000000831117156102675760006000fd5b91908080601f016020809104026020016040519081016040528093929190818152602001838380828437600081840152601f19601f82011690508083019250505050505050909091929090919290803590602001906401000000008111156102cf5760006000fd5b8201836020820111156102e25760006000fd5b803590602001918460018302840111640100000000831117156103055760006000fd5b91908080601f016020809104026020016040519081016040528093929190818152602001838380828437600081840152601f19601f82011690508083019250505050505050909091929090919290803560ff16906020019092919050505061085c565b005b3480156103775760006000fd5b5061038061097d565b6040518082815260200191505060405180910390f35b3480156103a35760006000fd5b50610411600480360360608110156103bb5760006000fd5b81019080803573ffffffffffffffffffffffffffffffffffffffff169060200190929190803573ffffffffffffffffffffffffffffffffffffffff1690602001909291908035906020019092919050505061098f565b604051808215151515815260200191505060405180910390f35b3480156104385760006000fd5b50610466600480360360208110156104505760006000fd5b8101908080359060200190929190505050610a74565b005b3480156104755760006000fd5b5061047e610bdb565b604051808260ff1660ff16815260200191505060405180910390f35b3480156104a75760006000fd5b506104f5600480360360408110156104bf5760006000fd5b81019080803573ffffffffffffffffffffffffffffffffffffffff16906020019092919080359060200190929190505050610bf7565b604051808215151515815260200191505060405180910390f35b34801561051c5760006000fd5b50610560600480360360208110156105345760006000fd5b81019080803573ffffffffffffffffffffffffffffffffffffffff169060200190929190505050610cca565b6040518082815260200191505060405180910390f35b3480156105835760006000fd5b5061058c610d1e565b6040518080602001828103825283818151815260200191508051906020019080838360005b838110156105cd5780820151818401525b6020810190506105b1565b50505050905090810190601f1680156105fa5780820380516001836020036101000a031916815260200191505b509250505060405180910390f35b3480156106155760006000fd5b506106636004803603604081101561062d5760006000fd5b81019080803573ffffffffffffffffffffffffffffffffffffffff16906020019092919080359060200190929190505050610dc8565b604051808215151515815260200191505060405180910390f35b34801561068a5760006000fd5b506106d8600480360360408110156106a25760006000fd5b81019080803573ffffffffffffffffffffffffffffffffffffffff16906020019092919080359060200190929190505050610e9b565b604051808215151515815260200191505060405180910390f35b6106fa610eca565b005b3480156107095760006000fd5b5061076d600480360360408110156107215760006000fd5b81019080803573ffffffffffffffffffffffffffffffffffffffff169060200190929190803573ffffffffffffffffffffffffffffffffffffffff169060200190929190505050610f9a565b6040518082815260200191505060405180910390f35b606060686000508054600181600116156101000203166002900480601f01602080910402602001604051908101604052809291908181526020018280546001816001161561010002031660029004801561081e5780601f106107f35761010080835404028352916020019161081e565b820191906000526020600020905b81548152906001019060200180831161080157829003601f168201915b5050505050905061082a565b90565b600061084d61084061102f63ffffffff16565b848461103c63ffffffff16565b60019050610856565b92915050565b600060019054906101000a900460ff168061088157506108806111ad63ffffffff16565b5b806108995750600060009054906101000a900460ff16155b15156108f0576040517f08c379a000000000000000000000000000000000000000000000000000000000815260040180806020018281038252602e815260200180611615602e913960400191505060405180910390fd5b6000600060019054906101000a900460ff161590508015610942576001600060016101000a81548160ff0219169083151502179055506001600060006101000a81548160ff0219169083151502179055505b6109538484846111c563ffffffff16565b5b8015610976576000600060016101000a81548160ff0219169083151502179055505b505b505050565b6000603560005054905061098c565b90565b60006109a284848461132463ffffffff16565b610a64846109b461102f63ffffffff16565b610a5985603460005060008a73ffffffffffffffffffffffffffffffffffffffff1673ffffffffffffffffffffffffffffffffffffffff1681526020019081526020016000206000506000610a0d61102f63ffffffff16565b73ffffffffffffffffffffffffffffffffffffffff1673ffffffffffffffffffffffffffffffffffffffff1681526020019081526020016000206000505461151290919063ffffffff16565b61103c63ffffffff16565b60019050610a6d565b9392505050565b80603360005060003373ffffffffffffffffffffffffffffffffffffffff1673ffffffffffffffffffffffffffffffffffffffff1681526020019081526020016000206000505410151515610ac95760006000fd5b80603360005060003373ffffffffffffffffffffffffffffffffffffffff1673ffffffffffffffffffffffffffffffffffffffff168152602001908152602001600020600082828250540392505081909090555080603560008282825054039250508190909055503373ffffffffffffffffffffffffffffffffffffffff166108fc829081150290604051600060405180830381858888f193505050501515610b725760006000fd5b3073ffffffffffffffffffffffffffffffffffffffff163373ffffffffffffffffffffffffffffffffffffffff167fddf252ad1be2c89b69c2b068fc378daa952ba7f163c4a11628f55a4df523b3ef836040518082815260200191505060405180910390a35b50565b6000606a60009054906101000a900460ff169050610bf4565b90565b6000610cbb610c0a61102f63ffffffff16565b84610cb08560346000506000610c2461102f63ffffffff16565b73ffffffffffffffffffffffffffffffffffffffff1673ffffffffffffffffffffffffffffffffffffffff16815260200190815260200160002060005060008973ffffffffffffffffffffffffffffffffffffffff1673ffffffffffffffffffffffffffffffffffffffff1681526020019081526020016000206000505461153b90919063ffffffff16565b61103c63ffffffff16565b60019050610cc4565b92915050565b6000603360005060008373ffffffffffffffffffffffffffffffffffffffff1673ffffffffffffffffffffffffffffffffffffffff168152602001908152602001600020600050549050610d19565b919050565b606060696000508054600181600116156101000203166002900480601f016020809104026020016040519081016040528092919081815260200182805460018160011615610100020316600290048015610db95780601f10610d8e57610100808354040283529160200191610db9565b820191906000526020600020905b815481529060010190602001808311610d9c57829003601f168201915b50505050509050610dc5565b90565b6000610e8c610ddb61102f63ffffffff16565b84610e818560346000506000610df561102f63ffffffff16565b73ffffffffffffffffffffffffffffffffffffffff1673ffffffffffffffffffffffffffffffffffffffff16815260200190815260200160002060005060008973ffffffffffffffffffffffffffffffffffffffff1673ffffffffffffffffffffffffffffffffffffffff1681526020019081526020016000206000505461151290919063ffffffff16565b61103c63ffffffff16565b60019050610e95565b92915050565b6000610ebb610eae61102f63ffffffff16565b848461132463ffffffff16565b60019050610ec4565b92915050565b34603360005060003373ffffffffffffffffffffffffffffffffffffffff1673ffffffffffffffffffffffffffffffffffffffff168152602001908152602001600020600082828250540192505081909090555034603560008282825054019250508190909055503373ffffffffffffffffffffffffffffffffffffffff163073ffffffffffffffffffffffffffffffffffffffff167fddf252ad1be2c89b69c2b068fc378daa952ba7f163c4a11628f55a4df523b3ef346040518082815260200191505060405180910390a35b565b6000603460005060008473ffffffffffffffffffffffffffffffffffffffff1673ffffffffffffffffffffffffffffffffffffffff16815260200190815260200160002060005060008373ffffffffffffffffffffffffffffffffffffffff1673ffffffffffffffffffffffffffffffffffffffff168152602001908152602001600020600050549050611029565b92915050565b6000339050611039565b90565b600073ffffffffffffffffffffffffffffffffffffffff168273ffffffffffffffffffffffffffffffffffffffff16141515156110795760006000fd5b600073ffffffffffffffffffffffffffffffffffffffff168373ffffffffffffffffffffffffffffffffffffffff16141515156110b65760006000fd5b80603460005060008573ffffffffffffffffffffffffffffffffffffffff1673ffffffffffffffffffffffffffffffffffffffff16815260200190815260200160002060005060008473ffffffffffffffffffffffffffffffffffffffff1673ffffffffffffffffffffffffffffffffffffffff1681526020019081526020016000206000508190909055508173ffffffffffffffffffffffffffffffffffffffff168373ffffffffffffffffffffffffffffffffffffffff167f8c5be1e5ebec7d5bd14f71427d1e84f3dd0314c0f7b2291e5b200ac8c7c3b925836040518082815260200191505060405180910390a35b505050565b60006000303b9050600081149150506111c256505b90565b600060019054906101000a900460ff16806111ea57506111e96111ad63ffffffff16565b5b806112025750600060009054906101000a900460ff16155b1515611259576040517f08c379a000000000000000000000000000000000000000000000000000000000815260040180806020018281038252602e815260200180611615602e913960400191505060405180910390fd5b6000600060019054906101000a900460ff1615905080156112ab576001600060016101000a81548160ff0219169083151502179055506001600060006101000a81548160ff0219169083151502179055505b83606860005090805190602001906112c4929190611564565b5082606960005090805190602001906112de929190611564565b5081606a60006101000a81548160ff021916908360ff1602179055505b801561131d576000600060016101000a81548160ff0219169083151502179055505b505b505050565b600073ffffffffffffffffffffffffffffffffffffffff168273ffffffffffffffffffffffffffffffffffffffff16141515156113615760006000fd5b6113b981603360005060008673ffffffffffffffffffffffffffffffffffffffff1673ffffffffffffffffffffffffffffffffffffffff1681526020019081526020016000206000505461151290919063ffffffff16565b603360005060008573ffffffffffffffffffffffffffffffffffffffff1673ffffffffffffffffffffffffffffffffffffffff16815260200190815260200160002060005081909090555061145c81603360005060008573ffffffffffffffffffffffffffffffffffffffff1673ffffffffffffffffffffffffffffffffffffffff1681526020019081526020016000206000505461153b90919063ffffffff16565b603360005060008473ffffffffffffffffffffffffffffffffffffffff1673ffffffffffffffffffffffffffffffffffffffff1681526020019081526020016000206000508190909055508173ffffffffffffffffffffffffffffffffffffffff168373ffffffffffffffffffffffffffffffffffffffff167fddf252ad1be2c89b69c2b068fc378daa952ba7f163c4a11628f55a4df523b3ef836040518082815260200191505060405180910390a35b505050565b60008282111515156115245760006000fd5b600082840390508091505061153556505b92915050565b6000600082840190508381101515156115545760006000fd5b8091505061155e56505b92915050565b828054600181600116156101000203166002900490600052602060002090601f016020900481019282601f106115a557805160ff19168380011785556115d8565b828001600101855582156115d8579182015b828111156115d757825182600050909055916020019190600101906115b7565b5b5090506115e591906115e9565b5090565b61161191906115f3565b8082111561160d57600081815060009055506001016115f3565b5090565b9056fe436f6e747261637420696e7374616e63652068617320616c7265616479206265656e20696e697469616c697a6564a265627a7a7231582040e1e205dab275530aa760107dd12921c4beb035ffaaa5c9cf6f25170a0a8a5f64736f6c634300050b0032","compiler":{"name":"solc","version":"0.5.11+commit.c082d0b4.Emscripten.clang","optimizer":{},"evmVersion":"constantinople"}}